:020000040800F2
:1000000000500020ED3000082D3100082D3100088F
:100010002D3100082D3100082D31000800000000AE
:100020000000000000000000000000002D3100086A
:100030002D310008000000002D3100082D3100088E
:100040002D3100082D3100082D3100082D31000818
:100050002D3100082D3100082D3100082D31000808
:100060002D3100082D3100082D3100082D310008F8
:100070002D3100082D310008F91100086112000827
:10008000211A0008791A00082D3100082D310008C6
:100090002D3100082D3100082D3100082D310008C8
:1000A0002D3100082D3100082D3100082D310008B8
:1000B0002D3100082D3100082D31000831160008BF
:1000C0008D1600082D3100082D3100082D31000853
:1000D0002D3100084D0900082D3100082D31000890
:1000E0002D3100082D3100082D31000800000000DE
:1000F0000000000000000000000000000000000000
:0C01000000000000000000005FF808F1A3
:1001100080B483B000AF0346FB7197F90730002B22
:100120000BDBFB7903F01F02064997F907305B09E7
:10013000012000FA02F241F8232000BF0C37BD462F
:1001400080BC704700E100E080B483B000AF03469C
:100150003960FB7197F90730002B0ADB3B68DAB294
:100160000C4997F907301201D2B20B4483F80023EF
:100170000AE03B68DAB20849FB7903F00F03043B5D
:100180001201D2B20B441A7600BF0C37BD4680BCB8
:10019000704700BF00E100E000ED00E080B582B0F4
:1001A00000AF786039603B687868984700BF0837CF
:1001B000BD4680BD80B483B000AF7860034A7B68E1
:1001C000D36000BF0C37BD4680BC704700080140BB
:1001D00080B483B000AF7860044A7B681B02D360B0
:1001E00000BF0C37BD4680BC704700BF000C01400B
:1001F00080B400AF344B1B68334A43F48033136040
:1002000000BF314B1B6803F40033002BF9D02F4B98
:100210001B682E4A43F0100313602C4B1B682B4ABB
:1002200023F007031360294B1B68284A43F002039D
:100230001360254B5B68244A23F47F5323F030037B
:100240005360214B5B68204A43F4806353601E4B2C
:100250005B681D4A43F4005353601B4B5B681A4AAA
:1002600023F474135360184B5B68174A43F48033CC
:100270005360154B5B68144A43F440235360124BA0
:100280001B68114A43F08073136000BF0E4B1B685C
:1002900003F00073002BF9D00B4B5B680A4A23F084
:1002A00003035360084B5B68074A43F00203536043
:1002B00000BF054B5B6803F00C03082BF9D100BFAE
:1002C00000BFBD4680BC70470010024000200240C5
:1002D00080B400AF2C4B1B682B4A43F4803313606F
:1002E00000BF294B1B6803F40033002BF9D0274BC8
:1002F0001B68264A43F010031360244B1B68234AF3
:1003000003F007031360214B1B68204A43F00403EA
:1003100013601D4B1C4A5B6853601B4B5B681A4A99
:1003200043F480335360184B00225A60164B164A30
:100330005B685360144B144A5B685360124B1B6834
:10034000114A43F08073136000BF0F4B1B6803F02A
:100350000073002BF9D00C4B5B680B4A23F00303AE
:100360005360094B5B68084A43F00203536000BFC7
:10037000054B5B6803F00C03082BF9D100BF00BFED
:10038000BD4680BC704700BF001002400020024004
:1003900080B400AF1C4B4FF480321A6000BF1A4B80
:1003A0001B6803F40033B3F5003FF8D1164B4FF44C
:1003B00000225A6203E0144B4FF400029A60124B81
:1003C0009B6803F40003B3F5000FF4D00E4B0E4A04
:1003D0005B6853600C4B0C4A5B6853600A4B0A4ADB
:1003E0005B685360084B5B68074A43F00103536046
:1003F00000BF054B5B6803F00403042BF9D100BF79
:1004000000BFBD4680BC70470010024080B483B07E
:1004100000AF786002E07B68013B7B607B68002B6B
:10042000F9D100BF00BF0C37BD4680BC704780B417
:1004300000AF284B1B68274A43F48033136000BF8A
:10044000244B1B6803F40033002BF9D0224B1B68AC
:10045000214A43F0100313601F4B1B681E4A03F030
:10046000070313601C4B1B681B4A43F00403136013
:10047000184B5B68174A23F44E335360154B5B6887
:10048000144A43F480635360124B1B68114A43F0D3
:100490008073136000BF0F4B1B6803F00073002BC9
:1004A000F9D00C4B5B680B4A23F003035360094BF4
:1004B0005B68084A43F00203536000BF054B5B686A
:1004C00003F00C03082BF9D100BF00BFBD4680BC70
:1004D000704700BF001002400020024080B400AF0F
:1004E000074B00221A60064B064A5A60044B002252
:1004F0009A60034B05221A6000BFBD4680BC70475E
:1005000010E000E03F19010080B485B000AF7860D2
:100510000023FB6009E000BF094B1B6803F4803334
:10052000002BF9D1FB680133FB60FA687B689A42C3
:10053000F1D300BF00BF1437BD4680BC704700BF79
:1005400010E000E080B485B000AFF860B9601346F9
:10055000FB80284B5B69274A43F001035361264B1C
:100560001B68254A23F001031360234AFB6893604C
:10057000214ABB68D360204AFB8853601E4B1B682E
:100580001D4A43F4805313601B4B1B681A4A43F007
:1005900010031360184B1B68174A43F48063136001
:1005A000154B1B68144A43F480731360124B1B688D
:1005B000114A43F0800313600F4B1B680E4A23F06F
:1005C000400313600C4B1B680B4A23F0200313609D
:1005D000094B1B68084A43F00E031360064B1B6867
:1005E000054A43F00103136000BF1437BD4680BCC9
:1005F000704700BF001002400800024080B400AF06
:1006000023E0174B1B6803F40023002B05D0144B89
:100610005B68134A23F400235360114B1B6803F4F7
:100620008023002B05D00E4B5B680D4A23F48023FA
:1006300053600B4B1B6803F40033002B05D0084BB1
:100640005B68074A23F400335360054B1B6803F4CF
:100650008033002BD5D100BF00BFBD4680BC7047A2
:100660000000024080B500AF104B9B6903F01003FF
:10067000002B05D10D4B9B690C4A43F0100393618D
:100680000B4B5B6803F40013002B03D1084B4FF4B2
:1006900000125A60064BDB68054A83F40053D360AE
:1006A0000448FFF731FF00BF80BD00BF00100240CB
:1006B00000100140C027090090B587B000AF7860F6
:1006C000786802F009F94FF00002454B02F07EF91C
:1006D00002460B4640A1D1E9000102F0A1FA024610
:1006E0000B461046194602F083FB03467B617B688C
:1006F0001B013C4AB2FBF3F3184602F07FFC0346B1
:100700003B613969786902F0C7FB03464FF08341CA
:10071000184601F0EBFE0346FB60386902F0C6FCA8
:100720000346BB607B68B3F5E13F44D07B68B3F51B
:10073000E13F4AD87B68B3F5614F32D07B68B3F5AF
:10074000614F42D87B68B3F5164F20D07B68B3F574
:10075000164F3AD87B68B3F5165F04D07B68B3F5C3
:10076000964F0AD031E0BB681C01F86802F09EFC8D
:1007700003461D4A2344936028E0BB681C01F868C7
:1007800002F094FC0346184A234493601EE0BB68C1
:100790001C01F86802F08AFC0346134A2344936064
:1007A00014E0BB681C01F86802F080FC03460E4AA6
:1007B000234493600AE0BB681C01F86802F076FCF1
:1007C0000346094A2344936000E000BF00BF1C3782
:1007D000BD4690BDAFF3008000000000D012734111
:1007E00000003040002D31010038014080B400AFDE
:1007F0000D4B9B690C4A43F4804343F0050393611E
:100800000A4B5B68094A23F004035360084B9022AB
:100810005A60074B5B68064A43F48063536000BF2D
:10082000BD4680BC704700BF001002400000014080
:100830000008014080B400AF0D4B9B690C4A43F4A3
:10084000804343F0090393610A4B5B68094A43F014
:1008500004035360084B4FF020621A60064B1B687C
:10086000054A43F08043136000BFBD4680BC70471B
:100870000010024000000140000C014080B400AFB5
:10088000154B9B69144A43F005039361124BDB69D6
:10089000114A43F40033D361104B5B680F4A23F0D5
:1008A000080353600E4B4FF430621A600C4B1B6808
:1008B0000B4A43F030031360094B1B68084A43F4AA
:1008C00080431360064B1B68054A43F00403136022
:1008D00000BFBD4680BC70470010024000000140D0
:1008E0000008014080B400AF154B9B69144A43F0E7
:1008F00009039361124BDB69114A43F48023D361EE
:10090000104B5B680F4A23F0080353600E4B4FF403
:1009100030625A600C4B5B680B4A43F04073536083
:10092000094B5B68084A43F480435360064B5B689D
:10093000054A43F48003536000BFBD4680BC704746
:100940000010024000000140000C014080B400AFE4
:100950000D4B1B6803F04003002B05D00A4B1B68AE
:10096000094A23F040031360074B1B6803F0200380
:10097000002B05D0044B1B68034A23F020031360AF
:1009800000BFBD4680BC70470038014080B582B0D2
:1009900000AF7860FFF72AFF0E4B0022DA6078681C
:1009A000FFF78AFE0B4B4FF440521A61094B60224D
:1009B000DA60084BDB68074A43F00C03D360054B51
:1009C000DB68044A43F40053D36000BF0837BD46D8
:1009D00080BD00BF0038014080B483B000AF034643
:1009E000FB710B4AFB79536000BF094B1B6803F096
:1009F0008003002BF9D0064B1B68DAB2054B1A7046
:100A0000034B5B68DBB218460C37BD4680BC7047B1
:100A1000003801400400002090B589B000AF786034
:100A200007F108037968184601F0D8FB0023FB772B
:100A30000AE0FB7F20333B4413F8183C1846FFF7CD
:100A4000CBFFFB7F0133FB77FC7F786801F098FBDD
:100A5000034601339C42ECD300BF00BF2437BD46A0
:100A600090BD80B400AF00BF124B1B6803F02003A1
:100A7000002BF9D00F4B5B68DAB20F4B1A7000BF36
:100A80000C4B1B6803F00203002BF9D100BF094B8C
:100A90001B6803F00403002BF9D1064B1B68DAB284
:100AA000064B1A70044B1B78DBB21846BD4680BC5F
:100AB000704700BF003801400500002004000020FE
:100AC00080B582B000AF7860FFF7B4FE7868FFF7BA
:100AD000F3FD124B4FF440521A61104B0022DA60C2
:100AE0000E4BDB680D4A43F04003D3600B4BDB68D1
:100AF0000A4A43F00C03D360084BDB68074A43F40F
:100B00000053D36002212520FFF71EFB2520FFF7AD
:100B1000FFFA00BF0837BD4680BD00BF0038014066
:100B200080B582B000AF0346FB71FB791846FFF732
:100B300053FF034618460837BD4680BD80B582B0D6
:100B400000AF78607868FFF767FF00BF0837BD46E1
:100B500080BD80B500AFFFF784FF00BF80BD90B5BA
:100B600087B000AF7860786801F0B6FE4FF0000201
:100B7000454B01F02BFF02460B4641A1D1E9000194
:100B800002F04EF802460B461046194602F030F9C4
:100B900003467B617B681B013C4AB2FBF3F31846BA
:100BA00002F02CFA03463B613969786902F074F966
:100BB00003464FF08341184601F098FC0346FB6062
:100BC000386902F073FA0346BB607B68B3F5E13F16
:100BD00044D07B68B3F5E13F4AD87B68B3F5614FF9
:100BE00032D07B68B3F5614F42D87B68B3F5164FBE
:100BF00020D07B68B3F5164F3AD87B68B3F5165F03
:100C000004D07B68B3F5964F0AD031E0BB681C0175
:100C1000F86802F04BFA03461D4A2344936028E02B
:100C2000BB681C01F86802F041FA0346184A2344E5
:100C300093601EE0BB681C01F86802F037FA0346B7
:100C4000134A2344936014E0BB681C01F86802F067
:100C50002DFA03460E4A234493600AE0BB681C0148
:100C6000F86802F023FA0346094A2344936000E03F
:100C700000BF00BF1C37BD4690BD00BFAFF3008072
:100C800000000000D012734100003040002D3101FF
:100C90000044004080B582B000AF7860FFF7EEFD01
:100CA0007868FFF75CFF134B4FF440521A61114B09
:100CB0000022DA600F4B5B690E4A23F4E063536154
:100CC0000C4BDB680B4A43F04003D360094B4FF4F5
:100CD000E0625A61074BDB68064A43F00C03D360BD
:100CE000044BDB68034A43F40053D36000BF08376A
:100CF000BD4680BD0044004080B483B000AF0346D1
:100D0000FB710B4AFB79536000BF094B1B6803F072
:100D10004003002BF9D0064B5B68DAB2054B1A7022
:100D2000044B1B78DBB218460C37BD4680BC7047BD
:100D3000004400400500002080B400AF114B5B6808
:100D4000DAB2114B1A700F4B1B68DAB20E4B1A70E5
:100D500000BF0C4B1B6803F02003002BF9D000BF31
:100D6000084B1B6803F00203002BF9D1054B5B68AD
:100D7000DAB2064B1A70054B1B78DBB21846BD463B
:100D800080BC7047004400400400002005000020A3
:100D900090B589B000AF786007F10803796818460C
:100DA00001F01CFA2020FFF7A7FF0023FB770AE0E1
:100DB000FB7F20333B4413F8183C1846FFF79CFF99
:100DC000FB7F0133FB77FC7F786801F0D9F903469C
:100DD00001339C42ECD300BF00BF2437BD4690BD19
:100DE00080B582B000AF0346FB71184B1B6803F45B
:100DF0000073002B06D0154B1B6803F40073002B07
:100E000011D100E000BF124BDB68114A23F002034E
:100E1000D360FFF791FF03461846FFF76DFF0C4BB9
:100E20000222DA6000E000BF094B0222DA60FB799F
:100E30001846FFF761FF064BDB68054A23F0020303
:100E4000D36000BF0837BD4680BD00BF00440040EE
:100E50000008014090B587B000AF7860786801F075
:100E60003BFD4FF00002444B01F0B0FD02460B4643
:100E70003FA1D1E9000101F0D3FE02460B46104626
:100E8000194601F0B5FF03467B617B681B013B4AB5
:100E9000B2FBF3F3184602F0B1F803463B6139693F
:100EA000786901F0F9FF03464FF08341184601F0DD
:100EB0001DFB0346FB60386902F0F8F80346BB608F
:100EC0007B68B3F5E13F44D07B68B3F5E13F4AD896
:100ED0007B68B3F5614F32D07B68B3F5614F42D880
:100EE0007B68B3F5164F20D07B68B3F5164F3AD820
:100EF0007B68B3F5165F04D07B68B3F5964F0AD0D4
:100F000031E0BB681C01F86802F0D0F803461C4AC7
:100F10002344936028E0BB681C01F86802F0C6F81F
:100F20000346174A234493601EE0BB681C01F8681F
:100F300002F0BCF80346124A2344936014E0BB68F5
:100F40001C01F86802F0B2F803460D4A234493608E
:100F50000AE0BB681C01F86802F0A8F80346084ADA
:100F60002344936000E000BF00BF1C37BD4690BD26
:100F700000000000D012734100003040002D31010C
:100F80000048004080B582B000AF7860FFF7AAFC4F
:100F90007868FFF75FFF164B4FF440521A61144B0D
:100FA000DB68134A23F4435323F02C03D360104B24
:100FB0005B690F4A23F4E06353610D4BDB680C4A15
:100FC00043F0E003D3600A4B4FF4E0625A61084BF0
:100FD000DB68074A43F00C03D360054BDB68044A27
:100FE00043F40053D36000BF0837BD4680BD00BF47
:100FF0000048004080B483B000AF0346FB710B4A49
:10100000FB79536000BF094B1B6803F04003002BC2
:10101000F9D0064B5B68DAB2054B1A70044B1B78AB
:10102000DBB218460C37BD4680BC70470048004014
:101030000500002080B400AF114B5B68DAB2114BA1
:101040001A700F4B1B68DAB20E4B1A7000BF0C4BB4
:101050001B6803F02003002BF9D000BF084B1B686E
:1010600003F00203002BF9D1054B5B68DAB2064BA3
:101070001A70054B1B78DBB21846BD4680BC704722
:1010800000480040040000200500002090B589B011
:1010900000AF786007F108037968184601F09EF800
:1010A0002020FFF7A7FF0023FB770AE0FB7F203318
:1010B0003B4413F8183C1846FFF79CFFFB7F0133B5
:1010C000FB77FC7F786801F05BF8034601339C42B4
:1010D000ECD300BF00BF2437BD4690BD80B582B0C1
:1010E00000AF0346FB7100BF0B4B1B6803F400739A
:1010F000002BF9D0094B0222DA60FB791846FFF782
:1011000079FF064BDB68054A23F00203D36000BF7A
:101110000837BD4680BD00BF0048004000080140C0
:1011200080B500AF00BF0B4B1B6803F40073002BAE
:10113000F9D0094BDB68084A23F00203D360FFF7BC
:1011400079FF03461846FFF755FF034B0222DA608A
:1011500000BF80BD004800400008014080B582B05B
:1011600000AF0346FB71184B1B6803F40073002BA0
:1011700006D0154B1B6803F40073002B11D100E05F
:1011800000BF124BDB68114A23F00203D360FFF764
:1011900051FF03461846FFF72DFF0C4B0222DA6081
:1011A00000E000BF094B0222DA60FB791846FFF726
:1011B00021FF064BDB68054A23F00203D36000BF22
:1011C0000837BD4680BD00BF004800400008014010
:1011D00080B400AF064B0022DA60064B9B69054ADB
:1011E00023F48043936100BFBD4680BC704700BFBD
:1011F000003801400010024080B400AF164B1B685D
:1012000003F48043002B05D0134B5B68124A43F470
:1012100080435360104B1B6803F40053002B05D030
:101220000D4B5B680C4A43F4005353600A4B1B6838
:1012300003F40043002B05D0074B5B68064A43F4D8
:1012400000435360054B1B68044A23F001031360FD
:1012500000BFBD4680BC7047000002404400024011
:1012600080B400AF094B1B6803F40033002B08D097
:10127000074B01221A70054B5B68044A43F40033A4
:10128000536000BFBD4680BC704700BF00000240F5
:101290001C00002080B582B000AF786039603968EA
:1012A000354800F09BFF354B5B69344A43F001033E
:1012B0005361FFF79BFA7868FFF7FEF9304B002285
:1012C000DA602F4B4FF440521A612E4B2E4A9A602F
:1012D0002C4B294ADA60386800F052FF0346294A4D
:1012E0005B005360274B1B68264A43F020031360C2
:1012F000244B1B68234A43F080031360214B1B6877
:10130000204A23F0400313601E4B1B681D4A43F024
:10131000100313601B4B1B681A4A23F4706313609D
:10132000184B1B68174A43F480531360144B5B69D6
:10133000134A43F080035361124B1B68114A43F078
:101340000E03136002210E20FEF7FEFE0E20FEF7B4
:10135000DFFE0B4BDB680A4A43F4005343F00803FB
:10136000D360084B1B68074A43F00103136000BFBA
:101370000837BD4680BD00BF0800002000100240B5
:1013800000380140440002400438014080B582B07A
:1013900000AF78603960344B5B69334A43F0010336
:1013A0005361FFF723FA7868FFF786F92F4B002285
:1013B000DA602E4B4FF440521A612D4B2D4A9A6041
:1013C0002B4A3B68D360386800F0DAFE0346284AAF
:1013D0005B005360264B1B68254A43F020031360D3
:1013E000234B1B68224A43F080031360204B1B6889
:1013F0001F4A23F0400313601D4B1B681C4A43F037
:10140000100313601A4B1B68194A23F470631360AE
:10141000174B1B68164A43F480531360134B5B69E8
:10142000124A43F080035361114B1B68104A43F08A
:101430000E03136002210E20FEF786FE0E20FEF73B
:1014400067FE0A4BDB68094A43F4005343F0080384
:10145000D360074B1B68064A43F00103136000BFCB
:101460000837BD4680BD00BF001002400038014073
:10147000440002400438014080B584B000AFF860F9
:10148000B9601346FB80FFF7D5F9344B5B69334AEB
:1014900043F001035361F868FFF70EF9304B4FF446
:1014A00040521A612E4B0022DA602D4BDB682C4A29
:1014B00043F4005343F00C03D360294B5B69284A83
:1014C00043F040035361274B00221A60254B1B68F1
:1014D000244A23F001031360224B234A9A60214AD5
:1014E00007F10803D3601F4AFB8853601D4B1B683C
:1014F0001C4A43F4005313601A4B1B68194A23F02B
:1015000010031360174B1B68164A43F080031360E7
:10151000144B1B68134A23F040031360114B1B68E4
:10152000104A43F0200313600E4B1B680D4A43F032
:10153000020313600D4B00221A700A4B1B68094A04
:1015400043F00103136002210F20FEF7FDFD0F2081
:10155000FEF7DEFD00BF1037BD4680BD0010024023
:101560000038014058000240043801401C000020AF
:1015700080B400AF134BDB69124A43F40013D3610C
:10158000104B9B690F4A43F0090393610E4B5B6854
:101590000D4A43F0D00353600B4B5B680A4A43F09B
:1015A0000D035360094B5B68084A43F00203536024
:1015B000064B5B68054A23F0E063536000BFBD46FD
:1015C00080BC704700100240000C01400000014048
:1015D00080B400AF124BDB69114A43F40013D361AE
:1015E0000F4B9B690E4A43F0190393610D4B4FF06B
:1015F00050421A600B4B1B680A4A43F05063136059
:10160000094B4FF480025A60084B5B68074A23F08D
:10161000E06323F00203536000BFBD4680BC704707
:1016200000100240000C0140001001400000014089
:1016300080B500AF134B5B69DBB21B12DBB21846FF
:10164000FFF7CAF90F4B5B69DBB21846FFF7C4F925
:101650000C4B5B6903F00103002B03D0094B5B6962
:10166000094A1360074B5B6903F00203002B07D0A4
:10167000044B5B69044A1360024B9B69024A136086
:1016800000BF80BD005400402000002080B400AFA7
:101690001F4B5B6903F48043002B05D01C4B5B6937
:1016A0001B4A23F480435361194B5B6903F4806345
:1016B000002B05D0164B5B69154A23F480635361F8
:1016C000134B5B6903F40073002B05D0104B5B696F
:1016D0000F4A23F4007353610D4B5B6903F480736D
:1016E000002B05D00A4B5B69094A23F480735361D0
:1016F000074B5B6903F40063002B05D0044B5B6967
:10170000034A23F40063536100BFBD4680BC7047A9
:101710000054004080B582B000AF0346FB71184B07
:101720009B6903F01003002B05D1154B9B69144AEC
:1017300043F010039361134B5B6803F40013002B19
:1017400003D1104B4FF400125A600F4B1B78FA79FB
:101750009A4203D10B4B4FF40052DA600B4B1B78CB
:10176000FA799A4205D1074BDB68064A23F4005305
:10177000D3600748FEF7C8FE00BF0837BD4680BDEE
:101780000010024000100140000000202C0000204A
:1017900040420F0080B500AF374B1B781846FFF76B
:1017A000B9FF364B1B781846FFF7B4FFFFF710FF61
:1017B000334B00221A60324B00225A60304B002219
:1017C0005A612F4B00229A612D4B0022DA612C4B7B
:1017D00014225A602A4B1B68294A23F02003136005
:1017E000274B6422DA61264BDB69254A23F4404308
:1017F000D361234B15221A62214B1B68204A43F404
:10180000806313601E4B1B681D4A43F00103136085
:1018100029E01B4B4FF400421A601A48FEF774FE91
:10182000174B1B68164A23F400431360144B142211
:101830005A60134B1B68124A23F020031360104BAD
:101840006422DA610E4BDB690D4A23F44043D36115
:101850000B4B15221A620A4B1B68094A43F480633A
:1018600043F001031360064B9B6903F00203002B56
:10187000CFD100BF00BF80BD2C00002000000020A1
:1018800000540040400D030080B400AF124B5B6970
:1018900003F00103002B06D00F4B5B690F4A136066
:1018A0000D4B00221A610C4B1B680B4A43F48073EA
:1018B000136000BF084B5B6903F00103002BF9D0F4
:1018C000054B9B69054A1360034B5B69034A136030
:1018D00000BFBD4680BC704700540040200000207F
:1018E00080B483B000AF0346FB711B4AFB791361E0
:1018F000FB794F2B0CBF01230023DAB2FB79002BBD
:101900000CBF01230023DBB21343DBB2002B0DD04D
:1019100000BF114B5B6903F00203002BF9D00E4BA3
:101920009B690E4A13600E4B00221A70FB794E2BF6
:101930000DD100BF084B5B6903F00203002BF9D007
:10194000054B9B69054A1360054B01221A7000BFC5
:101950000C37BD4680BC704700540040200000207A
:101960002D00002080B483B000AF0346FB711F4AF6
:10197000FB79136100BF1D4B5B6903F08003002BF3
:10198000F9D000BF194B5B6903F00403002BF9D0B9
:1019900000BF164B9B6903F00403002BF9D000BF76
:1019A000124B9B6903F00203002BF9D000BF0F4BD1
:1019B0009B6903F00103002BF9D00C4B5B6903F02A
:1019C0004003002B03D0094B1B69094A1360074BE6
:1019D0005B6903F04003002B03D1044B1B69044AED
:1019E000136000BF0C37BD4680BC704700540040F8
:1019F0002400002080B500AF084B1B68074A43F461
:101A00000073136000BF054B1B6803F40073002BC9
:101A1000F9D0EE20FEF7E0FF00BF80BD005400408B
:101A200080B400AF134B1B6803F48003002B05D078
:101A3000104B5B680F4A43F4800353600D4B1B68E7
:101A400003F40013002B05D00A4B5B68094A43F4EA
:101A500000135360074B1B6803F40003002B05D0F1
:101A6000044B5B68034A43F40003536000BFBD4668
:101A700080BC70470000024080B400AF094B1B6877
:101A800003F00073002B08D0074B01221A70054B9E
:101A90005B68044A43F00073536000BFBD4680BCDE
:101AA000704700BF000002402F02002080B582B0C6
:101AB00000AF78600B467B802E4B1B781846FFF7F3
:101AC00029FE2D4B1B781846FFF724FE79682B481A
:101AD00000F084FB2A4B5B69294A43F00103536100
:101AE000284B294A9A60274B284ADA60254A7B8886
:101AF0005360244B1B68234A43F020031360214B9F
:101B00001B68204A43F0800313601E4B1B681D4A6C
:101B100023F0400313601B4B1B681A4A43F0100369
:101B20001360184B1B68174A23F470631360154B3E
:101B30001B68144A43F480531360124B1B68114A0C
:101B400043F00E03136002211020FEF7FDFA10206F
:101B5000FEF7DEFA00F01EF84E2000F021F80C4BE4
:101B60005B680B4A43F40063536000BF0837BD460F
:101B700080BD00BF2C0000200000002030000020AD
:101B8000001002406C000240105400400800002089
:101B90000054004080B500AFFFF776FE00BF80BD67
:101BA00080B582B000AF0346FB71FB791846FFF7A2
:101BB00097FE00BF0837BD4680BD80B582B000AF3C
:101BC0000346FB80384B5B69374A43F0010353619E
:101BD000FFF7FEFC354B00221A60344B00225A609E
:101BE000334B1B781846FFF795FD324B1B78184690
:101BF000FFF790FD2D4B14225A602C4B1B682B4A8B
:101C000023F020031360294BDB69284A43F0640367
:101C1000D361264BDB69254A23F44043D361234B30
:101C200015221A62244B254A9A60234B244ADA6013
:101C3000214AFB885360204B1B681F4A43F0200356
:101C400013601D4B1B681C4A43F0800313601A4B42
:101C50001B68194A23F040031360174B1B68164A90
:101C600043F010031360144B1B68134A23F4706392
:101C70001360114B1B68104A43F480531360114BDF
:101C800000221A700C4B1B680B4A43F002031360CE
:101C900002211120FEF758FA1120FEF739FA00BF91
:101CA0000837BD4680BD00BF001002400054004010
:101CB0002C00002000000020800002401054004052
:101CC000300100202F02002080B584B000AF034611
:101CD000FB7108220021164800F002FA08220021B8
:101CE000144800F0FDF90123FB730023BB7316E0D9
:101CF000FA79FB7B1340DBB21A46BB7B1A41BB7BF4
:101D0000D1B20B4AD154BA7BBB7B0949895C094AE1
:101D1000D154FB7B5B00FB73BB7B0133BB73BB7B91
:101D2000072BE5D900BF00BF1037BD4680BD00BFFF
:101D3000380200204002002080B487B000AF034684
:101D4000FB710123FB750023BB7512E0FA79FB7D63
:101D50001340DBB21A46BB7D1A41BB7DD2B21833A9
:101D60003B4403F80C2CFB7D5B00FB75BB7D013312
:101D7000BB75BB7D072BE9D9FA7C0E4B1A70BA7C78
:101D80000C4B5A707A7C0B4B9A703A7C094BDA7088
:101D9000FA7B084B1A71BA7B064B5A717A7B054B5A
:101DA0009A713A7B034BDA7100BF1C37BD4680BC89
:101DB000704700BF4802002080B584B000AF0346E2
:101DC000FB718023FB73124B00221A70FB791846BB
:101DD000FFF77AFF0023BB7311E0BB7B0D4AD35C96
:101DE000012B06D10A4B1A78FB7B1344DAB2084B5D
:101DF0001A70FB7B5B08FB73BB7B0133BB73BB7B44
:101E0000072BEAD9024B1B7818461037BD4680BD18
:101E1000340200204002002080B483B000AF0346AB
:101E2000FB71064AFB791370FB791B01DAB2044B94
:101E30001A7000BF0C37BD4680BC704733020020CB
:101E40003202002080B582B000AF03460A46FB7123
:101E50001346BB71FB791846FFF7DEFF104B1B786A
:101E60001846FFF77FFD0E4B1A78BB791343DBB2A0
:101E70001846FFF777FD4CF25030FEF745FB094B53
:101E80001B781846FFF76EFD064B1A78BB79134393
:101E9000DBB21846FFF766FD00BF0837BD4680BDC0
:101EA000320200203302002080B582B000AF03462A
:101EB000FB71FB791846FFF7AFFF094B1B7843F026
:101EC0000803DBB21846FFF74DFD0020FFF74AFD7F
:101ED0004CF25030FEF718FB00BF0837BD4680BDFE
:101EE0003202002080B582B000AF0346FB71FB795F
:101EF00008211846FFF7A6FF4CF25030FEF704FB0E
:101F000000BF0837BD4680BD80B582B000AF034634
:101F1000FB71FB790A211846FFF794FF4CF2503011
:101F2000FEF7F2FA00BF0837BD4680BD80B500AFAE
:101F30001248FEF7E9FA3020FFF7B6FF0F48FEF728
:101F4000E3FA3020FFF7B0FF4CF25030FEF7DCFA36
:101F50003020FFF7A9FF4CF25030FEF7D5FA2020D1
:101F6000FFF7A2FF0820FFF7BDFF2420FFF7BAFF0D
:101F70000F20FFF7B7FF00BF80BD00BFA0860100A4
:101F800080B582B000AF0346FB71FB791846FFF7BE
:101F9000BBFF00BF0837BD4680BD90B58BB000AF1A
:101FA000786007F108031E220021184600F098F817
:101FB00007F108037968184600F010F90120FFF7CF
:101FC00091FF002387F827300DE097F8273028335A
:101FD0003B4413F8203C1846FFF7D2FF97F8273010
:101FE000013387F8273097F82740786800F0C8F861
:101FF00003469C42E9D300BF00BF2C37BD4690BDCD
:1020000090B58BB000AF786007F108031E22002165
:10201000184600F065F807F108037968184600F0E3
:10202000DDF8002387F827300DE097F827302833B4
:102030003B4413F8203C1846FFF7A2FF97F82730DF
:10204000013387F8273097F82740786800F098F830
:1020500003469C42E9D300BF00BF2C37BD4690BD6C
:1020600080B582B000AF786039607868FFF795FF7F
:10207000C020FFF737FF3868FFF7C2FF00BF0837FF
:10208000BD4680BD80B500AFFFF7B4FC00BF80BD8A
:1020900080B500AF0B4B0022DA610A4B00229A6137
:1020A000FEF7A6F8FEF71AFA0748FEF72DFA4FF4E6
:1020B0009640FEF76BFCFEF7D4FC03461846FEF78D
:1020C0008BFCF8E70010024040420F00303100085E
:1020D0000000002004000020040000205C0200201A
:1020E00070B5860747D0541E002A3ED00346CAB2B8
:1020F00001E0013C39D303F8012B9D07F9D1032CF2
:102100002CD9CDB205EB05250F2C1A4605EB05455C
:1021100034D9A4F1100C2CF00F0603F1100EB644C4
:102120004FEA1C1CC2E90055C2E902551032724543
:10213000F8D10CF1010214F00C0F03EB021204F0C1
:102140000F0C13D0ACF1040323F003030433134446
:1021500042F8045B9342FBD10CF003042CB1C9B2EA
:102160001C4403F8011BA342FBD170BD6446134617
:10217000002CF4D1F9E703461446C0E7A446E1E792
:1021800020F0030110F00300C0F1000051F8043BFF
:1021900000F1040C4FEACC0C6FF000021CBF22FAD5
:1021A0000CF213434FF0010C4CEA0C2C4CEA0C4C93
:1021B000A3EB0C0222EA030212EACC1204BF51F88C
:1021C000043B0430F4D0C2F1000102EA0102B2FA89
:1021D00082F2C2F11F0200EBD200704780EA0102D6
:1021E000844612F0030F4FD111F0030F32D14DF896
:1021F000044D11F0040F51F8043B0BD0A3F1013250
:102200009A4312F0803F04BF4CF8043B51F8043B62
:1022100016D100BF51F8044BA3F101329A4312F0DA
:10222000803FA4F101320BD14CF8043BA24312F0E1
:10223000803F04BF51F8043B4CF8044BEAD02346DE
:102240000CF8013B13F0FF0F4FEA3323F8D15DF890
:10225000044B704711F0010F06D011F8012B0CF858
:10226000012B002A08BF704711F0020FBFD031F8D0
:10227000022B12F0FF0F16BF2CF8022B8CF8002057
:1022800012F47F4FB3D1704711F8012B0CF8012BDA
:10229000002AF9D1704700BF70B54FF0FF0C4CF425
:1022A000E06C1CEA11541DBF1CEA135594EA0C0F94
:1022B00095EA0C0F00F0DEF82C4481EA030621EACF
:1022C0004C5123EA4C5350EA013518BF52EA03350A
:1022D00041F4801143F4801338D0A0FB02CE4FF0BC
:1022E0000005E1FB02E506F00042E0FB03E54FF0EC
:1022F0000006E1FB03569CF0000F18BF4EF0010EE4
:10230000A4F1FF04B6F5007F64F5407404D25FEADF
:102310004E0E6D4146EB060642EAC62141EA555192
:102320004FEAC52040EA5E504FEACE2EB4F1FD0CD4
:1023300088BFBCF5E06F1ED8BEF1004F08BF5FEA52
:10234000500E50F1000041EB045170BD06F0004604
:1023500046EA010140EA020081EA0301B4EB5C04B1
:10236000C2BFD4EB0C0541EA045170BD41F48011A9
:102370004FF0000E013C00F3AB8014F1360FDEBFCE
:10238000002001F0004170BDC4F10004203C35DAAA
:102390000C341BDC04F11404C4F1200500FA05F32D
:1023A00020FA04F001FA05F240EA020001F00042CE
:1023B00021F0004110EBD37021FA04F642EB060144
:1023C0005EEA430E08BF20EAD37070BDC4F10C046E
:1023D000C4F1200500FA04F320FA05F001FA04F232
:1023E00040EA020001F0004110EBD37041F100011E
:1023F0005EEA430E08BF20EAD37070BDC4F1200529
:1024000000FA05F24EEA020E20FA04F301FA05F290
:1024100043EA020321FA04F001F0004121FA04F238
:1024200020EA020000EBD3705EEA430E08BF20EA08
:10243000D37070BD94F0000F0FD101F00046400042
:1024400041EB010111F4801F08BF013CF7D041EAC4
:10245000060195F0000F18BF704703F000465200C8
:1024600043EB030313F4801F08BF013DF7D043EA99
:102470000603704794EA0C0F0CEA135518BF95EA4F
:102480000C0F0CD050EA410618BF52EA4306D1D1D6
:1024900081EA030101F000414FF0000070BD50EAF5
:1024A000410606BF1046194652EA430619D094EA7F
:1024B0000C0F02D150EA013613D195EA0C0F05D169
:1024C00052EA03361CBF104619460AD181EA0301BD
:1024D00001F0004141F0FE4141F470014FF0000075
:1024E00070BD41F0FE4141F4780170BD4FF0FF0C2A
:1024F0001CEAD0521EBF1CEAD15392EA0C0F93EA99
:102500000C0F6FD01A4480EA010C400218BF5FEA3A
:1025100041211ED04FF0006343EA501043EA5111AD
:10252000A0FB01310CF00040B1F5000F3EBF4900A7
:1025300041EAD3715B0040EA010062F17F02FD2AAB
:102540001DD8B3F1004F40EBC25008BF20F001008E
:10255000704790F0000F0CF0004C08BF49024CEAA5
:10256000502040EA51207F3AC2BFD2F1FF0340EA37
:10257000C250704740F400004FF00003013A5DDCA8
:1025800012F1190FDCBF00F000407047C2F10002E9
:10259000410021FA02F1C2F1200200FA02FC5FEAD6
:1025A000310040F1000053EA4C0308BF20EADC7020
:1025B000704792F0000F00F0004C02BF400010F492
:1025C000000F013AF9D040EA0C0093F0000F01F03F
:1025D000004C02BF490011F4000F013BF9D041EA61
:1025E0000C018FE70CEAD15392EA0C0F18BF93EA63
:1025F0000C0F0AD030F0004C18BF31F0004CD8D18D
:1026000080EA010000F00040704790F0000F17BF13
:1026100090F0004F084691F0000F91F0004F14D059
:1026200092EA0C0F01D142020FD193EA0C0F03D1B1
:102630004B0218BF084608D180EA010000F00040B4
:1026400040F0FE4040F40000704740F0FE4040F48F
:102650004000704781F0004102E000BF83F000437A
:1026600030B54FEA41044FEA430594EA050F08BF2D
:1026700090EA020F1FBF54EA000C55EA020C7FEAF1
:10268000645C7FEA655C00F0E2804FEA5454D4EB6E
:102690005555B8BF6D420CDD2C4480EA020281EA38
:1026A000030382EA000083EA010180EA020281EA70
:1026B0000303362D88BF30BD11F0004F4FEA0131C2
:1026C0004FF4801C4CEA113102D0404261EB4101D1
:1026D00013F0004F4FEA03334CEA133302D0524257
:1026E00063EB430394EA050F00F0A780A4F1010413
:1026F000D5F1200E0DDB02FA0EFC22FA05F280184D
:1027000041F1000103FA0EF2801843FA05F3594132
:102710000EE0A5F120050EF1200E012A03FA0EFCB1
:1027200028BF4CF0020C43FA05F3C01851EBE371DB
:1027300001F0004507D54FF0000EDCF1000C7EEBF8
:1027400000006EEB0101B1F5801F1BD3B1F5001F36
:102750000CD349085FEA30004FEA3C0C04F1010455
:102760004FEA445212F5800F80F09A80BCF1004F7E
:1027700008BF5FEA500C50F1000041EB045141EA00
:10278000050130BD5FEA4C0C404141EB0101013CC9
:1027900028BFB1F5801FE9D291F0000F04BF0146B8
:1027A0000020B1FA81F308BF2033A3F10B03B3F18A
:1027B00020020CDA0C3208DD02F1140CC2F10C021A
:1027C00001FA0CF021FA02F10CE002F11402D8BF78
:1027D000C2F1200C01FA02F120FA0CFCDCBF41EA44
:1027E0000C019040E41AA2BF01EB0451294330BD13
:1027F0006FEA04041F3C1CDA0C340EDC04F11404F0
:10280000C4F1200220FA04F001FA02F340EA0300C6
:1028100021FA04F345EA030130BDC4F10C04C4F10C
:10282000200220FA02F001FA04F340EA03002946EC
:1028300030BD21FA04F0294630BD94F0000F83F436
:10284000801306BF81F480110134013D4EE77FEA19
:10285000645C18BF7FEA655C29D094EA050F08BF65
:1028600090EA020F05D054EA000C04BF1946104646
:1028700030BD91EA030F1EBF0021002030BD5FEA8A
:10288000545C05D14000494128BF41F0004130BDB2
:1028900014F580043CBF01F5801130BD01F0004506
:1028A00045F0FE4141F470014FF0000030BD7FEA79
:1028B000645C1ABF194610467FEA655C1CBF0B4674
:1028C000024650EA013406BF52EA033591EA030F8B
:1028D00041F4002130BD00BF90F0000F04BF002183
:1028E000704730B54FF4806404F132044FF00005B6
:1028F0004FF0000150E700BF90F0000F04BF00212F
:10290000704730B54FF4806404F1320410F0004594
:1029100048BF40424FF000013EE700BF42004FEA8F
:10292000E2014FEA31014FEA02701FBF12F07F430C
:1029300093F07F4F81F06051704732F07F4208BFC3
:10294000704793F07F4F04BF41F40021704730B5CA
:102950004FF4607401F0004521F000411CE700BF16
:1029600050EA010208BF704730B54FF000050AE099
:1029700050EA010208BF704730B511F0004502D59A
:10298000404261EB41014FF4806404F132045FEA9C
:10299000915C3FF4D8AE4FF003025FEADC0C18BF45
:1029A00003325FEADC0C18BF033202EBDC02C2F137
:1029B000200300FA03FC20FA02F001FA03FE40EAC9
:1029C0000E0021FA02F11444BDE600BF70B54FF0CD
:1029D000FF0C4CF4E06C1CEA11541DBF1CEA1355AB
:1029E00094EA0C0F95EA0C0F00F0DEF82C4481EA13
:1029F000030621EA4C5123EA4C5350EA013518BF33
:102A000052EA033541F4801143F4801338D0A0FB1F
:102A100002CE4FF00005E1FB02E506F00042E0FBCC
:102A200003E54FF00006E1FB03569CF0000F18BFD2
:102A30004EF0010EA4F1FF04B6F5007F64F540747A
:102A400004D25FEA4E0E6D4146EB060642EAC6210D
:102A500041EA55514FEAC52040EA5E504FEACE2E7A
:102A6000B4F1FD0C88BFBCF5E06F1ED8BEF1004F7D
:102A700008BF5FEA500E50F1000041EB045170BDF9
:102A800006F0004646EA010140EA020081EA03013D
:102A9000B4EB5C04C2BFD4EB0C0541EA045170BD39
:102AA00041F480114FF0000E013C00F3AB8014F1B3
:102AB000360FDEBF002001F0004170BDC4F10004FC
:102AC000203C35DA0C341BDC04F11404C4F120057D
:102AD00000FA05F320FA04F001FA05F240EA0200D8
:102AE00001F0004221F0004110EBD37021FA04F60E
:102AF00042EB06015EEA430E08BF20EAD37070BDC8
:102B0000C4F10C04C4F1200500FA04F320FA05F026
:102B100001FA04F240EA020001F0004110EBD37028
:102B200041F100015EEA430E08BF20EAD37070BD98
:102B3000C4F1200500FA05F24EEA020E20FA04F371
:102B400001FA05F243EA020321FA04F001F0004120
:102B500021FA04F220EA020000EBD3705EEA430E91
:102B600008BF20EAD37070BD94F0000F0FD101F0C0
:102B70000046400041EB010111F4801F08BF013CF9
:102B8000F7D041EA060195F0000F18BF704703F037
:102B90000046520043EB030313F4801F08BF013DBE
:102BA000F7D043EA0603704794EA0C0F0CEA13557A
:102BB00018BF95EA0C0F0CD050EA410618BF52EA34
:102BC0004306D1D181EA030101F000414FF000003A
:102BD00070BD50EA410606BF1046194652EA430648
:102BE00019D094EA0C0F02D150EA013613D195EABC
:102BF0000C0F05D152EA03361CBF104619460AD104
:102C000081EA030101F0004141F0FE4141F470010D
:102C10004FF0000070BD41F0FE4141F4780170BDFD
:102C200070B54FF0FF0C4CF4E06C1CEA11541DBF62
:102C30001CEA135594EA0C0F95EA0C0F00F0A7F864
:102C4000A4EB050481EA030E52EA03354FEA013191
:102C500000F088804FEA03334FF0805545EA1313A4
:102C600043EA12634FEA022245EA111545EA10656C
:102C70004FEA00260EF000419D4208BF964244F103
:102C8000FD0404F5407402D25B084FEA3202B61A22
:102C900065EB03055B084FEA32024FF480104FF4F6
:102CA000002CB6EB020E75EB030E22BFB61A75466A
:102CB00040EA0C005B084FEA3202B6EB020E75EBFD
:102CC000030E22BFB61A754640EA5C005B084FEA65
:102CD0003202B6EB020E75EB030E22BFB61A754632
:102CE00040EA9C005B084FEA3202B6EB020E75EB3D
:102CF000030E22BFB61A754640EADC0055EA060EFE
:102D000018D04FEA051545EA16754FEA06164FEA40
:102D1000C30343EA52734FEAC2025FEA1C1CC0D1EC
:102D200011F4801F0BD141EA00014FF000004FF079
:102D3000004CB6E711F4801F04BF01430020B4F13A
:102D4000FD0C88BFBCF5E06F3FF6AFAEB5EB030CF2
:102D500004BFB6EB020C5FEA500C50F1000041EBEF
:102D6000045170BD0EF0004E4EEA113114EB5C04BC
:102D7000C2BFD4EB0C0541EA045170BD41F480118F
:102D80004FF0000E013C90E645EA060E8DE60CEA97
:102D9000135594EA0C0F08BF95EA0C0F3FF43BAFB4
:102DA00094EA0C0F0AD150EA01347FF434AF95EA6B
:102DB0000C0F7FF425AF104619462CE795EA0C0F4F
:102DC00006D152EA03353FF4FDAE1046194622E71C
:102DD00050EA410618BF52EA43067FF4C5AE50EAF6
:102DE00041047FF40DAF52EA43057FF4EBAE12E7E6
:102DF0004FEA4102B2F1E04324BFB3F5001CDCF11D
:102E0000FE5C0DD901F0004C4FEAC0024CEA507054
:102E1000B2F1004F40EB830008BF20F00100704783
:102E200011F0804F21D113F13872BCBF01F0004086
:102E3000704741F480114FEA5252C2F11802C2F1B8
:102E4000200C10FA0CF320FA02F018BF40F0010039
:102E50004FEAC1234FEAD32303FA0CFC40EA0C00EB
:102E600023FA02F34FEA4303CCE77FEA625307D128
:102E700050EA01331EBF4FF0FE4040F4400070475F
:102E800001F0004040F0FE4040F40000704700BFF9
:102E900080F0004002E000BF81F0004142001FBF0F
:102EA0005FEA410392EA030F7FEA226C7FEA236C18
:102EB0006AD04FEA1262D2EB1363C1BFD21841400D
:102EC00048404140B8BF5B42192B88BF704710F0A3
:102ED000004F40F4000020F07F4018BF404211F046
:102EE000004F41F4000121F07F4118BF494292EAAE
:102EF000030F3FD0A2F1010241FA03FC10EB0C00DA
:102F0000C3F1200301FA03F100F0004302D5494266
:102F100060EB4000B0F5000F13D3B0F1807F06D313
:102F200040084FEA310102F10102FE2A51D2B1F10B
:102F3000004F40EBC25008BF20F0010040EA030000
:102F40007047490040EB0000013A28BFB0F5000F80
:102F5000EDD2B0FA80FCACF1080CB2EB0C0200FA36
:102F60000CF0AABF00EBC25052421843BCBFD04085
:102F70001843704792F0000F81F4000106BF80F4FF
:102F800000000132013BB5E74FEA41037FEA226CC2
:102F900018BF7FEA236C21D092EA030F04D092F08D
:102FA000000F08BF0846704790EA010F1CBF0020C1
:102FB000704712F07F4F04D1400028BF40F000401E
:102FC000704712F100723CBF00F50000704700F03E
:102FD000004343F0FE4040F4000070477FEA226265
:102FE00016BF08467FEA23630146420206BF5FEA36
:102FF000412390EA010F40F4800070474FF0000336
:1030000004E000BF10F0004348BF40425FEA000CFC
:1030100008BF704743F0964301464FF000001CE0A4
:1030200050EA010208BF70474FF000030AE000BFFA
:1030300050EA010208BF704711F0004302D5404238
:1030400061EB41015FEA010C02BF844601460020AA
:1030500043F0B64308BFA3F18053A3F50003BCFAC5
:103060008CF2083AA3EBC25310DB01FA02FC634472
:1030700000FA02FCC2F12002BCF1004F20FA02F279
:1030800043EB020008BF20F00100704702F120026C
:1030900001FA02FCC2F1200250EA4C0021FA02F2CD
:1030A00043EB020008BF20EADC70704742000ED2FA
:1030B000B2F1FE4F0BD34FF09E03B3EB126209D473
:1030C0004FEA002343F0004323FA02F070474FF029
:1030D0000000704712F1610F01D1420202D14FF09E
:1030E000FF3070474FF00000704700BF0A480B499F
:1030F0000B4A002302E0D458C4500433C4188C4255
:10310000F9D3084A084C002301E013600432A242BC
:10311000FBD3FEF7BDFF7047000000200400002035
:1031200030310008040000205C020020FEE70000AF
:043130000101000099
:04000005080030EDD2
:00000001FF
