:020000040800F2
:1000000000500020A94C0008E94C0008E94C000809
:10001000E94C0008E94C0008E94C00080000000029
:10002000000000000000000000000000E94C000893
:10003000E94C000800000000E94C0008E94C000809
:10004000E94C0008E94C0008E94C0008E94C0008BC
:10005000E94C0008E94C0008E94C0008E94C0008AC
:10006000E94C0008E94C0008E94C0008510C000874
:10007000D10C0008510D0008D10D0008510E0008E8
:10008000D10E0008450F0008E94C0008E94C0008B3
:10009000E94C0008E94C0008E94C0008E94C00086C
:1000A000E94C000809070008E94C0008E94C000881
:1000B000013900084B05000829060008E94C000832
:1000C000E94C0008E94C0008E94C000851210008FF
:1000D000AD210008E113000831140008E94C0008C4
:1000E000E94C0008E94C0008E94C00080000000059
:1000F0000000000000000000000000000000000000
:0C01000000000000000000005FF808F1A3
:1001100080B483B000AF0346FB7197F90730002B22
:100120000BDBFB7903F01F02064997F907305B09E7
:10013000012000FA02F241F8232000BF0C37BD462F
:1001400080BC704700E100E080B483B000AF03469C
:10015000FB7197F90730002B12DBFB7903F01F02CC
:100160000A4997F907305B09012000FA02F22033AF
:1001700041F82320BFF34F8F00BFBFF36F8F00BF45
:1001800000BF0C37BD4680BC704700BF00E100E0F7
:1001900080B483B000AF03463960FB7197F9073034
:1001A000002B0ADB3B68DAB20C4997F907301201E1
:1001B000D2B20B4483F800230AE03B68DAB2084964
:1001C000FB7903F00F03043B1201D2B20B441A7601
:1001D00000BF0C37BD4680BC704700BF00E100E0A7
:1001E00000ED00E080B483B000AF03460A46FB8018
:1001F00013467B71124B9B69114A43F010039361C4
:100200007B790F2B10D00F2B13DC0D2B02D00E2B74
:1002100005D00EE0FB880B4A1B0553600AE0FB8803
:10022000094A1B06536005E0FB88074A1B07536019
:1002300000E000BF00BF0C37BD4680BC704700BF68
:100240000010024000100140000C014080B483B057
:1002500000AF03460A46FB8013467B713D4B9B690A
:100260003C4A43F0080393617B790F2B6BD801A2C2
:1002700052F823F0B5020008BD0200084703000849
:10028000C7020008D1020008DB020008E5020008EE
:10029000EF020008F9020008010300080B03000840
:1002A000150300081F030008290300083303000892
:1002B0003D030008284AFB88136045E0FB88264A76
:1002C0001B01136040E0FB88234A1B0313603BE0E3
:1002D000FB88214A1B04136036E0FB881E4A1B057D
:1002E000136031E0FB881C4A1B0613602CE0FB887E
:1002F000194A1B07136027E0174AFB88536023E065
:10030000FB88154A1B0153601EE0FB88124A1B0242
:10031000536019E0FB88104A1B03536014E0FB880C
:100320000D4A1B0453600FE0FB880B4A1B0553600A
:100330000AE0FB88084A1B06536005E0FB88064A72
:100340001B07536000E000BF00BF0C37BD4680BCF8
:10035000704700BF00100240000C014080B483B021
:1003600000AF03460A46FB8013467B713A4B9B69FC
:10037000394A43F0040393617B790F2B66D801A2BD
:1003800052F823F0C5030008CD030008D703000886
:10039000E1030008EB030008F5030008FF03000871
:1003A00009040008130400081B04000825040008C1
:1003B0002F040008390400084D0400084D0400080B
:1003C00043040008254AFB88136040E0FB88234A69
:1003D0001B0113603BE0FB88204A1B02136036E0E0
:1003E000FB881E4A1B03136031E0FB881B4A1B0479
:1003F00013602CE0FB88194A1B05136027E0FB887B
:10040000164A1B06136022E0FB88144A1B07136080
:100410001DE0124AFB88536019E0FB880F4A1B015C
:10042000536014E0FB880D4A1B0253600FE0FB8809
:100430000A4A1B0353600AE0FB88084A1B04536006
:1004400005E0FB88054A1B07536000E000BF00BFC2
:100450000C37BD4680BC70470010024000080140C8
:1004600080B582B000AF78600B46FB701346BB705E
:100470007B68012B06D1FB789BB2BA7811461846EF
:10048000FFF76CFF7B68022B06D1FB789BB2BA7832
:1004900011461846FFF7DAFE7B68032B06D1FB787E
:1004A0009BB2BA7811461846FFF79CFE00BF08378A
:1004B000BD4680BD80B582B000AF78607B6898474C
:1004C00000BF0837BD4680BD80B582B000AF786000
:1004D00039603B687868984700BF0837BD4680BDE3
:1004E00080B584B000AFF860B9607A607B68B968A5
:1004F000F868984700BF1037BD4680BD80B582B010
:1005000000AF78607B689847034618460837BD46B9
:1005100080BD80B582B000AF786039603B68786894
:100520009847034618460837BD4680BD80B584B05D
:1005300000AFF860B9607A607B68B968F86898477E
:10054000034618461037BD4680BD80B400AF0B4B44
:100550001B6903F00103002B0CD0084B1B69074AF1
:1005600023F001031361064B1B889BB201339AB23F
:10057000034B1A8000BFBD4680BC7047000400409A
:100580000A00002080B500AF1A4BDB69194A43F01E
:100590000203D361184B1B68174A23F00103136051
:1005A000154B13229A62144B40F2E732DA62124B77
:1005B00000225A62104B4122DA600F4B80221A60EF
:1005C0000D4B1B680C4B00221A600B4B5B690A4AEF
:1005D00043F00103536102211D20FFF7D9FD1D20C7
:1005E000FFF796FD044B1B68034A43F001031360B9
:1005F00000BF80BD001002400004004080B483B002
:1006000000AF0346FB8000BF064B1B889BB2FA88F5
:100610009A42F9D1034B00221A8000BF0C37BD4625
:1006200080BC70470A00002080B400AF0B4B1B69F0
:1006300003F00103002B0CD0084B1B69074A23F081
:1006400001031361064B1B889BB201339AB2044B22
:100650001A8000BFBD4680BC704700BF0008004044
:100660000800002080B500AF1A4BDB69194A43F03F
:100670000403D361184B1B68174A23F0010313606E
:10068000154B13229A62144B40F2E732DA62124B96
:1006900000225A62104B0122DA600F4B80221A604E
:1006A0000D4B1B680C4B00221A600B4B5B690A4A0E
:1006B00043F00103536102211E20FFF769FD1E2054
:1006C000FFF726FD044B1B68034A43F00103136048
:1006D00000BF80BD001002400008004080B483B01D
:1006E00000AF0346FB8000BF064B1B889BB2FA8815
:1006F0009A42F9D8034B00221A8000BF0C37BD463E
:1007000080BC70470800002080B400AF0B4B1B6911
:1007100003F00103002B0CD0084B1B69074A23F0A0
:1007200001031361064B1B889BB201339AB2044B41
:100730001A8000BFBD4680BC704700BF002C01403E
:100740000C00002080B400AF0B4B1B6903F00103C9
:10075000002B0CD0084B1B69074A23F001031361DF
:10076000064B1B889BB201339AB2044B1A8000BF20
:10077000BD4680BC704700BF002C01400E00002029
:1007800080B500AF1B4B9B691A4A43F40063936129
:10079000194B00221A80194B1B68184A23F00103D9
:1007A0001360164B13229A62144B40F2E732DA625E
:1007B000124B00225A62114B00221A630F4B412246
:1007C000DA600E4B80221A600C4B1B680B4A23F038
:1007D0001E03136002211920FFF7DAFC1920FFF72E
:1007E00097FC064B1B68054A43F00103136000BFEA
:1007F00080BD00BF001002400C000020002C014012
:1008000080B483B000AF0346FB8000BF064B1B885B
:100810009BB2FA889A42F9D1034B00221A8000BF9A
:100820000C37BD4680BC70470C00002080B500AF7F
:10083000244B9B69234A43F400639361224B0022BB
:100840001A80224B1B68214A23F0010313601F4BBF
:1008500013229A621D4B40F2E732DA621B4B0022F0
:100860005A621A4B00221A63184B4122DA60174B66
:1008700084221A60154B1B68144A43F0600313600E
:10088000124B1B68114A23F01A0313600F4B9B692C
:100890000E4A23F44073936102211920FFF778FC7C
:1008A00002211B20FFF774FC1920FFF731FC1B20ED
:1008B000FFF72EFC054B1B68044A43F0010313604D
:1008C00000BF80BD001002400C000020002C014041
:1008D00080B483B000AF0346FB8000BF064B1B888B
:1008E0009BB2FA889A42F9D1034B00221A8000BFCA
:1008F0000C37BD4680BC70470C00002080B400AFB0
:10090000344B1B68334A43F48033136000BF314BD0
:100910001B6803F40033002BF9D02F4B1B682E4AC1
:1009200043F0100313602C4B1B682B4A23F0070382
:100930001360294B1B68284A43F002031360254BC0
:100940005B68244A23F47F5323F030035360214B28
:100950005B68204A43F4806353601E4B5B681D4A0A
:1009600043F4005353601B4B5B681A4A23F474131F
:100970005360184B5B68174A43F480335360154B40
:100980005B68144A43F440235360124B1B68114ABE
:1009900043F08073136000BF0E4B1B6803F00073BD
:1009A000002BF9D00B4B5B680A4A23F0030353601A
:1009B000084B5B68074A43F00203536000BF054BD6
:1009C0005B6803F00C03082BF9D100BF00BFBD46E4
:1009D00080BC7047001002400020024080B400AF8D
:1009E0002C4B1B682B4A43F48033136000BF294B08
:1009F0001B6803F40033002BF9D0274B1B68264AF1
:100A000043F010031360244B1B68234A03F00703D1
:100A10001360214B1B68204A43F0040313601D4BF5
:100A20001C4A5B6853601B4B5B681A4A43F4803373
:100A30005360184B00225A60164B164A5B6853608D
:100A4000144B144A5B685360124B1B68114A43F005
:100A50008073136000BF0F4B1B6803F00073002B03
:100A6000F9D00C4B5B680B4A23F003035360094B2E
:100A70005B68084A43F00203536000BF054B5B68A4
:100A800003F00C03082BF9D100BF00BFBD4680BCAA
:100A9000704700BF001002400020024080B400AF49
:100AA0001C4B4FF480321A6000BF1A4B1B6803F4D2
:100AB0000033B3F5003FF8D1164B4FF400225A62D1
:100AC00003E0144B4FF400029A60124B9B6803F44E
:100AD0000003B3F5000FF4D00E4B0E4A5B68536071
:100AE0000C4B0C4A5B6853600A4B0A4A5B685360C4
:100AF000084B5B68074A43F00103536000BF054B96
:100B00005B6803F00403042BF9D100BF00BFBD46AE
:100B100080BC70470010024080B483B000AF7860A2
:100B200002E07B68013B7B607B68002BF9D100BF52
:100B300000BF0C37BD4680BC704780B400AF284B67
:100B40001B68274A43F48033136000BF244B1B68A3
:100B500003F40033002BF9D0224B1B68214A43F0E9
:100B6000100313601F4B1B681E4A03F0070313603A
:100B70001C4B1B681B4A43F004031360184B5B6853
:100B8000174A23F44E335360154B5B68144A43F401
:100B900080635360124B1B68114A43F080731360EB
:100BA00000BF0F4B1B6803F00073002BF9D00C4BF8
:100BB0005B680B4A23F003035360094B5B68084AE8
:100BC00043F00203536000BF054B5B6803F00C0366
:100BD000082BF9D100BF00BFBD4680BC704700BFE5
:100BE000001002400020024080B400AF084B0022F9
:100BF0001A60074B41F61F425A60054B00229A606B
:100C0000034B05221A6000BFBD4680BC704700BF81
:100C100010E000E080B485B000AF78600023FB6096
:100C200009E000BF094B1B6803F48033002BF9D1A6
:100C3000FB680133FB60FA687B689A42F1D300BF1E
:100C400000BF1437BD4680BC704700BF10E000E015
:100C500080B400AF1B4B1B6803F00403002B05D0CE
:100C6000184B5B68174A43F004035360154B1B682D
:100C700003F00203002B0ED0124B5B68114A43F0C5
:100C800002035360104B01221A70104B1B680F4A6D
:100C900023F0010313600B4B1B6803F00803002BC8
:100CA0000BD0084B5B68074A43F008035360074BBF
:100CB0001B68064A23F00103136000BFBD4680BCD9
:100CC000704700BF000002401000002008000240F2
:100CD00080B400AF1B4B1B6803F04003002B05D012
:100CE000184B5B68174A43F040035360154B1B6871
:100CF00003F02003002B0ED0124B5B68114A43F027
:100D000020035360104B01221A70104B1B680F4ACE
:100D100023F0010313600B4B1B6803F08003002BCF
:100D20000BD0084B5B68074A43F080035360074BC6
:100D30001B68064A23F00103136000BFBD4680BC58
:100D4000704700BF00000240110000201C0002405C
:100D500080B400AF1B4B1B6803F48063002B05D0ED
:100D6000184B5B68174A43F480635360154B1B684C
:100D700003F40073002B0ED0124B5B68114A43F44E
:100D800000735360104B01221A70104B1B680F4AFE
:100D900023F0010313600B4B1B6803F40063002B6B
:100DA0000BD0084B5B68074A43F400635360074B62
:100DB0001B68064A23F00103136000BFBD4680BCD8
:100DC000704700BF000002401200002030000240C7
:100DD00080B400AF1B4B1B6803F48043002B05D08D
:100DE000184B5B68174A43F480435360154B1B68EC
:100DF00003F40053002B0ED0124B5B68114A43F4EE
:100E000000535360104B01221A70104B1B680F4A9D
:100E100023F0010313600B4B1B6803F40043002B0A
:100E20000BD0084B5B68074A43F400435360074B01
:100E30001B68064A23F00103136000BFBD4680BC57
:100E4000704700BF00000240130000204400024031
:100E500080B400AF1B4B1B6803F48023002B05D02C
:100E6000184B5B68174A43F480235360154B1B688B
:100E700003F40033002B0ED0124B5B68114A43F48D
:100E800000335360104B01221A70104B1B680F4A3D
:100E900023F0010313600B4B1B6803F40023002BAA
:100EA0000BD0084B5B68074A43F400235360074BA1
:100EB0001B68064A23F00103136000BFBD4680BCD7
:100EC000704700BF0000024014000020580002409C
:100ED00080B400AF184B1B6803F48003002B05D0CF
:100EE000154B5B68144A43F480035360124B1B6834
:100EF00003F40013002B08D00F4B5B680E4A43F439
:100F0000001353600D4B01221A700B4B1B6803F446
:100F10000003002B0BD0084B5B68074A43F4000327
:100F20005360074B1B68064A23F00103136000BFA0
:100F3000BD4680BC704700BF000002401500002085
:100F40006C00024080B400AF184B1B6803F0806354
:100F5000002B05D0154B5B68144A43F08063536047
:100F6000124B1B6803F00073002B08D00F4B5B681B
:100F70000E4A43F0007353600D4B01221A700B4B65
:100F80001B6803F00063002B0BD0084B5B68074A1B
:100F900043F000635360074B1B68064A23F00103CC
:100FA000136000BFBD4680BC704700BF0000024018
:100FB000160000208000024080B485B000AFF860C9
:100FC000B9601346FB80284B5B69274A43F0010355
:100FD0005361264B1B68254A23F001031360234A03
:100FE000FB689360214ABB68D360204AFB8853604A
:100FF0001E4B1B681D4A43F4805313601B4B1B6838
:101000001A4A43F010031360184B1B68174A43F445
:1010100080631360154B1B68144A43F4807313609C
:10102000124B1B68114A43F0800313600F4B1B687F
:101030000E4A23F0400313600C4B1B680B4A23F04D
:1010400020031360094B1B68084A43F00E0313602A
:10105000064B1B68054A43F00103136000BF1437B9
:10106000BD4680BC704700BF00100240080002402F
:1010700080B400AF23E0174B1B6803F40023002B60
:1010800005D0144B5B68134A23F400235360114BC3
:101090001B6803F48023002B05D00E4B5B680D4AC0
:1010A00023F4802353600B4B1B6803F40033002BA5
:1010B00005D0084B5B68074A23F400335360054BA7
:1010C0001B6803F48033002BD5D100BF00BFBD46A1
:1010D00080BC70470000024080B400AF0F4B9B699A
:1010E00003F01003002B05D10C4B9B690B4A43F016
:1010F000100393610A4B5B6803F40013002B03D1C8
:10110000074B4FF400125A60054BDB68044A83F426
:101110000053D36000BFBD4680BC70470010024042
:101120000010014090B587B000AF7860786803F098
:10113000B1F94FF00002444B03F026FA02460B4689
:101140003FA1D1E9000103F049FB02460B461046DE
:10115000194603F02BFC03467B617B681B013B4A6D
:10116000B2FBF3F3184603F027FD03463B613969F0
:10117000786903F06FFC03464FF08341184602F094
:1011800093FF0346FB60386903F06EFD0346BB60C6
:101190007B68B3F5E13F44D07B68B3F5E13F4AD8C3
:1011A0007B68B3F5614F32D07B68B3F5614F42D8AD
:1011B0007B68B3F5164F20D07B68B3F5164F3AD84D
:1011C0007B68B3F5165F04D07B68B3F5964F0AD001
:1011D00031E0BB681C01F86803F046FD03461C4A79
:1011E0002344936028E0BB681C01F86803F03CFDD1
:1011F0000346174A234493601EE0BB681C01F8684D
:1012000003F032FD0346124A2344936014E0BB68A6
:101210001C01F86803F028FD03460D4A234493603F
:101220000AE0BB681C01F86803F01EFD0346084A8B
:101230002344936000E000BF00BF1C37BD4690BD53
:1012400000000000D012734100003040002D310139
:101250000038014080B400AF104B9B690F4A43F443
:10126000804343F0050393610D4B4FF080625A6059
:101270000B4B5B680A4A23F004035360094B5B681D
:10128000084A43F090035360064B5B68054A43F4F9
:101290008063536000BFBD4680BC704700100240B1
:1012A000000001400008014080B400AF104B9B6972
:1012B0000F4A43F4804343F0090393610D4B4FF011
:1012C00080625A600B4B5B680A4A43F00403536028
:1012D000094B1B68084A43F020631360064B1B68E8
:1012E000054A43F08043136000BFBD4680BC704791
:1012F0000010024000000140000C014080B400AF2B
:10130000184B9B69174A43F005039361154BDB6942
:10131000144A43F40033D361134B4FF080625A6098
:10132000114B5B68104A23F0080353600F4B1B6896
:101330000E4A43F4306313600C4B1B680B4A43F0B6
:1013400030031360094B1B68084A43F48043136061
:10135000064B1B68054A43F00403136000BFBD46FB
:1013600080BC7047001002400000014000080140AE
:1013700080B400AF174B9B69164A43F00903936191
:10138000144BDB69134A43F48023D361124B4FF0B3
:1013900080625A60104B5B680F4A23F00803536069
:1013A0000E4B4FF430625A600C4B5B680B4A43F0B3
:1013B00040735360094B5B68084A43F480435360B1
:1013C000064B5B68054A43F48003536000BFBD468B
:1013D00080BC70470010024000000140000C01403A
:1013E00080B400AF0F4B1B6803F04003002B05D007
:1013F0000C4B1B680B4A23F040031360094B1B681E
:1014000003F02003002B09D0064B1B68DAB2064B11
:101410001A70044B5B68DAB2044B1A7000BFBD4609
:1014200080BC7047003801401700002018000020E1
:1014300080B400AF0D4B1B6803F04003002B05D0B8
:101440000A4B1B68094A23F040031360074B1B68D3
:1014500003F02003002B05D0044B1B68034A23F044
:101460002003136000BFBD4680BC704700440040AD
:1014700080B582B000AF7860FFF7ECFE184B002219
:10148000DA607868FFF74EFE154B4FF440521A6150
:10149000134BDB68124A23F48053D360104B402275
:1014A000DA600F4BDB680E4A43F00C03D3600C4B41
:1014B000DB680B4A43F00803D360094BDB68084A3A
:1014C00043F4005343F00403D36002212520FEF7C8
:1014D0005FFE2520FEF71CFE00BF0837BD4680BD1D
:1014E0000038014080B483B000AF0346FB710E4A60
:1014F000FB79536000BF0C4B1B6803F08003002B8B
:10150000F9D0094B1B68DAB2084B1A70064B5B68BE
:10151000DAB2074B1A70044B5B68DBB218460C3723
:10152000BD4680BC704700BF003801401700002056
:101530001800002080B483B000AF78600B4A7B684D
:10154000536000BF094B1B6803F08003002BF9D0E8
:10155000064B1B68DAB2064B1A70044B5B68DBB2B1
:1015600018460C37BD4680BC704700BF00380140AC
:101570001700002090B589B000AF786007F108032C
:101580007968184602F008FC0023FB770AE0FB7F2D
:1015900020333B4413F8183C1846FFF7A3FFFB7FAA
:1015A0000133FB77FC7F786802F058FB0346013378
:1015B0009C42ECD300BF00BF2437BD4690BD80B431
:1015C00000AF104B5B68DAB20F4B1A7000BF0D4BC7
:1015D0001B6803F00203002BF9D100BF094B1B6805
:1015E00003F00403002BF9D100BF064B1B6803F086
:1015F0002003002BF9D0044B1B78DBB21846BD4604
:1016000080BC7047003801401800002080B400AF53
:10161000104B5B68DAB2104B1A7000BF0D4B1B68A1
:1016200003F00203002BF9D100BF0A4B1B6803F043
:101630000403002BF9D100BF064B1B6803F0200305
:10164000002BF9D0044B1B78DBB21846BD4680BC9A
:10165000704700BF003801401800002080B582B0FC
:1016600000AF7860FFF720FE0E4B0022DA6078684A
:10167000FFF758FD0B4B4FF440521A61094B6022A3
:10168000DA60084BDB68074A43F00C03D360054B74
:10169000DB68044A43F40053D36000BF0837BD46FB
:1016A00080BD00BF0038014080B582B000AF034666
:1016B000FB71FB791846FFF715FF034618460837FC
:1016C000BD4680BD80B582B000AF78607868FFF716
:1016D00051FF00BF0837BD4680BD80B500AFFFF7A2
:1016E0006EFF00BF80BD90B587B000AF78607868AE
:1016F00002F0D0FE4FF00002454B02F045FF0246DB
:101700000B4641A1D1E9000103F068F802460B46FF
:101710001046194603F04AF903467B617B681B01BA
:101720003C4AB2FBF3F3184603F046FA03463B612A
:101730003969786903F08EF903464FF08341184602
:1017400002F0B2FC0346FB60386903F08DFA0346F1
:10175000BB607B68B3F5E13F44D07B68B3F5E13F04
:101760004AD87B68B3F5614F32D07B68B3F5614FDF
:1017700042D87B68B3F5164F20D07B68B3F5164F7F
:101780003AD87B68B3F5165F04D07B68B3F5964F03
:101790000AD031E0BB681C01F86803F065FA034623
:1017A0001D4A2344936028E0BB681C01F86803F0DD
:1017B0005BFA0346184A234493601EE0BB681C0191
:1017C000F86803F051FA0346134A2344936014E087
:1017D000BB681C01F86803F047FA03460E4A23442D
:1017E00093600AE0BB681C01F86803F03DFA034609
:1017F000094A2344936000E000BF00BF1C37BD4688
:1018000090BD00BFAFF3008000000000D012734114
:1018100000003040002D31010044004080B582B00E
:1018200000AF7860FFF76AFD7868FFF75CFF134B45
:101830004FF440521A61114B0022DA600F4B5B6982
:101840000E4A23F4E06353610C4BDB680B4A43F010
:101850004003D360094B4FF4E0625A61074BDB68E9
:10186000064A43F00C03D360044BDB68034A43F49D
:101870000053D36000BF0837BD4680BD0044004020
:1018800080B483B000AF0346FB710B4AFB79536011
:1018900000BF094B1B6803F08003002BF9D0064BF7
:1018A0001B68DAB2054B1A70034B5B68DBB2184653
:1018B0000C37BD4680BC7047004400401700002034
:1018C00080B400AF00BF124B1B6803F02003002B55
:1018D000F9D00F4B5B68DAB20E4B1A7000BF0C4B9D
:1018E0001B6803F00203002BF9D100BF084B1B68F3
:1018F00003F00403002BF9D1054B1B68DAB2064B49
:101900001A70044B1B78DBB21846BD4680BC70478A
:1019100000440040180000201700002090B589B056
:1019200000AF786007F108037968184602F034FACE
:101930002020FFF7A5FF0023FB770AE0FB7F203381
:101940003B4413F8183C1846FFF79AFFFB7F01331E
:10195000FB77FC7F786802F081F9034601339C42F3
:10196000ECD300BF00BF2437BD4690BD80B582B028
:1019700000AF0346FB71184B1B6803F40073002B88
:1019800006D0154B1B6803F40073002B11D100E047
:1019900000BF124BDB68114A23F00203D360FFF74C
:1019A0008FFF03461846FFF76BFF0C4B0222DA60ED
:1019B00000E000BF094B0222DA60FB791846FFF70E
:1019C0005FFF064BDB68054A23F00203D36000BFCC
:1019D0000837BD4680BD00BF0044004000080140FC
:1019E00090B587B000AF7860786802F053FD4FF093
:1019F0000002454B02F0C8FD02460B4640A1D1E96A
:101A0000000102F0EBFE02460B461046194602F0BA
:101A1000CDFF03467B617B681B013C4AB2FBF3F3BD
:101A2000184603F0C9F803463B613969786903F049
:101A300011F803464FF08341184602F035FB034688
:101A4000FB60386903F010F90346BB607B68B3F5AF
:101A5000E13F44D07B68B3F5E13F4AD87B68B3F5FA
:101A6000614F32D07B68B3F5614F42D87B68B3F5E4
:101A7000164F20D07B68B3F5164F3AD87B68B3F584
:101A8000165F04D07B68B3F5964F0AD031E0BB688F
:101A90001C01F86803F0E8F803461D4A23449360EC
:101AA00028E0BB681C01F86803F0DEF80346184A1A
:101AB000234493601EE0BB681C01F86803F0D4F86F
:101AC0000346134A2344936014E0BB681C01F86882
:101AD00003F0CAF803460E4A234493600AE0BB6849
:101AE0001C01F86803F0C0F80346094A23449360D8
:101AF00000E000BF00BF1C37BD4690BDAFF30080C3
:101B000000000000D012734100003040002D310170
:101B10000048004080B582B000AF7860FFF728FC35
:101B20007868FFF75DFF164B4FF440521A61144B73
:101B3000DB68134A23F4435323F02C03D360104B88
:101B40005B690F4A23F4E06353610D4BDB680C4A79
:101B500043F0E003D3600A4B4FF4E0625A61084B54
:101B6000DB68074A43F00C03D360054BDB68044A8B
:101B700043F40053D36000BF0837BD4680BD00BFAB
:101B80000048004080B483B000AF0346FB710B4AAD
:101B9000FB79536000BF094B1B6803F08003002BE7
:101BA000F9D0064B1B68DAB2054B1A70034B5B6821
:101BB000DBB218460C37BD4680BC70470048004079
:101BC0001700002080B400AF00BF124B1B6803F069
:101BD0002003002BF9D00F4B5B68DAB20E4B1A7062
:101BE00000BF0C4B1B6803F00203002BF9D100BFB0
:101BF000084B1B6803F00403002BF9D1054B1B684D
:101C0000DAB2064B1A70044B1B78DBB21846BD469D
:101C100080BC7047004800401800002017000020DA
:101C200090B589B000AF786007F10803796818466D
:101C300002F0B2F82020FFF7A5FF0023FB770AE0AF
:101C4000FB7F20333B4413F8183C1846FFF79AFFFC
:101C5000FB7F0133FB77FC7F786801F0FFFF0346D1
:101C600001339C42ECD300BF00BF2437BD4690BD7A
:101C700080B582B000AF0346FB7100BF0B4B1B6801
:101C800003F40073002BF9D0094B0222DA60FB79D0
:101C90001846FFF777FF064BDB68054A23F002037F
:101CA000D36000BF0837BD4680BD00BF004800407C
:101CB0000008014080B500AF00BF0B4B1B6803F468
:101CC0000073002BF9D0094BDB68084A23F00203AC
:101CD000D360FFF777FF03461846FFF753FF034B28
:101CE0000222DA6000BF80BD0048004000080140C9
:101CF00080B582B000AF0346FB71184B1B6803F43C
:101D00000073002B06D0154B1B6803F40073002BE7
:101D100011D100E000BF124BDB68114A23F002032F
:101D2000D360FFF74FFF03461846FFF72BFF0C4B1E
:101D30000222DA6000E000BF094B0222DA60FB7980
:101D40001846FFF71FFF064BDB68054A23F0020326
:101D5000D36000BF0837BD4680BD00BF00480040CB
:101D60000008014080B400AF064B0022DA60064B49
:101D70009B69054A23F48043936100BFBD4680BC44
:101D8000704700BF003801400010024080B582B0AB
:101D900000AF7860274B5B69264A43F0010353612B
:101DA000FFF758FA7868FFF7BDF9234BDB68224A42
:101DB00043F4005343F00803D3601F4B5B691E4A92
:101DC00043F0800353611D4B1B681C4A23F480437E
:101DD00013601A4B1B68194A43F020031360174B1A
:101DE0001B68164A43F080031360144B1B68134AA8
:101DF00023F040031360114B1B68104A43F010039B
:101E000013600E4B1B680D4A23F4706313600B4B79
:101E10001B680A4A43F480531360084B1B68074A47
:101E200043F00E031360064B00221A7000BF083700
:101E3000BD4680BD00100240003801404400024011
:101E40001300002080B582B000AF78600B467B8025
:101E5000114B124A9A60104A7B68D3600E4A7B8805
:101E6000536002210E20FEF793F90E20FEF750F981
:101E7000094B1B68084A43F00103136000BF084B7D
:101E80001B78DBB2002BFAD0054B00221A7000BF82
:101E90000837BD4680BD00BF440002400438014001
:101EA0001300002080B584B000AFF860B9607A609C
:101EB000314B5B69304A43F001035361FFF7CAF9C4
:101EC000F868FFF72FF92D4BDB682C4A43F40053D9
:101ED00043F00C03D360294B40225A61284B294A16
:101EE0009A60274ABB68D360254A7B685360244BBD
:101EF0001B68234A23F480431360214B1B68204A4C
:101F000043F0200313601E4B1B681D4A43F08003FF
:101F100013601B4B1B681A4A23F040031360184BD5
:101F20001B68174A23F010031360154B1B68144AF3
:101F300023F470631360124B1B68114A43F400537F
:101F40001360114B00221A700D4B1B680C4A43F0B2
:101F50000E0313600A4B1B68094A43F00103136028
:101F600002210F20FEF714F90F20FEF7D1F800BF71
:101F70001037BD4680BD00BF001002400038014050
:101F80005800024004380140140000202DE9F043BD
:101F900085B000AF78606B461E46786801F05EFE43
:101FA00001460B46013BFB600023884699464FF0F3
:101FB00000024FF000034FEAC90343EA58734FEAA7
:101FC000C80200230C461D464FF000024FF00003EC
:101FD000EB0043EA5473E200CB1DDB08DB00ADEB02
:101FE000030D6B46BB607968B86801F0D5FE04212B
:101FF0007868FFF727FFB54600BF1437BD46BDE838
:10200000F08380B584B000AFF860B9607A607B6817
:10201000B968F868984700BF1037BD4680BD80B5E5
:1020200082B000AF0F4B1B78DBB2002B15D00D4BED
:1020300000221A700C4B9A790B4B9A710023FB719A
:1020400008E0FB79084AD35C1846FFF74BFAFB79A6
:102050000133FB71FB79062BF3D900BF0837BD466E
:1020600080BD00BF140000201C00002080B500AF20
:10207000094BDB68084A23F40053D3600A20FEF7BB
:102080002DFB054BDB68044A43F40053D3600A2060
:10209000FEF724FB00BF80BD0010014080B400AFFC
:1020A0000B4B9B690A4A43F4805343F00503936149
:1020B000084B5B68074A43F000735360054B5B684D
:1020C000044A23F00103536000BFBD4680BC704743
:1020D000001002400000014080B400AF094B9B6932
:1020E000084A43F4805343F00D039361064B5B6849
:1020F000054A43F0007343F00103536000BFBD463F
:1021000080BC7047001002400000014080B400AF66
:102110000D4BDB690C4A43F48043D3610A4B9B6946
:10212000094A43F009039361084B5B68074A43F08F
:1021300000735360054B5B68044A23F0010353604E
:1021400000BFBD4680BC7047001002400000014047
:1021500080B400AF134B9B6803F00103002B04D045
:10216000104BDB68DAB2104B1A700E4B9B6803F011
:102170004003002B05D00B4B9B680A4A23F0400319
:102180009360084B9B6803F02003002B05D0054BA0
:102190009B68044A23F02003936000BFBD4680BCC7
:1021A000704700BF003001402600002080B400AF1F
:1021B000134B9B6803F00103002B04D0104BDB682A
:1021C000DAB2104B1A700E4B9B6803F04003002BE1
:1021D00005D00B4B9B680A4A23F040039360084BE1
:1021E0009B6803F02003002B05D0054B9B68044A35
:1021F00023F02003936000BFBD4680BC704700BF42
:10220000003800402600002080B582B000AF0346B1
:10221000FB71194B00221A60174B00225A60FFF71E
:102220003DFF164B1B68154A43F0384343F43B030C
:102230001360114AFB7913600F4B1B680E4A43F47D
:10224000417313600C4B1B680B4A23F0800313602F
:10225000094B64225A6002212320FDF799FF2320B5
:10226000FDF756FF044B1B68034A43F0400313601D
:1022700000BF0837BD4680BD003001400008014066
:1022800080B483B000AF0346FB710B4AFB79D36087
:1022900000BF094B9B6803F08003002BF9D1064B6C
:1022A000DB68DAB2054B1A70044B1B78DBB21846B8
:1022B0000C37BD4680BC704700300140260000202E
:1022C00080B584B000AF78600B467B800023FB7341
:1022D00009E0FB7B7A6813441B781846FFF7D0FFB0
:1022E000FB7B0133FB73FB7B9BB27A889A42F0D86D
:1022F00000BF00BF1037BD4680BD80B500AF2320B2
:10230000FDF722FF034B1B68024A23F040031360D2
:1023100000BF80BD0030014080B582B000AF0346F1
:10232000FB71214B00221A601F4B00225A601F4B89
:1023300000221A601E4B00225A60FFF7CDFE1B4B95
:102340001B681A4A43F4380343F430431360184BB4
:102350005B68174A43F030435360134B1A68FB79AC
:10236000114913430B60104B1B680F4A43F4417330
:1023700013600D4B1B680C4A23F0800313600A4B5B
:1023800064225A6002212320FDF702FF2320FDF77B
:10239000BFFE054B1B68044A43F04003136000BFB7
:1023A0000837BD4680BD00BF00300140000C014031
:1023B0000008014080B483B000AF0346FB7100BF4A
:1023C0000E4B9B6803F00203002BF9D00B4AFB79FC
:1023D000D36000BF094B9B6803F08003002BF9D149
:1023E000064BDB68DAB2064B1A70054B1B78DBB282
:1023F00018460C37BD4680BC704700BF0030014016
:102400002600002080B584B000AF78600B467B804A
:102410000023FB7309E0FB7B7A6813441B781846A2
:10242000FFF7C8FFFB7B0133FB73FB7B9BB27A8812
:102430009A42F0D800BF00BF1037BD4680BD80B5BE
:1024400000AFFFF75AFF00BF80BD80B582B000AF7C
:102450000346FB71FFF75AFE1C4B4FF030425A60A7
:102460001A4B5B68194A43F000635360174B5B6873
:10247000164A43F430035360144B5B68134A43F429
:1024800030235360124B00221A60114B00225A6015
:102490000F4AFB7913600E4B1B680D4A43F44173DE
:1024A00013600B4B64225A6002212420FDF770FE5A
:1024B0002420FDF72DFE064B1B68054A43F0400320
:1024C000136000BF0837BD4680BD00BF000C01404F
:1024D0000038004080B483B000AF0346FB7100BFFA
:1024E0000E4B9B6803F00203002BF9D00B4AFB79DB
:1024F000D36000BF094B9B6803F08003002BF9D128
:10250000064BDB68DAB2064B1A70054B1B78DBB260
:1025100018460C37BD4680BC704700BF00380040ED
:102520002600002080B584B000AF78600B467B8029
:102530000023FB7309E0FB7B7A6813441B78184681
:10254000FFF7C8FFFB7B0133FB73FB7B9BB27A88F1
:102550009A42F0D800BF00BF1037BD4680BD80B59D
:1025600000AF2420FDF7F0FD034B1B68024A23F067
:102570004003136000BF80BD0038004080B582B0CA
:1025800000AF78600B467B80294B5B68284A43F09C
:1025900002035360274B284A9A60264A7B68D3601F
:1025A000244A7B885360234B1B68224A23F48043D0
:1025B0001360204B1B681F4A43F0200313601D4B20
:1025C0001B681C4A43F0800313601A4B1B68194AAE
:1025D00023F040031360174B1B68164A43F01003A7
:1025E0001360144B1B68134A23F470631360114B80
:1025F0001B68104A43F480531360104B00221A707A
:102600000C4B1B680B4A43F00E03136002210F2092
:10261000FDF7BEFD0F20FDF77BFD064B1B68054A4D
:1026200043F00103136000BF0837BD4680BD00BF03
:1026300000380040580002400C38004014000020D0
:1026400080B584B000AFF860B9601346FB80254ABE
:10265000FB681360244B254A9A60234ABB68D36009
:10266000214AFB885360204B1B681F4A43F020031C
:1026700013601D4B1B681C4A43F0800313601A4B08
:102680001B68194A23F040031360174B1B68164A56
:1026900023F010031360144B1B68134A23F4A06348
:1026A0001360114B1B68104A43F4805313600D4BA9
:1026B0005B680C4A43F0010353600B4B1B680A4AEA
:1026C00043F00203136002210E20FDF761FD0E208E
:1026D000FDF71EFD064B01221A6000BF1037BD46F4
:1026E00080BD00BF00380040440002400C3800406C
:1026F0005800024080B582B000AF0346FB71FB7901
:10270000002B08D0012B0ED1094B02221A610220A6
:10271000FDF7E4FF08E0064B4FF400321A61022097
:10272000FDF7DCFF00E000BF00BF0837BD4680BDFD
:10273000000C014080B582B000AF3A601A460346F3
:10274000FB710B46BB7113467B71324B4FF48032E9
:102750001A61314B40F2FF621A80FB791846FFF78D
:10276000B9FE3B681B0EDBB21846FFF7B3FE3B68B1
:102770001B0CDBB21846FFF7ADFE3B681B0ADBB251
:102780001846FFF7A7FE3B68DBB21846FFF7A2FE2C
:102790007B791846FFF79EFEFF20FFF79BFEFF2088
:1027A000FFF798FE03461A461C4B1A701B4B1B780A
:1027B000BA799A4226D0184B1B88013B9AB2164B25
:1027C0001A800420FDF78AFF134B1B88002BC4D10D
:1027D000EE20FEF787FE114B1B781846FEF782FEAF
:1027E000FB791846FEF77EFE0D4B1B680C4A23F062
:1027F00040031360074B01221A610020FFF77AFFA4
:10280000002302E000BF054B1B7818460837BD4681
:1028100080BD00BF000C0140520400205004002085
:102820000038004080B582B000AF184B03221A6018
:10283000164B1B68154A43F0300313602820FFF73E
:1028400004FE1420FDF74AFF0120FFF753FF002389
:10285000FB7105E0FF20FFF73DFEFB790133FB71C3
:10286000FB79092BF6D99523002201214020FFF79F
:1028700061FFFF20FFF72EFEFF20FFF72BFE034B2B
:1028800001221A6100BF0837BD4680BD000C01401F
:1028900080B582B000AF87234FF4D5720121482064
:1028A000FFF748FF0023FB7109E0FF20FFF712FE4E
:1028B00003461A460A4B1A70FB790133FB71FB7908
:1028C000032BF2D9FF20FFF705FEFF20FFF702FEE2
:1028D000044B01221A6100BF0837BD4680BD00BF0E
:1028E00050040020000C014080B500AF9523002269
:1028F00005216720FFF71EFFFF20FFF7EBFDFF20FC
:10290000FFF7E8FD124B01221A6195234FF0804238
:1029100001216920FFF70EFFFF20FFF7DBFDFF20FD
:10292000FFF7D8FD0A4B01221A6195234FF0804230
:1029300000216920FFF7FEFEFF20FFF7CBFDFF20FF
:10294000FFF7C8FD024B01221A6100BF80BD00BF26
:10295000000C014080B582B000AF95230022042115
:102960007220FFF7E7FE0023FB710EE0FF20FFF768
:10297000B1FD03461A460D4B1A700C4B1B781846D6
:10298000FEF7B0FDFB790133FB71FB79032BEDD929
:10299000FF20FFF79FFDFF20FFF79CFD044B012266
:1029A0001A6100BF0837BD4680BD00BF500400203B
:1029B000000C014080B500AF114B00221A70952326
:1029C000002205216720FFF7B5FEFF20FFF782FDFB
:1029D000FF20FFF77FFD0B4B01221A619523002298
:1029E00001214D20FFF7A6FEFF20FFF773FDFF201A
:1029F000FFF770FD034B01221A6100BF80BD00BFCD
:102A000050040020000C014080B582B000AF952337
:102A1000002200214920FFF78DFE1023FB7113E0F7
:102A2000FF20FFF757FD03461A460F4B1A70FB793C
:102A30000D4A11780D4AD1540B4B1B781846FEF7FE
:102A400051FDFB79013BFB71FB79002BE8D1FF20A5
:102A5000FFF740FDFF20FFF73DFD054B01221A6106
:102A600000BF0837BD4680BD500400204000002054
:102A7000000C014080B582B000AF0346FB71FA79CB
:102A8000952300217320FFF755FEFF20FFF722FD5D
:102A9000FF20FFF71FFD034B01221A6100BF08371B
:102AA000BD4680BD000C014080B584B000AF7860A9
:102AB0009523002200216720FFF73CFEFF20FFF74F
:102AC00009FDFF20FFF706FD124B01221A617B680A
:102AD0005A02952300215720FFF72CFE0023FB818B
:102AE00005E00C4B01221A61FB890133FB81FB8954
:102AF0004FF6FD729342F4D9FF20FFF7EBFCFF2065
:102B0000FFF7E8FC034B01221A6100BF1037BD46F6
:102B100080BD00BF000C014080B500AF95230022AE
:102B200000214D20FFF706FEFF20FFF7D3FCFF201A
:102B3000FFF7D0FC044B01221A61C820FDF7CEFD3F
:102B4000024B1B78184680BD000C01405004002049
:102B500080B500AF9523002201214C20FFF7EAFD4C
:102B6000FF20FFF7B7FCFF20FFF7B4FC024B012268
:102B70001A6100BF80BD00BF000C014080B582B06B
:102B800000AF786039607B685A029523002160208D
:102B9000FFF7D0FDFF20FFF79DFCFF20FFF79AFC19
:102BA000124B01221A613B685A02952300216120D1
:102BB000FFF7C0FDFF20FFF78DFCFF20FFF78AFC29
:102BC0000A4B01221A619523002200216620FFF79B
:102BD000B1FDFF20FFF77EFCFF20FFF77BFC034BDE
:102BE00001221A6100BF0837BD4680BD000C0140BC
:102BF00080B500AF074B1B68064A23F04003136003
:102C0000054B4FF480321A610020FFF773FD00BFBF
:102C100080BD00BF00380040000C014080B584B08A
:102C200000AF786040F2FF43FB817B685A02952336
:102C300000215120FFF77EFD03461A462D4B1A70E6
:102C4000FF20FFF747FC03461A462A4B1A70294B10
:102C50001B78FE2B1BD0FB89013BFB81FB89002BE2
:102C6000EED1254B01221A61244B1B68234A23F025
:102C700040031360EE20FEF735FC1E4B1B78184610
:102C8000FEF730FC0020FFF735FD1D4B2DE000BFA7
:102C90000023BB8113E0FF20FFF71CFC03461A460C
:102CA000144B1A70134B1B781846FEF71BFCBB899C
:102CB000104A1178124AD154BB890133BB81BB89B8
:102CC000B3F5007FE7D3FF20FFF704FCFF20FFF7F9
:102CD00001FCFF20FFF7FEFBFF20FFF7FBFBFFF7E8
:102CE0001BFF054B01221A61054B18461037BD46E4
:102CF00080BD00BF50040020000C0140003800409F
:102D00005000002080B584B000AF78600B467B8017
:102D100013463B8040F2FF43FB817B685A029523B8
:102D200000215120FFF706FD03461A462E4B1A706C
:102D3000FF20FFF7CFFB03461A462B4B1A702A4B96
:102D40001B78FE2B1BD0FB89013BFB81FB89002BF1
:102D5000EED1264B01221A61254B1B68244A23F031
:102D600040031360EE20FEF7BDFB1F4B1B78184697
:102D7000FEF7B8FB0020FFF7BDFC002330E000BFEA
:102D80000023BB811CE0FF20FFF7A4FB03461A468B
:102D9000154B1A70BA897B889A420ED3BA893B8840
:102DA0009A420AD8BB89104A1178124AD154BB8979
:102DB000104AD35C1846FEF795FBBB890133BB81F3
:102DC000BB89B3F5007FDED3FF20FFF783FBFF2035
:102DD000FFF780FBFFF7A0FE044B01221A610023DE
:102DE00018461037BD4680BD50040020000C01403D
:102DF000003800405000002080B584B000AF7860FB
:102E00000B467B8013463B8040F2FF43FB817B688F
:102E10005A02952300215120FFF78CFC03461A46E5
:102E2000344B1A70FF20FFF755FB03461A46314B0F
:102E30001A70304B1B78FE2B1BD0FB89013BFB81AA
:102E4000FB89002BEED12C4B01221A612B4B1B6806
:102E50002A4A23F040031360EE20FEF743FB254B84
:102E60001B781846FEF73EFB0020FFF743FC0023CB
:102E70003BE000BF0023BB8127E0FF20FFF72AFBD8
:102E800003461A461B4B1A701D4B1B881846FDF74C
:102E900025FCBA897B889A420FD3BA893B889A422B
:102EA0000BD8BB89134A1178164AD154BB89154AED
:102EB000D35C1846FEF716FB04E0BB890D4A117877
:102EC000104AD154BB890133BB81BB89B3F5007F64
:102ED000D3D3FF20FFF7FEFAFF20FFF7FBFAFFF73F
:102EE0001BFE054B01221A61002318461037BD4610
:102EF00080BD00BF50040020000C0140003800409D
:102F0000000000205000002080B5ADF5047D00AF2A
:102F100007F50473A3F50373186007F50473A3F5AD
:102F200003731B685A02952300215120FFF702FC0E
:102F300003461A46124B1A7007F10C0340F20222A4
:102F400019462820FFF77CFB0023A7F80E320BE080
:102F5000B7F80E320B4AD35C1846FEF7C3FAB7F83F
:102F60000E320133A7F80E32B7F80E3240F20122CA
:102F70009342EDD900BF00BF07F50477BD4680BD81
:102F8000500400202800002080B582B000AF786097
:102F90004FF400717868FFF7F1FA0620FDF730FC76
:102FA00000BF0837BD4680BD80B584B000AF7860F3
:102FB00040F2FF23FB817B685A02952300215820B1
:102FC000FFF7B8FBFE20FFF785FA03461A46244BAD
:102FD0001A700023BB8105E0FF20FFF77BFABB8955
:102FE0000133BB81BB89B3F5007FF5D9FF20FFF723
:102FF00071FAFF20FFF76EFAFF20FFF76BFA034626
:103000001A46174B1A70164B1B78052B06D0FB89F6
:10301000013BFB81FB89002BEED100E000BF0023C8
:103020007B8105E00F4B01221A617B8901337B8193
:103030007B894FF6FD729342F4D9FF20FFF74AFADD
:10304000FF20FFF747FAFFF767FD064B01221A61E1
:103050004FF47A70FDF742FB00BF1037BD4680BDCC
:1030600050040020000C014090B5ADF5077D00AF85
:1030700007F50673A3F50573186007F50673A3F546
:103080000673196007F10C034FF40072FF21184614
:1030900000F012FE07F50673A3F5067307F10C02A4
:1030A0001968104600F078FE0023A7F8163240F2A7
:1030B000FF23A7F814320023A7F8123219E0B7F85B
:1030C000163207F50672A2F5067212681A44B7F8AE
:1030D0001232117807F50672A2F50372D154B7F8CF
:1030E00016320133A7F81632B7F812320133A7F8B7
:1030F0001232B7F8124207F50673A3F50673186883
:1031000000F0ACFD03469C42D9D307F50673A3F546
:1031100005731B685A02952300215820FFF70AFB0C
:10312000FE20FFF7D7F903461A462C4B1A700023EE
:10313000A7F810320EE0B7F8103207F50672A2F5C4
:103140000372D35C1846FFF7C5F9B7F810320133A4
:10315000A7F81032B7F81032B3F5007FEBD3FF2099
:10316000FFF7B8F9FF20FFF7B5F9FF20FFF7B2F935
:1031700003461A46194B1A70184B1B78052B09D0B9
:10318000B7F81432013BA7F81432B7F81432002B09
:10319000EBD100E000BF0023A7F80E3207E0104B90
:1031A00001221A61B7F80E320133A7F80E32B7F8D0
:1031B0000E324FF6FD729342F1D9FF20FFF78AF9E4
:1031C000FF20FFF787F9FFF7A7FC054B01221A61E3
:1031D00000BF07F50777BD4690BD00BF5004002033
:1031E000000C014090B589B000AFF860B96013469B
:1031F000FB800023FB7740F2FF23BB83F868FFF7D7
:103200000DFDF868FFF7D0FE00237B830EE0FB7F07
:10321000BA681A44F9887B8B0B441178334AD1542D
:10322000FB7F0133FB777B8B01337B837C8BB8681F
:1032300000F014FD03469C42E9D9FB685A0295232D
:1032400000215820FFF776FAFE20FFF743F90346E6
:103250001A46274B1A7000233B8308E03B8B234A16
:10326000D35C1846FFF736F93B8B01333B833B8B2E
:10327000B3F5007FF2D9FF20FFF72CF9FF20FFF70D
:1032800029F9FF20FFF726F903461A46184B1A7052
:10329000174B1B78052B06D0BB8B013BBB83BB8B2D
:1032A000002BEED100E000BF0023FB8205E0114BB4
:1032B00001221A61FB8A0133FB82FB8A4FF6FD7201
:1032C0009342F4D9FF20FFF705F9FF20FFF702F939
:1032D000FFF722FC074B01221A614FF47A70FDF7C9
:1032E000FDF900BF2437BD4690BD00BF500000204F
:1032F00050040020000C014080B487B000AFF8609B
:10330000B9601346FB800023FB820023BB821BE0D5
:10331000BB8AFA6813441A78BB8AB9680B441B78D5
:103320009A4201D00023FB82BB8AFA6813441A78C0
:10333000BB8AB9680B441B789A4202D1FB8A0133DD
:10334000FB82BB8A0133BB82BA8AFB889A42DFD3F5
:10335000FB8A18461C37BD4680BC70472DE9F043F8
:1033600089B000AFF860B9601346FB806B461E461B
:103370000023FB830023BB83F9880B46013B7B6161
:103380008BB20022984691464FF000024FF00003A6
:103390004FEAC90343EA58734FEAC8028BB20022CE
:1033A0001C4615464FF000024FF00003EB0043EAC5
:1033B0005473E2000B460733DB08DB00ADEB030D73
:1033C0006B463B6100237B833CE000233B8327E08B
:1033D0007B8BFA6813441A783B8BB9680B441B78D3
:1033E0009A4201D00023FB837B8BFA6813441A783E
:1033F0003B8BB9680B441B789A420ED13B8BBA6861
:103400001A443B8B11783A69D1547B8BBB837B8BFD
:1034100001337B83FB8B0133FB833B8B01333B838A
:103420003A8BFB889A42D3D3FB881A46B96838692D
:10343000FFF762FF03461A46FB88934207D07B8B57
:1034400001337B837B8BB3F5007FBED300E000BFED
:10345000BA8BFB88D31A9BB2B54618462437BD46B3
:10346000BDE8F0832DE9F04385B000AF78603960A6
:103470006B461E46386800F0F1FB01460B46013BE7
:10348000FB600023884699464FF000024FF000038E
:103490004FEAC90343EA58734FEAC80200230C46B7
:1034A0001D464FF000024FF00003EB0043EA547357
:1034B000E200CB1DDB08DB00ADEB030D6B46BB6010
:1034C0004FF4007200210D4800F0F6FB3968B8682F
:1034D00000F062FC7868FFF7A1FB386800F0BEFBE3
:1034E00003469BB21A46B9680448FFF737FF034604
:1034F000B54618461437BD46BDE8F083500000209D
:1035000080B582B000AF78600B467B8013463B806D
:103510007A883B8813449AB27B8819467868FFF70B
:103520006BFC00BF0837BD4680BD80B487B000AFDC
:10353000786039600023FB750FE0FB7D7A681344E7
:103540001A78FB7D39680B441B789A423ED1FB7D8B
:103550000633FB75FB7D0133FB75FB7D092BECD935
:103560007B680B331B781B0603F070633B617B6841
:103570000C331B781B0503F470033A6913443B6159
:103580007B680D331B781B0403F470233A691344E2
:103590003B617B680E331B781B039BB23A69134473
:1035A0003B617B680F331B781B0203F470633A693D
:1035B00013443B617B6810331B7803F00F033A69B7
:1035C00013443B613B69FB60FB6803E000BF0023E1
:1035D000FB60FB6818461C37BD4680BC704780B452
:1035E00083B000AF78600B467B800B4B1B78DBB25F
:1035F000002B0BD0084B00221A707B88013B7A68A5
:103600001A447B88013B1178044AD15400BF0C371F
:10361000BD4680BC704700BF140000205000002051
:1036200080B584B000AF78600023BB600123FB81CC
:1036300018E0FB891846FFF7F1FA00237B730BE0D3
:1036400079680C48FFF771FFBB68002B01D0BB689D
:103650000CE07B7B01337B737B7B1F2BF0D9FB89D9
:103660000133FB81FB89132BE3D9BB681846103764
:10367000BD4680BD5000002080B584B000AF7860AA
:103680007868FFF7CDFFB860BB68002B13D0BB682C
:10369000002B0ED00023FB7308E0FA7BBB681344B9
:1036A0001846FFF7BBFAFB7B0133FB73FB7B032B55
:1036B000F3D9BB6804E000BF0348FDF75BFF0123BB
:1036C00018461037BD4680BDEC4C000880B582B06E
:1036D00000AF0020FFF7A2FA304B9B781A46304B20
:1036E0001A602E4B5B781A462D4B1B6813432C4AED
:1036F00013602A4B1B781A46294B1B681343284A30
:103700001360274B1B68274A934216D90023FB718D
:10371000254AFB791370244AFB795370224AFB79BE
:103720009370214B1A781D4B1A701F4B5A781B4B04
:103730005A701D4B9A78194B9A70194B1B68194A8D
:10374000934220D8164B1B680133154A1360164B61
:1037500000221A70144B00225A70114B1B68DAB207
:10376000114B9A70104B1A780C4B1A700E4B5A78FA
:103770000A4B5A700C4B9A78084B9A700B4B1B688B
:1037800010330A4A1360002204490020FFF72AFD83
:10379000034B1B6818460837BD4680BD500000200B
:1037A00064040020FDFFFF00680400205C0400208A
:1037B00080B584B000AF7860FFF788FF184978685B
:1037C00000F0CAFAF860174B1B68B3F5007F07D208
:1037D000144B1B689BB21A46F9680120FFF702FDE3
:1037E000104B1B6840F2FE32934207D90D4B1B6809
:1037F0009BB21A46F9680220FFF7F4FC094B1B68DC
:10380000B3F5C06F07D3074B1B689BB21A46F96824
:103810000320FFF7E7FC00BF1037BD4680BD00BFA7
:10382000680400205C04002080B584B000AF78609C
:103830007868FFF721FFF86004E04FF400712D482D
:10384000FFF7CDFE2C4B1B78DBB2002BF5D0F868D0
:10385000FFF7E4F9274B1B781B0403F47023FA6885
:103860001343FB60234B5B781B039BB2FA68134343
:10387000FB60204B9B781B0203F47063FA681343D0
:10388000FB601C4BDB7803F00F03FA681343FB600B
:10389000FB68002B07D100233B7200237B720023BF
:1038A000BB720123FB72FB68002B0FD03B7A3B728B
:1038B0007B7A7B72BB7ABB72FA7A104B1B68DBB2E5
:1038C00003F00F03DBB21343DBB2FB7207F1080313
:1038D00000221946F868FFF785FC084B1B68013386
:1038E000064A1360054B1B68FB6000BF1037BD46DE
:1038F00080BD00BF500000201300002058040020AD
:1039000080B500AF4FF080431B6903F00203002B2A
:1039100007D04FF080431B694FF0804223F0020331
:1039200013614FF080431B6903F00403002B0CD09C
:103930004FF080431B694FF0804223F00403136172
:103940004FF080435B6A054A1360054B9B68DBB20E
:103950001846FDF7C7FD00BF80BD00BF6C04002006
:103960000008014080B500AF284B9B69274A43F00F
:1039700004039361254BDB69244A43F00103D361BF
:1039800000210420FCF7EAFC4FF080431B684FF055
:10399000804223F0010313604FF0804347229A6274
:1039A0004FF0804340F2E732DA624FF080439B6988
:1039B0004FF0804243F0010393614FF080431B6A54
:1039C0004FF0804243F0020313624FF080431B6AC2
:1039D0004FF0804243F0010313624FF08043DB68F5
:1039E0004FF0804243F00203D3601C20FCF790FBB1
:1039F00001211C20FCF7CCFB4FF080431B684FF0EB
:103A0000804243F00103136000BF80BD00100240FC
:103A100080B500AF4FF0804300225A624FF08043E0
:103A200000221A604FF0804300229A614FF08043D9
:103A300000221A62304BB0221A604FF080431322EA
:103A40009A624FF0804340F2E732DA624FF08043EF
:103A50004FF4C8729A634FF0804300225A624FF0CD
:103A6000804384221A604FF080434FF080421B68ED
:103A70001360224B1B68214A23F01E0313604FF092
:103A800080439B694FF0804223F4407393614FF071
:103A900080439B694FF0804243F4405393614FF061
:103AA00080431B6A4FF0804223F0200313624FF0E3
:103AB00080431B6A4FF0804243F0100313624FF0C3
:103AC00080439B694FF0804243F4006393614FF061
:103AD00080430422DA601C20FCF71AFB01211C2021
:103AE000FCF756FB4FF080431B684FF0804243F0D9
:103AF0000103136000BF80BD00080140002C01409D
:103B000080B582B000AF0346FB71094AFB791370A0
:103B1000074B2F225A700649064800F03DF9054927
:103B2000034800F019F9024B18460837BD4680BD1E
:103B30008C0400207804002080B400AF184B0022D1
:103B40005A60174B00221A60164B00225A60154B20
:103B500000221A60144B00225A60134B00221A6094
:103B60000F4B0022DA600E4B00229A600F4B0022AE
:103B70005A600E4B00229A600C4B0022DA620B4B0B
:103B800000221A63094B00225A63084B0022DA60B4
:103B9000064B00221A6100BFBD4680BC704700BFC3
:103BA0000010014000080140000C014000240140C9
:103BB00080B582B000AFFFF7BFFFFCF79FFEFDF7B7
:103BC00013F81D4B01225A611B4B44F20C029A61FF
:103BD000194B0422DA61FCF745FD4FF4FA50FCF76B
:103BE0007DFD4FF49640FDF743FC4FF49640FEF701
:103BF000CDF8124B7B60786800F030F803469BB23A
:103C000019467868FEF71EF90D4B7B60786800F066
:103C100025F803469BB219467868FEF713F9094B5D
:103C20007B60786800F01AF803469BB21946786802
:103C3000FEF708F900BFFDE700100240004D000844
:103C40000C4D0008144D0008204D00080000002015
:103C500008000020080000209004002020F003014C
:103C600010F00300C0F1000051F8043B00F1040C17
:103C70004FEACC0C6FF000021CBF22FA0CF2134387
:103C80004FF0010C4CEA0C2C4CEA0C4CA3EB0C0250
:103C900022EA030212EACC1204BF51F8043B0430BA
:103CA000F4D0C2F1000102EA0102B2FA82F2C2F1DA
:103CB0001F0200EBD200704770B5860747D0541E34
:103CC000002A3ED00346CAB201E0013C39D303F8D2
:103CD000012B9D07F9D1032C2CD9CDB205EB05257D
:103CE0000F2C1A4605EB054534D9A4F1100C2CF025
:103CF0000F0603F1100EB6444FEA1C1CC2E9005532
:103D0000C2E9025510327245F8D10CF1010214F0EB
:103D10000C0F03EB021204F00F0C13D0ACF10403F0
:103D200023F003030433134442F8045B9342FBD1B2
:103D30000CF003042CB1C9B21C4403F8011BA342CC
:103D4000FBD170BD64461346002CF4D1F9E703465D
:103D50001446C0E7A446E1E7830710B5044610D136
:103D60000268A2F1013323EA020313F0803F08D175
:103D700050F8042FA2F1013323EA020313F0803F2D
:103D8000F6D003781BB110F8013F002BFBD100F0F7
:103D900003F8204610BD00BF80EA0102844612F0FD
:103DA000030F4FD111F0030F32D14DF8044D11F034
:103DB000040F51F8043B0BD0A3F101329A4312F0E7
:103DC000803F04BF4CF8043B51F8043B16D100BFC0
:103DD00051F8044BA3F101329A4312F0803FA4F151
:103DE00001320BD14CF8043BA24312F0803F04BFD8
:103DF00051F8043B4CF8044BEAD023460CF8013B45
:103E000013F0FF0F4FEA3323F8D15DF8044B7047EE
:103E100011F0010F06D011F8012B0CF8012B002A2C
:103E200008BF704711F0020FBFD031F8022B12F01B
:103E3000FF0F16BF2CF8022B8CF8002012F47F4FD6
:103E4000B3D1704711F8012B0CF8012B002AF9D1DE
:103E5000704700BF70B54FF0FF0C4CF4E06C1CEAEB
:103E600011541DBF1CEA135594EA0C0F95EA0C0F70
:103E700000F0DEF82C4481EA030621EA4C5123EAE3
:103E80004C5350EA013518BF52EA033541F4801112
:103E900043F4801338D0A0FB02CE4FF00005E1FBC5
:103EA00002E506F00042E0FB03E54FF00006E1FB0F
:103EB00003569CF0000F18BF4EF0010EA4F1FF0452
:103EC000B6F5007F64F5407404D25FEA4E0E6D4192
:103ED00046EB060642EAC62141EA55514FEAC520A3
:103EE00040EA5E504FEACE2EB4F1FD0C88BFBCF51F
:103EF000E06F1ED8BEF1004F08BF5FEA500E50F1D0
:103F0000000041EB045170BD06F0004646EA010195
:103F100040EA020081EA0301B4EB5C04C2BFD4EBC7
:103F20000C0541EA045170BD41F480114FF0000EC0
:103F3000013C00F3AB8014F1360FDEBF002001F02E
:103F4000004170BDC4F10004203C35DA0C341BDCA8
:103F500004F11404C4F1200500FA05F320FA04F07A
:103F600001FA05F240EA020001F0004221F00041AE
:103F700010EBD37021FA04F642EB06015EEA430E21
:103F800008BF20EAD37070BDC4F10C04C4F1200551
:103F900000FA04F320FA05F001FA04F240EA020004
:103FA00001F0004110EBD37041F100015EEA430ED5
:103FB00008BF20EAD37070BDC4F1200500FA05F2F5
:103FC0004EEA020E20FA04F301FA05F243EA020374
:103FD00021FA04F001F0004121FA04F220EA020083
:103FE00000EBD3705EEA430E08BF20EAD37070BDC9
:103FF00094F0000F0FD101F00046400041EB0101A9
:1040000011F4801F08BF013CF7D041EA060195F08A
:10401000000F18BF704703F00046520043EB030344
:1040200013F4801F08BF013DF7D043EA0603704731
:1040300094EA0C0F0CEA135518BF95EA0C0F0CD03C
:1040400050EA410618BF52EA4306D1D181EA030182
:1040500001F000414FF0000070BD50EA410606BF7C
:104060001046194652EA430619D094EA0C0F02D1C1
:1040700050EA013613D195EA0C0F05D152EA033606
:104080001CBF104619460AD181EA030101F0004124
:1040900041F0FE4141F470014FF0000070BD41F06D
:1040A000FE4141F4780170BD4FF0FF0C1CEAD05284
:1040B0001EBF1CEAD15392EA0C0F93EA0C0F6FD08B
:1040C0001A4480EA010C400218BF5FEA41211ED069
:1040D0004FF0006343EA501043EA5111A0FB013155
:1040E0000CF00040B1F5000F3EBF490041EAD3712A
:1040F0005B0040EA010062F17F02FD2A1DD8B3F1A6
:10410000004F40EBC25008BF20F00100704790F014
:10411000000F0CF0004C08BF49024CEA502040EA66
:1041200051207F3AC2BFD2F1FF0340EAC25070472C
:1041300040F400004FF00003013A5DDC12F1190F6A
:10414000DCBF00F000407047C2F10002410021FADC
:1041500002F1C2F1200200FA02FC5FEA310040F1F4
:10416000000053EA4C0308BF20EADC70704792F06D
:10417000000F00F0004C02BF400010F4000F013AA5
:10418000F9D040EA0C0093F0000F01F0004C02BFA0
:10419000490011F4000F013BF9D041EA0C018FE70F
:1041A0000CEAD15392EA0C0F18BF93EA0C0F0AD015
:1041B00030F0004C18BF31F0004CD8D180EA01003B
:1041C00000F00040704790F0000F17BF90F0004FD4
:1041D000084691F0000F91F0004F14D092EA0C0FB6
:1041E00001D142020FD193EA0C0F03D14B0218BF49
:1041F000084608D180EA010000F0004040F0FE408F
:1042000040F40000704740F0FE4040F4400070472A
:1042100081F0004102E000BF83F0004330B54FEA77
:1042200041044FEA430594EA050F08BF90EA020FE4
:104230001FBF54EA000C55EA020C7FEA645C7FEA77
:10424000655C00F0E2804FEA5454D4EB5555B8BF9A
:104250006D420CDD2C4480EA020281EA030382EA0B
:10426000000083EA010180EA020281EA0303362D9D
:1042700088BF30BD11F0004F4FEA01314FF4801C70
:104280004CEA113102D0404261EB410113F0004F82
:104290004FEA03334CEA133302D0524263EB430339
:1042A00094EA050F00F0A780A4F10104D5F1200ED7
:1042B0000DDB02FA0EFC22FA05F2801841F1000132
:1042C00003FA0EF2801843FA05F359410EE0A5F106
:1042D00020050EF1200E012A03FA0EFC28BF4CF037
:1042E000020C43FA05F3C01851EBE37101F00045ED
:1042F00007D54FF0000EDCF1000C7EEB00006EEBFA
:104300000101B1F5801F1BD3B1F5001F0CD3490883
:104310005FEA30004FEA3C0C04F101044FEA4452DA
:1043200012F5800F80F09A80BCF1004F08BF5FEA61
:10433000500C50F1000041EB045141EA050130BD41
:104340005FEA4C0C404141EB0101013C28BFB1F553
:10435000801FE9D291F0000F04BF01460020B1FA9E
:1043600081F308BF2033A3F10B03B3F120020CDA71
:104370000C3208DD02F1140CC2F10C0201FA0CF04F
:1043800021FA02F10CE002F11402D8BFC2F1200CB4
:1043900001FA02F120FA0CFCDCBF41EA0C0190406A
:1043A000E41AA2BF01EB0451294330BD6FEA0404B3
:1043B0001F3C1CDA0C340EDC04F11404C4F120029E
:1043C00020FA04F001FA02F340EA030021FA04F3B0
:1043D00045EA030130BDC4F10C04C4F1200220FA07
:1043E00002F001FA04F340EA0300294630BD21FA45
:1043F00004F0294630BD94F0000F83F4801306BF0B
:1044000081F480110134013D4EE77FEA645C18BFFE
:104410007FEA655C29D094EA050F08BF90EA020F95
:1044200005D054EA000C04BF1946104630BD91EA8D
:10443000030F1EBF0021002030BD5FEA545C05D190
:104440004000494128BF41F0004130BD14F58004CF
:104450003CBF01F5801130BD01F0004545F0FE4143
:1044600041F470014FF0000030BD7FEA645C1ABF78
:10447000194610467FEA655C1CBF0B46024650EAAF
:10448000013406BF52EA033591EA030F41F40021DB
:1044900030BD00BF90F0000F04BF0021704730B561
:1044A0004FF4806404F132044FF000054FF0000136
:1044B00050E700BF90F0000F04BF0021704730B5F7
:1044C0004FF4806404F1320410F0004548BF4042CC
:1044D0004FF000013EE700BF42004FEAE2014FEA21
:1044E00031014FEA02701FBF12F07F4393F07F4FFC
:1044F00081F06051704732F07F4208BF704793F0FF
:104500007F4F04BF41F40021704730B54FF4607411
:1045100001F0004521F000411CE700BF50EA010214
:1045200008BF704730B54FF000050AE050EA0102BD
:1045300008BF704730B511F0004502D5404261EB2D
:1045400041014FF4806404F132045FEA915C3FF46E
:10455000D8AE4FF003025FEADC0C18BF03325FEA0B
:10456000DC0C18BF033202EBDC02C2F1200300FABC
:1045700003FC20FA02F001FA03FE40EA0E0021FAE1
:1045800002F11444BDE600BF70B54FF0FF0C4CF4CF
:10459000E06C1CEA11541DBF1CEA135594EA0C0F81
:1045A00095EA0C0F00F0DEF82C4481EA030621EABC
:1045B0004C5123EA4C5350EA013518BF52EA0335F7
:1045C00041F4801143F4801338D0A0FB02CE4FF0A9
:1045D0000005E1FB02E506F00042E0FB03E54FF0D9
:1045E0000006E1FB03569CF0000F18BF4EF0010ED1
:1045F000A4F1FF04B6F5007F64F5407404D25FEACD
:104600004E0E6D4146EB060642EAC62141EA55517F
:104610004FEAC52040EA5E504FEACE2EB4F1FD0CC1
:1046200088BFBCF5E06F1ED8BEF1004F08BF5FEA3F
:10463000500E50F1000041EB045170BD06F00046F1
:1046400046EA010140EA020081EA0301B4EB5C049E
:10465000C2BFD4EB0C0541EA045170BD41F4801196
:104660004FF0000E013C00F3AB8014F1360FDEBFBB
:10467000002001F0004170BDC4F10004203C35DA97
:104680000C341BDC04F11404C4F1200500FA05F31A
:1046900020FA04F001FA05F240EA020001F00042BB
:1046A00021F0004110EBD37021FA04F642EB060131
:1046B0005EEA430E08BF20EAD37070BDC4F10C045B
:1046C000C4F1200500FA04F320FA05F001FA04F21F
:1046D00040EA020001F0004110EBD37041F100010B
:1046E0005EEA430E08BF20EAD37070BDC4F1200516
:1046F00000FA05F24EEA020E20FA04F301FA05F27E
:1047000043EA020321FA04F001F0004121FA04F225
:1047100020EA020000EBD3705EEA430E08BF20EAF5
:10472000D37070BD94F0000F0FD101F0004640002F
:1047300041EB010111F4801F08BF013CF7D041EAB1
:10474000060195F0000F18BF704703F000465200B5
:1047500043EB030313F4801F08BF013DF7D043EA86
:104760000603704794EA0C0F0CEA135518BF95EA3C
:104770000C0F0CD050EA410618BF52EA4306D1D1C3
:1047800081EA030101F000414FF0000070BD50EAE2
:10479000410606BF1046194652EA430619D094EA6C
:1047A0000C0F02D150EA013613D195EA0C0F05D156
:1047B00052EA03361CBF104619460AD181EA0301AA
:1047C00001F0004141F0FE4141F470014FF0000062
:1047D00070BD41F0FE4141F4780170BD70B54FF0FD
:1047E000FF0C4CF4E06C1CEA11541DBF1CEA13557D
:1047F00094EA0C0F95EA0C0F00F0A7F8A4EB05045F
:1048000081EA030E52EA03354FEA013100F0888055
:104810004FEA03334FF0805545EA131343EA12631E
:104820004FEA022245EA111545EA10654FEA0026D3
:104830000EF000419D4208BF964244F1FD0404F58C
:10484000407402D25B084FEA3202B61A65EB0305E8
:104850005B084FEA32024FF480104FF4002CB6EBA5
:10486000020E75EB030E22BFB61A754640EA0C0025
:104870005B084FEA3202B6EB020E75EB030E22BF65
:10488000B61A754640EA5C005B084FEA3202B6EBA6
:10489000020E75EB030E22BFB61A754640EA9C0065
:1048A0005B084FEA3202B6EB020E75EB030E22BF35
:1048B000B61A754640EADC0055EA060E18D04FEAF3
:1048C000051545EA16754FEA06164FEAC30343EA93
:1048D00052734FEAC2025FEA1C1CC0D111F4801F60
:1048E0000BD141EA00014FF000004FF0004CB6E759
:1048F00011F4801F04BF01430020B4F1FD0C88BFF8
:10490000BCF5E06F3FF6AFAEB5EB030C04BFB6EB02
:10491000020C5FEA500C50F1000041EB045170BDF5
:104920000EF0004E4EEA113114EB5C04C2BFD4EB22
:104930000C0541EA045170BD41F480114FF0000EA6
:10494000013C90E645EA060E8DE60CEA135594EA22
:104950000C0F08BF95EA0C0F3FF43BAF94EA0C0F25
:104960000AD150EA01347FF434AF95EA0C0F7FF49A
:1049700025AF104619462CE795EA0C0F06D152EAEE
:1049800003353FF4FDAE1046194622E750EA4106D2
:1049900018BF52EA43067FF4C5AE50EA41047FF4E3
:1049A0000DAF52EA43057FF4EBAE12E74FEA410246
:1049B000B2F1E04324BFB3F5001CDCF1FE5C0DD97D
:1049C00001F0004C4FEAC0024CEA5070B2F1004FC7
:1049D00040EB830008BF20F00100704711F0804FCA
:1049E00021D113F13872BCBF01F00040704741F48F
:1049F00080114FEA5252C2F11802C2F1200C10FA93
:104A00000CF320FA02F018BF40F001004FEAC12376
:104A10004FEAD32303FA0CFC40EA0C0023FA02F31A
:104A20004FEA4303CCE77FEA625307D150EA0133F0
:104A30001EBF4FF0FE4040F44000704701F00040C0
:104A400040F0FE4040F40000704700BF80F000409E
:104A500002E000BF81F0004142001FBF5FEA410356
:104A600092EA030F7FEA226C7FEA236C6AD04FEA56
:104A70001262D2EB1363C1BFD2184140484041409B
:104A8000B8BF5B42192B88BF704710F0004F40F44D
:104A9000000020F07F4018BF404211F0004F41F469
:104AA000000121F07F4118BF494292EA030F3FD035
:104AB000A2F1010241FA03FC10EB0C00C3F1200348
:104AC00001FA03F100F0004302D5494260EB4000D7
:104AD000B0F5000F13D3B0F1807F06D340084FEA42
:104AE000310102F10102FE2A51D2B1F1004F40EB37
:104AF000C25008BF20F0010040EA0300704749009F
:104B000040EB0000013A28BFB0F5000FEDD2B0FA3B
:104B100080FCACF1080CB2EB0C0200FA0CF0AABF5E
:104B200000EBC25052421843BCBFD04018437047FC
:104B300092F0000F81F4000106BF80F40000013202
:104B4000013BB5E74FEA41037FEA226C18BF7FEAD9
:104B5000236C21D092EA030F04D092F0000F08BF1B
:104B60000846704790EA010F1CBF0020704712F002
:104B70007F4F04D1400028BF40F00040704712F141
:104B800000723CBF00F50000704700F0004343F0A6
:104B9000FE4040F4000070477FEA226216BF0846DC
:104BA0007FEA23630146420206BF5FEA412390EA9F
:104BB000010F40F4800070474FF0000304E000BF95
:104BC00010F0004348BF40425FEA000C08BF704746
:104BD00043F0964301464FF000001CE050EA01020A
:104BE00008BF70474FF000030AE000BF50EA01021F
:104BF00008BF704711F0004302D5404261EB41010C
:104C00005FEA010C02BF84460146002043F0B64330
:104C100008BFA3F18053A3F50003BCFA8CF2083A55
:104C2000A3EBC25310DB01FA02FC634400FA02FC5E
:104C3000C2F12002BCF1004F20FA02F243EB020065
:104C400008BF20F00100704702F1200201FA02FCC7
:104C5000C2F1200250EA4C0021FA02F243EB0200BA
:104C600008BF20EADC70704742000ED2B2F1FE4F5E
:104C70000BD34FF09E03B3EB126209D44FEA00232B
:104C800043F0004323FA02F070474FF000007047F2
:104C900012F1610F01D1420202D14FF0FF30704793
:104CA0004FF00000704700BF0A480B490B4A002331
:104CB00002E0D458C4500433C4188C42F9D3084AD3
:104CC000084C002301E013600432A242FBD3FEF73C
:104CD0006FFF70470000002008000020204D0008F2
:0C4CE0000800002090040020FEE7000007
:104CEC0066696C65206E6F7420666F756E6400006B
:104CFC00200000005F616C67657269610000000054
:104D0C0041706861626574005F6E696765726961A4
:044D1C000000000093
:084D2000E8030000FC4C000850
:0400000508004CA9FA
:00000001FF
