:020000040800F2
:1000000000500020894E0008C94E0008C94E000863
:10001000C94E0008C94E0008C94E00080000000083
:10002000000000000000000000000000C94E0008B1
:10003000C94E000800000000C94E0008C94E000863
:10004000C94E0008C94E0008C94E0008C94E000834
:10005000C94E0008C94E0008C94E0008C94E000824
:10006000C94E0008C94E0008C94E0008510C0008CE
:10007000D10C0008510D0008D10D0008510E0008E8
:10008000C50E0008390F0008C94E0008C94E000807
:10009000C94E0008C94E0008C94E0008C94E0008E4
:1000A000C94E000809070008C94E0008C94E0008DB
:1000B000093B00084B05000829060008C94E000846
:1000C000C94E0008C94E0008C94E0008D5200008D6
:1000D00031210008D913000829140008C94E00086E
:1000E000C94E0008C94E0008C94E000800000000B3
:1000F0000000000000000000000000000000000000
:0C01000000000000000000005FF808F1A3
:1001100080B483B000AF0346FB7197F90730002B22
:100120000BDBFB7903F01F02064997F907305B09E7
:10013000012000FA02F241F8232000BF0C37BD462F
:1001400080BC704700E100E080B483B000AF03469C
:10015000FB7197F90730002B12DBFB7903F01F02CC
:100160000A4997F907305B09012000FA02F22033AF
:1001700041F82320BFF34F8F00BFBFF36F8F00BF45
:1001800000BF0C37BD4680BC704700BF00E100E0F7
:1001900080B483B000AF03463960FB7197F9073034
:1001A000002B0ADB3B68DAB20C4997F907301201E1
:1001B000D2B20B4483F800230AE03B68DAB2084964
:1001C000FB7903F00F03043B1201D2B20B441A7601
:1001D00000BF0C37BD4680BC704700BF00E100E0A7
:1001E00000ED00E080B483B000AF03460A46FB8018
:1001F00013467B71124B9B69114A43F010039361C4
:100200007B790F2B10D00F2B13DC0D2B02D00E2B74
:1002100005D00EE0FB880B4A1B0553600AE0FB8803
:10022000094A1B06536005E0FB88074A1B07536019
:1002300000E000BF00BF0C37BD4680BC704700BF68
:100240000010024000100140000C014080B483B057
:1002500000AF03460A46FB8013467B713D4B9B690A
:100260003C4A43F0080393617B790F2B6BD801A2C2
:1002700052F823F0B5020008BD0200084703000849
:10028000C7020008D1020008DB020008E5020008EE
:10029000EF020008F9020008010300080B03000840
:1002A000150300081F030008290300083303000892
:1002B0003D030008284AFB88136045E0FB88264A76
:1002C0001B01136040E0FB88234A1B0313603BE0E3
:1002D000FB88214A1B04136036E0FB881E4A1B057D
:1002E000136031E0FB881C4A1B0613602CE0FB887E
:1002F000194A1B07136027E0174AFB88536023E065
:10030000FB88154A1B0153601EE0FB88124A1B0242
:10031000536019E0FB88104A1B03536014E0FB880C
:100320000D4A1B0453600FE0FB880B4A1B0553600A
:100330000AE0FB88084A1B06536005E0FB88064A72
:100340001B07536000E000BF00BF0C37BD4680BCF8
:10035000704700BF00100240000C014080B483B021
:1003600000AF03460A46FB8013467B713A4B9B69FC
:10037000394A43F0040393617B790F2B66D801A2BD
:1003800052F823F0C5030008CD030008D703000886
:10039000E1030008EB030008F5030008FF03000871
:1003A00009040008130400081B04000825040008C1
:1003B0002F040008390400084D0400084D0400080B
:1003C00043040008254AFB88136040E0FB88234A69
:1003D0001B0113603BE0FB88204A1B02136036E0E0
:1003E000FB881E4A1B03136031E0FB881B4A1B0479
:1003F00013602CE0FB88194A1B05136027E0FB887B
:10040000164A1B06136022E0FB88144A1B07136080
:100410001DE0124AFB88536019E0FB880F4A1B015C
:10042000536014E0FB880D4A1B0253600FE0FB8809
:100430000A4A1B0353600AE0FB88084A1B04536006
:1004400005E0FB88054A1B07536000E000BF00BFC2
:100450000C37BD4680BC70470010024000080140C8
:1004600080B582B000AF78600B46FB701346BB705E
:100470007B68012B06D1FB789BB2BA7811461846EF
:10048000FFF76CFF7B68022B06D1FB789BB2BA7832
:1004900011461846FFF7DAFE7B68032B06D1FB787E
:1004A0009BB2BA7811461846FFF79CFE00BF08378A
:1004B000BD4680BD80B582B000AF78607B6898474C
:1004C00000BF0837BD4680BD80B582B000AF786000
:1004D00039603B687868984700BF0837BD4680BDE3
:1004E00080B584B000AFF860B9607A607B68B968A5
:1004F000F868984700BF1037BD4680BD80B582B010
:1005000000AF78607B689847034618460837BD46B9
:1005100080BD80B582B000AF786039603B68786894
:100520009847034618460837BD4680BD80B584B05D
:1005300000AFF860B9607A607B68B968F86898477E
:10054000034618461037BD4680BD80B400AF0B4B44
:100550001B6903F00103002B0CD0084B1B69074AF1
:1005600023F001031361064B1B889BB201339AB23F
:10057000034B1A8000BFBD4680BC7047000400409A
:100580000600002080B500AF1A4BDB69194A43F022
:100590000203D361184B1B68174A23F00103136051
:1005A000154B13229A62144B40F2E732DA62124B77
:1005B00000225A62104B4122DA600F4B80221A60EF
:1005C0000D4B1B680C4B00221A600B4B5B690A4AEF
:1005D00043F00103536102211D20FFF7D9FD1D20C7
:1005E000FFF796FD044B1B68034A43F001031360B9
:1005F00000BF80BD001002400004004080B483B002
:1006000000AF0346FB8000BF064B1B889BB2FA88F5
:100610009A42F9D1034B00221A8000BF0C37BD4625
:1006200080BC70470600002080B400AF0B4B1B69F4
:1006300003F00103002B0CD0084B1B69074A23F081
:1006400001031361064B1B889BB201339AB2044B22
:100650001A8000BFBD4680BC704700BF0008004044
:100660000400002080B500AF1A4BDB69194A43F043
:100670000403D361184B1B68174A23F0010313606E
:10068000154B13229A62144B40F2E732DA62124B96
:1006900000225A62104B0122DA600F4B80221A604E
:1006A0000D4B1B680C4B00221A600B4B5B690A4A0E
:1006B00043F00103536102211E20FFF769FD1E2054
:1006C000FFF726FD044B1B68034A43F00103136048
:1006D00000BF80BD001002400008004080B483B01D
:1006E00000AF0346FB8000BF064B1B889BB2FA8815
:1006F0009A42F9D8034B00221A8000BF0C37BD463E
:1007000080BC70470400002080B400AF0B4B1B6915
:1007100003F00103002B0CD0084B1B69074A23F0A0
:1007200001031361064B1B889BB201339AB2044B41
:100730001A8000BFBD4680BC704700BF002C01403E
:100740000800002080B400AF0B4B1B6903F00103CD
:10075000002B0CD0084B1B69074A23F001031361DF
:10076000064B1B889BB201339AB2044B1A8000BF20
:10077000BD4680BC704700BF002C01400A0000202D
:1007800080B500AF1B4B9B691A4A43F40063936129
:10079000194B00221A80194B1B68184A23F00103D9
:1007A0001360164B13229A62144B40F2E732DA625E
:1007B000124B00225A62114B00221A630F4B412246
:1007C000DA600E4B80221A600C4B1B680B4A23F038
:1007D0001E03136002211920FFF7DAFC1920FFF72E
:1007E00097FC064B1B68054A43F00103136000BFEA
:1007F00080BD00BF0010024008000020002C014016
:1008000080B483B000AF0346FB8000BF064B1B885B
:100810009BB2FA889A42F9D1034B00221A8000BF9A
:100820000C37BD4680BC70470800002080B500AF83
:10083000244B9B69234A43F400639361224B0022BB
:100840001A80224B1B68214A23F0010313601F4BBF
:1008500013229A621D4B40F2E732DA621B4B0022F0
:100860005A621A4B00221A63184B4122DA60174B66
:1008700084221A60154B1B68144A43F0600313600E
:10088000124B1B68114A23F01A0313600F4B9B692C
:100890000E4A23F44073936102211920FFF778FC7C
:1008A00002211B20FFF774FC1920FFF731FC1B20ED
:1008B000FFF72EFC054B1B68044A43F0010313604D
:1008C00000BF80BD0010024008000020002C014045
:1008D00080B483B000AF0346FB8000BF064B1B888B
:1008E0009BB2FA889A42F9D1034B00221A8000BFCA
:1008F0000C37BD4680BC70470800002080B400AFB4
:10090000344B1B68334A43F48033136000BF314BD0
:100910001B6803F40033002BF9D02F4B1B682E4AC1
:1009200043F0100313602C4B1B682B4A23F0070382
:100930001360294B1B68284A43F002031360254BC0
:100940005B68244A23F47F5323F030035360214B28
:100950005B68204A43F4806353601E4B5B681D4A0A
:1009600043F4005353601B4B5B681A4A23F474131F
:100970005360184B5B68174A43F480335360154B40
:100980005B68144A43F440235360124B1B68114ABE
:1009900043F08073136000BF0E4B1B6803F00073BD
:1009A000002BF9D00B4B5B680A4A23F0030353601A
:1009B000084B5B68074A43F00203536000BF054BD6
:1009C0005B6803F00C03082BF9D100BF00BFBD46E4
:1009D00080BC7047001002400020024080B400AF8D
:1009E0002C4B1B682B4A43F48033136000BF294B08
:1009F0001B6803F40033002BF9D0274B1B68264AF1
:100A000043F010031360244B1B68234A03F00703D1
:100A10001360214B1B68204A43F0040313601D4BF5
:100A20001C4A5B6853601B4B5B681A4A43F4803373
:100A30005360184B00225A60164B164A5B6853608D
:100A4000144B144A5B685360124B1B68114A43F005
:100A50008073136000BF0F4B1B6803F00073002B03
:100A6000F9D00C4B5B680B4A23F003035360094B2E
:100A70005B68084A43F00203536000BF054B5B68A4
:100A800003F00C03082BF9D100BF00BFBD4680BCAA
:100A9000704700BF001002400020024080B400AF49
:100AA0001C4B4FF480321A6000BF1A4B1B6803F4D2
:100AB0000033B3F5003FF8D1164B4FF400225A62D1
:100AC00003E0144B4FF400029A60124B9B6803F44E
:100AD0000003B3F5000FF4D00E4B0E4A5B68536071
:100AE0000C4B0C4A5B6853600A4B0A4A5B685360C4
:100AF000084B5B68074A43F00103536000BF054B96
:100B00005B6803F00403042BF9D100BF00BFBD46AE
:100B100080BC70470010024080B483B000AF7860A2
:100B200002E07B68013B7B607B68002BF9D100BF52
:100B300000BF0C37BD4680BC704780B400AF284B67
:100B40001B68274A43F48033136000BF244B1B68A3
:100B500003F40033002BF9D0224B1B68214A43F0E9
:100B6000100313601F4B1B681E4A03F0070313603A
:100B70001C4B1B681B4A43F004031360184B5B6853
:100B8000174A23F44E335360154B5B68144A43F401
:100B900080635360124B1B68114A43F080731360EB
:100BA00000BF0F4B1B6803F00073002BF9D00C4BF8
:100BB0005B680B4A23F003035360094B5B68084AE8
:100BC00043F00203536000BF054B5B6803F00C0366
:100BD000082BF9D100BF00BFBD4680BC704700BFE5
:100BE000001002400020024080B400AF084B0022F9
:100BF0001A60074B41F61F425A60054B00229A606B
:100C0000034B05221A6000BFBD4680BC704700BF81
:100C100010E000E080B485B000AF78600023FB6096
:100C200009E000BF094B1B6803F48033002BF9D1A6
:100C3000FB680133FB60FA687B689A42F1D300BF1E
:100C400000BF1437BD4680BC704700BF10E000E015
:100C500080B400AF1B4B1B6803F00403002B05D0CE
:100C6000184B5B68174A43F004035360154B1B682D
:100C700003F00203002B0ED0124B5B68114A43F0C5
:100C800002035360104B01221A70104B1B680F4A6D
:100C900023F0010313600B4B1B6803F00803002BC8
:100CA0000BD0084B5B68074A43F008035360074BBF
:100CB0001B68064A23F00103136000BFBD4680BCD9
:100CC000704700BF000002400C00002008000240F6
:100CD00080B400AF1B4B1B6803F04003002B05D012
:100CE000184B5B68174A43F040035360154B1B6871
:100CF00003F02003002B0ED0124B5B68114A43F027
:100D000020035360104B01221A70104B1B680F4ACE
:100D100023F0010313600B4B1B6803F08003002BCF
:100D20000BD0084B5B68074A43F080035360074BC6
:100D30001B68064A23F00103136000BFBD4680BC58
:100D4000704700BF000002400D0000201C00024060
:100D500080B400AF1B4B1B6803F48063002B05D0ED
:100D6000184B5B68174A43F480635360154B1B684C
:100D700003F40073002B0ED0124B5B68114A43F44E
:100D800000735360104B01221A70104B1B680F4AFE
:100D900023F0010313600B4B1B6803F40063002B6B
:100DA0000BD0084B5B68074A43F400635360074B62
:100DB0001B68064A23F00103136000BFBD4680BCD8
:100DC000704700BF000002400E00002030000240CB
:100DD00080B400AF1B4B1B6803F48043002B05D08D
:100DE000184B5B68174A43F480435360154B1B68EC
:100DF00003F40053002B0ED0124B5B68114A43F4EE
:100E000000535360104B01221A70104B1B680F4A9D
:100E100023F0010313600B4B1B6803F40043002B0A
:100E20000BD0084B5B68074A43F400435360074B01
:100E30001B68064A23F00103136000BFBD4680BC57
:100E4000704700BF000002400F0000204400024035
:100E500080B400AF184B1B6803F48023002B05D02F
:100E6000154B5B68144A43F480235360124B1B6894
:100E700003F40033002B08D00F4B5B680E4A43F499
:100E8000003353600D4B01221A700B4B1B6803F4A7
:100E90000023002B0BD0084B5B68074A43F4002368
:100EA0005360074B1B68064A23F00103136000BF21
:100EB000BD4680BC704700BF00000240100000200B
:100EC0005800024080B400AF184B1B6803F4800345
:100ED000002B05D0154B5B68144A43F48003536024
:100EE000124B1B6803F40013002B08D00F4B5B68F8
:100EF0000E4A43F4001353600D4B01221A700B4B42
:100F00001B6803F40003002B0BD0084B5B68074AF7
:100F100043F400035360074B1B68064A23F00103A8
:100F2000136000BFBD4680BC704700BF0000024098
:100F3000110000206C00024080B400AF184B1B6809
:100F400003F08063002B05D0154B5B68144A43F017
:100F500080635360124B1B6803F00073002B08D0B2
:100F60000F4B5B680E4A43F0007353600D4B012238
:100F70001A700B4B1B6803F00063002B0BD0084B5F
:100F80005B68074A43F000635360074B1B68064ADF
:100F900023F00103136000BFBD4680BC704700BF53
:100FA00000000240120000208000024080B485B0A2
:100FB00000AFF860B9601346FB80284B5B69274A95
:100FC00043F001035361264B1B68254A23F00103BC
:100FD0001360234AFB689360214ABB68D360204AB0
:100FE000FB8853601E4B1B681D4A43F480531360FB
:100FF0001B4B1B681A4A43F010031360184B1B6805
:10100000174A43F480631360154B1B68144A43F47A
:1010100080731360124B1B68114A43F08003136006
:101020000F4B1B680E4A23F0400313600C4B1B68E8
:101030000B4A23F020031360094B1B68084A43F056
:101040000E031360064B1B68054A43F0010313604F
:1010500000BF1437BD4680BC704700BF001002407F
:101060000800024080B400AF23E0174B1B6803F474
:101070000023002B05D0144B5B68134A23F4002394
:101080005360114B1B6803F48023002B05D00E4BDB
:101090005B680D4A23F4802353600B4B1B6803F4F9
:1010A0000033002B05D0084B5B68074A23F400335C
:1010B0005360054B1B6803F48033002BD5D100BF70
:1010C00000BFBD4680BC70470000024080B400AF46
:1010D0000F4B9B6903F01003002B05D10C4B9B6950
:1010E0000B4A43F0100393610A4B5B6803F400134F
:1010F000002B03D1074B4FF400125A60054BDB68FD
:10110000044A83F40053D36000BFBD4680BC7047DF
:10111000001002400010014090B587B000AF786029
:10112000786803F0A7FA4FF00002454B03F01CFB70
:1011300002460B4640A1D1E9000103F03FFC024604
:101140000B461046194603F021FD03467B617B6880
:101150001B013C4AB2FBF3F3184603F01DFE0346A5
:101160003B613969786903F065FD03464FF08341BF
:10117000184603F089F80346FB60386903F064FE03
:101180000346BB607B68B3F5E13F44D07B68B3F5B1
:10119000E13F4AD87B68B3F5614F32D07B68B3F545
:1011A000614F42D87B68B3F5164F20D07B68B3F50A
:1011B000164F3AD87B68B3F5165F04D07B68B3F559
:1011C000964F0AD031E0BB681C01F86803F03CFE82
:1011D00003461D4A2344936028E0BB681C01F8685D
:1011E00003F032FE0346184A234493601EE0BB68B6
:1011F0001C01F86803F028FE0346134A2344936059
:1012000014E0BB681C01F86803F01EFE03460E4A9A
:10121000234493600AE0BB681C01F86803F014FEE5
:101220000346094A2344936000E000BF00BF1C3717
:10123000BD4690BDAFF3008000000000D0127341A6
:1012400000003040002D31010038014080B400AF73
:10125000104B9B690F4A43F4804343F005039361AD
:101260000D4B4FF080625A600B4B5B680A4A23F0CB
:1012700004035360094B5B68084A43F090035360D2
:10128000064B5B68054A43F48063536000BFBD466C
:1012900080BC70470010024000000140000801407F
:1012A00080B400AF104B9B690F4A43F4804343F076
:1012B000090393610D4B4FF080625A600B4B5B68E2
:1012C0000A4A43F004035360094B1B68084A43F081
:1012D00020631360064B1B68054A43F0804313608C
:1012E00000BFBD4680BC70470010024000000140B6
:1012F000000C014080B400AF184B9B69174A43F0C3
:1013000005039361154BDB69144A43F40033D36141
:10131000134B4FF080625A60114B5B68104A23F008
:10132000080353600F4B1B680E4A43F4306313608D
:101330000C4B1B680B4A43F030031360094B1B68CE
:10134000084A43F480431360064B1B68054A43F088
:101350000403136000BFBD4680BC7047001002400C
:10136000000001400008014080B400AF174B9B69AA
:10137000164A43F009039361144BDB69134A43F4A3
:101380008023D361124B4FF080625A60104B5B6830
:101390000F4A23F0080353600E4B4FF430625A603B
:1013A0000C4B5B680B4A43F040735360094B5B681E
:1013B000084A43F480435360064B5B68054A43F494
:1013C0008003536000BFBD4680BC704700100240E0
:1013D00000000140000C014080B400AF0F4B1B68BF
:1013E00003F04003002B05D00C4B1B680B4A23F085
:1013F00040031360094B1B6803F02003002B09D046
:10140000064B1B68DAB2064B1A70044B5B68DAB203
:10141000044B1A7000BFBD4680BC704700380140C5
:10142000130000201400002080B400AF0D4B1B6897
:1014300003F04003002B05D00A4B1B68094A23F038
:1014400040031360074B1B6803F02003002B05D0FB
:10145000044B1B68034A23F02003136000BFBD4602
:1014600080BC70470044004080B582B000AF786017
:10147000FFF7ECFE184B0022DA607868FFF74CFEAD
:10148000154B4FF440521A61134BDB68124A23F498
:101490008053D360104B4022DA600F4BDB680E4A5A
:1014A00043F00C03D3600C4BDB680B4A43F008039A
:1014B000D360094BDB68084A43F4005343F004034C
:1014C000D36002212520FEF763FE2520FEF720FED3
:1014D00000BF0837BD4680BD0038014080B483B0EE
:1014E00000AF0346FB710E4AFB79536000BF0C4B03
:1014F0001B6803F08003002BF9D0094B1B68DAB29C
:10150000084B1A70064B5B68DAB2074B1A70044B33
:101510005B68DBB218460C37BD4680BC704700BF25
:1015200000380140130000201400002080B483B074
:1015300000AF78600B4A7B68536000BF094B1B68A3
:1015400003F08003002BF9D0064B1B68DAB2064B80
:101550001A70044B5B68DBB218460C37BD4680BC82
:10156000704700BF003801401300002090B589B0DB
:1015700000AF786007F108037968184602F0FCFCB8
:101580000023FB770AE0FB7F20333B4413F8183C31
:101590001846FFF7A3FFFB7F0133FB77FC7F7868DA
:1015A00002F04CFC034601339C42ECD300BF00BF69
:1015B0002437BD4690BD80B400AF104B5B68DAB2F3
:1015C0000F4B1A7000BF0D4B1B6803F00203002B7A
:1015D000F9D100BF094B1B6803F00403002BF9D1BC
:1015E00000BF064B1B6803F02003002BF9D0044B0F
:1015F0001B78DBB21846BD4680BC704700380140FE
:101600001400002080B400AF104B5B68DAB2104BBE
:101610001A7000BF0D4B1B6803F00203002BF9D1B9
:1016200000BF0A4B1B6803F00403002BF9D100BF75
:10163000064B1B6803F02003002BF9D0044B1B78EA
:10164000DBB21846BD4680BC704700BF0038014081
:101650001400002080B582B000AF7860FFF720FE54
:101660000E4B0022DA607868FFF756FD0B4B4FF403
:1016700040521A61094B6022DA60084BDB68074A66
:1016800043F00C03D360054BDB68044A43F400537A
:10169000D36000BF0837BD4680BD00BF00380140A1
:1016A00080B582B000AF0346FB71FB791846FFF7A7
:1016B00015FF034618460837BD4680BD80B582B089
:1016C00000AF78607868FFF751FF00BF0837BD466C
:1016D00080BD80B500AFFFF76EFF00BF80BD90B545
:1016E00087B000AF7860786802F0C4FF4FF0000266
:1016F000454B03F039F802460B4641A1D1E9000100
:1017000003F05CF902460B461046194603F03EFA18
:1017100003467B617B681B013C4AB2FBF3F318462E
:1017200003F03AFB03463B613969786903F082FABA
:1017300003464FF08341184602F0A6FD0346FB60C6
:10174000386903F081FB0346BB607B68B3F5E13F7A
:1017500044D07B68B3F5E13F4AD87B68B3F5614F6D
:1017600032D07B68B3F5614F42D87B68B3F5164F32
:1017700020D07B68B3F5164F3AD87B68B3F5165F77
:1017800004D07B68B3F5964F0AD031E0BB681C01EA
:10179000F86803F059FB03461D4A2344936028E090
:1017A000BB681C01F86803F04FFB0346184A23444A
:1017B00093601EE0BB681C01F86803F045FB03461C
:1017C000134A2344936014E0BB681C01F86803F0DB
:1017D0003BFB03460E4A234493600AE0BB681C01AE
:1017E000F86803F031FB0346094A2344936000E0A4
:1017F00000BF00BF1C37BD4690BD00BFAFF30080E7
:1018000000000000D012734100003040002D310173
:101810000044004080B582B000AF7860FFF76AFDF9
:101820007868FFF75CFF134B4FF440521A61114B7D
:101830000022DA600F4B5B690E4A23F4E0635361C8
:101840000C4BDB680B4A43F04003D360094B4FF469
:10185000E0625A61074BDB68064A43F00C03D36031
:10186000044BDB68034A43F40053D36000BF0837DE
:10187000BD4680BD0044004080B483B000AF034645
:10188000FB710B4AFB79536000BF094B1B6803F0E7
:101890008003002BF9D0064B1B68DAB2054B1A7097
:1018A000034B5B68DBB218460C37BD4680BC704703
:1018B000004400401300002080B400AF00BF124B72
:1018C0001B6803F02003002BF9D00F4B5B68DAB2E2
:1018D0000E4B1A7000BF0C4B1B6803F00203002B69
:1018E000F9D100BF084B1B6803F00403002BF9D1AA
:1018F000054B1B68DAB2064B1A70044B1B78DBB23F
:101900001846BD4680BC70470044004014000020CB
:101910001300002090B589B000AF786007F108038C
:101920007968184602F028FB2020FFF7A5FF002366
:10193000FB770AE0FB7F20333B4413F8183C184642
:10194000FFF79AFFFB7F0133FB77FC7F786802F09B
:1019500075FA034601339C42ECD300BF00BF243725
:10196000BD4690BD80B582B000AF0346FB71184BF9
:101970001B6803F40073002B06D0154B1B6803F49F
:101980000073002B11D100E000BF124BDB68114A3D
:1019900023F00203D360FFF78FFF03461846FFF7DB
:1019A0006BFF0C4B0222DA6000E000BF094B022201
:1019B000DA60FB791846FFF75FFF064BDB68054AE4
:1019C00023F00203D36000BF0837BD4680BD00BFCF
:1019D000004400400008014090B587B000AF786037
:1019E000786802F047FE4FF00002454B02F0BCFE63
:1019F00002460B4640A1D1E9000102F0DFFF02469A
:101A00000B461046194603F0C1F803467B617B681C
:101A10001B013C4AB2FBF3F3184603F0BDF9034641
:101A20003B613969786903F005F903464FF083415A
:101A3000184602F029FC0346FB60386903F004FAFB
:101A40000346BB607B68B3F5E13F44D07B68B3F5E8
:101A5000E13F4AD87B68B3F5614F32D07B68B3F57C
:101A6000614F42D87B68B3F5164F20D07B68B3F541
:101A7000164F3AD87B68B3F5165F04D07B68B3F590
:101A8000964F0AD031E0BB681C01F86803F0DCF91E
:101A900003461D4A2344936028E0BB681C01F86894
:101AA00003F0D2F90346184A234493601EE0BB6852
:101AB0001C01F86803F0C8F90346134A23449360F5
:101AC00014E0BB681C01F86803F0BEF903460E4A37
:101AD000234493600AE0BB681C01F86803F0B4F982
:101AE0000346094A2344936000E000BF00BF1C374F
:101AF000BD4690BDAFF3008000000000D0127341DE
:101B000000003040002D31010048004080B582B017
:101B100000AF7860FFF728FC7868FFF75DFF164B91
:101B20004FF440521A61144BDB68134A23F44353B9
:101B300023F02C03D360104B5B690F4A23F4E0635E
:101B400053610D4BDB680C4A43F0E003D3600A4B52
:101B50004FF4E0625A61084BDB68074A43F00C031C
:101B6000D360054BDB68044A43F40053D36000BFE5
:101B70000837BD4680BD00BF0048004080B483B038
:101B800000AF0346FB710B4AFB79536000BF094B62
:101B90001B6803F08003002BF9D0064B1B68DAB2F8
:101BA000054B1A70034B5B68DBB218460C37BD4619
:101BB00080BC7047004800401300002080B400AF94
:101BC00000BF124B1B6803F02003002BF9D00F4B12
:101BD0005B68DAB20E4B1A7000BF0C4B1B6803F047
:101BE0000203002BF9D100BF084B1B6803F004036C
:101BF000002BF9D1054B1B68DAB2064B1A70044B67
:101C00001B78DBB21846BD4680BC704700480040D8
:101C1000140000201300002090B589B000AF786058
:101C200007F108037968184602F0A6F92020FFF7AB
:101C3000A5FF0023FB770AE0FB7F20333B4413F82A
:101C4000183C1846FFF79AFFFB7F0133FB77FC7FB8
:101C5000786802F0F3F8034601339C42ECD300BFEE
:101C600000BF2437BD4690BD80B582B000AF0346AB
:101C7000FB7100BF0B4B1B6803F40073002BF9D002
:101C8000094B0222DA60FB791846FFF777FF064B13
:101C9000DB68054A23F00203D36000BF0837BD4666
:101CA00080BD00BF004800400008014080B500AF83
:101CB00000BF0B4B1B6803F40073002BF9D0094BDA
:101CC000DB68084A23F00203D360FFF777FF03467F
:101CD0001846FFF753FF034B0222DA6000BF80BDB6
:101CE000004800400008014080B582B000AF0346C4
:101CF000FB71184B1B6803F40073002B06D0154BC7
:101D00001B6803F40073002B11D100E000BF124BDD
:101D1000DB68114A23F00203D360FFF74FFF03464D
:101D20001846FFF72BFF0C4B0222DA6000E000BFE1
:101D3000094B0222DA60FB791846FFF71FFF064BBA
:101D4000DB68054A23F00203D36000BF0837BD46B5
:101D500080BD00BF004800400008014080B400AFD3
:101D6000064B0022DA60064B9B69054A23F4804348
:101D7000936100BFBD4680BC704700BF0038014082
:101D80000010024080B582B000AF7860FFF75EFAC5
:101D90007868FFF7C1F9214BDB68204A43F4005310
:101DA00043F00803D3601D4B5B691C4A43F080037A
:101DB00053611B4B1B681A4A23F480431360184B72
:101DC0001B68174A43F020031360154B1B68144A25
:101DD00043F080031360124B1B68114A23F0400349
:101DE00013600F4B1B680E4A43F0100313600C4B3B
:101DF0001B680B4A23F470631360094B1B68084A85
:101E000043F480531360064B1B68054A43F00E03EE
:101E1000136000BF0837BD4680BD00BF00380140D9
:101E20004400024080B582B000AF78603960124B48
:101E300000221A70114B124A9A60104A7B68D360D4
:101E40000E4A3B68536002210E20FEF7A1F90E20D6
:101E5000FEF75EF9094B1B68084A43F00103136063
:101E600000BF054B1B78DBB2002BFAD000BF00BFD0
:101E70000837BD4680BD00BF0F000020440002406F
:101E80000438014080B584B000AFF8600B467A603A
:101E90007B81FFF7DBF9F868FFF73EF92B4BDB6836
:101EA0002A4A43F4005343F00C03D360274B4022EB
:101EB0005A61274B274A9A60254A7B68D360244A97
:101EC0007B895360224B1B68214A23F480431360B3
:101ED0001F4B1B681E4A43F0200313601C4B1B68FA
:101EE0001B4A43F080031360194B1B68184A23F008
:101EF00040031360164B1B68154A23F01003136050
:101F0000134B1B68124A23F470631360104B1B6859
:101F10000F4A43F4005313600F4B00221A700C4B0E
:101F20001B680B4A43F00E031360094B1B68084AF9
:101F300043F00103136002210F20FEF729F90F205F
:101F4000FEF7E6F800BF1037BD4680BD00380140FF
:101F500058000240043801401000002080B582B0D3
:101F600000AF78600E4B1B78DBB2002B13D00C4B0C
:101F700000221A70786801F061FF034619467868FC
:101F8000FFF750FF786801F059FF03461A46002119
:101F9000786801F081FF7B6818460837BD4680BD30
:101FA0001000002080B582B000AF786039603B68D7
:101FB00078689847034618460837BD4680BD80B507
:101FC00000AF0A4BDB68094A23F40053D3600A20B0
:101FD000FEF784FB054BDB68044A43F40053D360EF
:101FE0000A20FEF77BFB00BF80BD00BF0010014050
:101FF00080B400AF0B4B9B690A4A43F4805343F013
:1020000005039361084B5B68074A43F00073536014
:10201000054B5B68044A23F00103536000BFBD46D3
:1020200080BC7047001002400000014080B400AF47
:10203000094B9B69084A43F4805343F00D039361B5
:10204000064B5B68054A43F0007343F0010353609D
:1020500000BFBD4680BC7047001002400000014038
:1020600080B400AF184BDB69174A43F48043D36157
:10207000154B9B69144A43F009039361134B5B684A
:10208000124A43F000735360104B5B680F4A23F011
:10209000010353600E4B4FF030425A600C4B5B68AB
:1020A0000B4A43F000635360094B5B68084A43F4F2
:1020B00030035360064B5B68054A43F4302353609A
:1020C00000BFBD4680BC70470010024000000140C8
:1020D000000C014080B400AF134B9B6803F0010378
:1020E000002B04D0104BDB68DAB2104B1A700E4B89
:1020F0009B6803F04003002B05D00B4B9B680A4AFA
:1021000023F040039360084B9B6803F02003002BEF
:1021100005D0054B9B68044A23F02003936000BF61
:10212000BD4680BC704700BF003001401A0000204F
:1021300080B400AF134B9B6803F00103002B04D065
:10214000104BDB68DAB2104B1A700E4B9B6803F031
:102150004003002B05D00B4B9B680A4A23F0400339
:102160009360084B9B6803F02003002B05D0054BC0
:102170009B68044A23F02003936000BFBD4680BCE7
:10218000704700BF003800401A00002080B582B0C0
:1021900000AF0346FB71194B00221A60174B002257
:1021A0005A60FFF725FF164B1B68154A43F038436A
:1021B00043F43B031360114AFB7913600F4B1B6818
:1021C0000E4A43F4417313600C4B1B680B4A23F017
:1021D00080031360094B64225A6002212320FDF71B
:1021E000D7FF2320FDF794FF044B1B68034A43F0FD
:1021F0004003136000BF0837BD4680BD003001407A
:102200000008014080B483B000AF0346FB710B4A65
:10221000FB79D36000BF094B9B6803F08003002B60
:10222000F9D1064BDB68DAB2054B1A70044B1B7808
:10223000DBB218460C37BD4680BC70470030014009
:102240001A00002080B584B000AF78600B467B8018
:102250000023FB7309E0FB7B7A6813441B78184664
:10226000FFF7D0FFFB7B0133FB73FB7B9BB27A88CC
:102270009A42F0D800BF00BF1037BD4680BD80B580
:1022800000AF2320FDF760FF034B1B68024A23F0D9
:102290004003136000BF80BD0030014080B582B0B4
:1022A00000AF0346FB71214B00221A601F4B002236
:1022B0005A601F4B00221A601E4B00225A60FFF723
:1022C000B5FE1B4B1B681A4A43F4380343F43043F2
:1022D0001360184B5B68174A43F030435360134B4D
:1022E0001A68FB79114913430B60104B1B680F4AA6
:1022F00043F4417313600D4B1B680C4A23F08003B9
:1023000013600A4B64225A6002212320FDF740FF2C
:102310002320FDF7FDFE054B1B68044A43F04003F4
:10232000136000BF0837BD4680BD00BF00300140CC
:10233000000C01400008014080B483B000AF0346A8
:10234000FB7100BF0E4B9B6803F00203002BF9D01A
:102350000B4AFB79D36000BF094B9B6803F08003F5
:10236000002BF9D1064BDB68DAB2064B1A70054B2D
:102370001B78DBB218460C37BD4680BC704700BFE7
:10238000003001401A00002080B584B000AF7860B2
:102390000B467B800023FB7309E0FB7B7A681344C8
:1023A0001B781846FFF7C8FFFB7B0133FB73FB7BF1
:1023B0009BB27A889A42F0D800BF00BF1037BD4662
:1023C00080BD80B500AFFFF75AFF00BF80BD80B56C
:1023D00082B000AF0346FB71FFF742FE114B0022B3
:1023E0001A60104B00225A600E4AFB7913600D4BA5
:1023F0001B680C4A43F4417313600A4B64225A6011
:1024000002212420FDF7C4FE2420FDF781FE054BA8
:102410001B68044A43F04003136000BF0837BD4601
:1024200080BD00BF0038004080B483B000AF0346D9
:10243000FB7100BF0E4B9B6803F00203002BF9D029
:102440000B4AFB79D36000BF094B9B6803F0800304
:10245000002BF9D1064BDB68DAB2064B1A70054B3C
:102460001B78DBB218460C37BD4680BC704700BFF6
:10247000003800401A00002080B584B000AF7860BA
:102480000B467B800023FB7309E0FB7B7A681344D7
:102490001B781846FFF7C8FFFB7B0133FB73FB7B00
:1024A0009BB27A889A42F0D800BF00BF1037BD4671
:1024B00080BD80B500AF2420FDF746FE034B1B68AE
:1024C000024A23F04003136000BF80BD0038004083
:1024D00080B582B000AF0346FB71FFF7C1FD294B09
:1024E00000221A60274B00225A60264AFB791360AB
:1024F000244B1B68234A43F441731360214B1B6830
:10250000204A43F0400313601E4B5B681D4A43F0B2
:10251000020353601C4B1B681B4A23F48043136067
:10252000194B1B68184A43F020031360164B1B68B5
:10253000154A43F080031360134B1B68124A23F0C3
:1025400040031360104B1B680F4A43F010031360E5
:102550000D4B1B680C4A23F4706313600A4B1B6815
:10256000094A43F480531360074B1B68064A43F043
:102570000E031360054B00221A7000BF0837BD46DA
:1025800080BD00BF0038004058000240100000200D
:1025900080B582B000AF78600B467B80144B154A43
:1025A0009A60134A7B68D360114A7B885360124B50
:1025B00000221A7002210F20FDF7EAFD0F20FDF71F
:1025C000A7FD0E4B1B680D4A43F040031360084BF8
:1025D0001B68074A43F00103136000BF064B1B78DA
:1025E000DBB2012BFAD000BF00BF0837BD4680BD6B
:1025F000580002400C380040100000200038004015
:1026000080B584B000AFF860B9601346FB80254AFE
:10261000FB681360244B254A9A60234ABB68D36049
:10262000214AFB885360204B1B681F4A43F020035C
:1026300013601D4B1B681C4A43F0800313601A4B48
:102640001B68194A23F040031360174B1B68164A96
:1026500023F010031360144B1B68134A23F4A06388
:102660001360114B1B68104A43F4805313600D4BE9
:102670005B680C4A43F0010353600B4B1B680A4A2A
:1026800043F00203136002210E20FDF781FD0E20AE
:10269000FDF73EFD064B01221A6000BF1037BD4614
:1026A00080BD00BF00380040440002400C380040AC
:1026B0005800024080B582B000AF03463960FB711C
:1026C000FA793B681046984700BF0837BD4680BD81
:1026D00080B500AF094BDB68084A23F40053D36090
:1026E0000220FDF78BFF054BDB68044A43F40053DF
:1026F000D3600220FDF782FF00BF80BD00100140C3
:1027000080B582B000AF0346FB710D210320FDF7B9
:1027100069FDFB791846FFF75AFE0020FFF784FE9B
:10272000FFF7D6FF0520FDF7D9FF00BF0837BD46EC
:1027300080BD80B483B000AF0346FB71FB7923F00A
:102740000F03DAB2054B1A70FB791B01DAB2044BA6
:102750001A7000BF0C37BD4680BC704724000020B3
:102760002300002080B582B000AF03460A46FB710B
:102770001346BB71FB791846FFF7DBFF154B1B783F
:102780001846FFF751FEFFF7A3FF124B1A78BB79EB
:102790001343DBB21846FFF747FEFFF799FF02200D
:1027A000FDF79CFF0C4B1B781846FFF73DFEFFF72B
:1027B0008FFF094B1A78BB791343DBB21846FFF73A
:1027C00033FEFFF785FF0220FDF788FF00BF0837C3
:1027D000BD4680BD240000202300002080B582B0CB
:1027E00000AF03460A46FB711346BB71FB79042117
:1027F0001846FFF7B7FFBB7904211846FFF7B2FF71
:1028000000BF0837BD4680BD80B582B000AF03462B
:102810000A46FB711346BB71FB7963F07F03DBB2A1
:1028200004211846FFF79EFFBB7904211846FFF7E5
:1028300099FF00BF0837BD4680BD80B582B000AFAC
:102840000346FB71FB7907211846FFF78BFF00BF9A
:102850000837BD4680BD80B582B000AF0346FB712E
:10286000FB791846FFF765FF0F4B1B781846FFF7FB
:10287000DBFDFFF72DFF0C4B1B7843F00403DBB2AD
:102880001846FFF7D1FDFFF723FF0220FDF726FFD3
:102890000020FFF7C9FDFFF71BFF0220FDF71EFF19
:1028A00000BF0837BD4680BD2400002080B582B03F
:1028B00000AF0346FB71FB7904211846FFF752FF76
:1028C00000BF0837BD4680BD80B582B000AF03466B
:1028D000FB71FB7905211846FFF744FF00BF08375D
:1028E000BD4680BD80B500AF0520FDF7F7FE302066
:1028F000FFF7B1FF0520FDF7F1FE3020FFF7ABFF3A
:102900000220FDF7EBFE3020FFF7A5FF0220FDF7C8
:10291000E5FE2020FFF79FFF0820FFF7C7FF0120FB
:10292000FFF7C4FF0620FFF7C1FF0F20FFF7BEFF30
:102930002820FFF7BBFF0220FFF7B8FF0120FFF7B9
:10294000B5FF0C20FFF7B2FF00BF80BD80B582B09D
:1029500000AF0346FB80FB88DBB21846FFF7B4FFED
:102960000C20FFF7A3FF00BF0837BD4680BD90B520
:102970008BB000AF786007F108031E2200211846D3
:1029800001F08AFA07F108037968184601F0F4FAB1
:102990000120FFF78BFF002387F827300DE097F821
:1029A000273028333B4413F8203C1846FFF7CEFF6E
:1029B00097F82730013387F8273097F82740786851
:1029C00001F03CFA03469C42E9D300BF00BF2C371C
:1029D000BD4690BD90B58BB000AF786007F108039D
:1029E0001E220021184601F057FA07F10803796802
:1029F000184601F0C1FA002387F827300DE097F858
:102A0000273028333B4413F8203C1846FFF79EFF3D
:102A100097F82730013387F8273097F827407868F0
:102A200001F00CFA03469C42E9D300BF00BF2C37EB
:102A3000BD4690BD80B582B000AF786039607868DF
:102A4000FFF795FFC020FFF731FF3868FFF7C2FF9F
:102A500000BF0837BD4680BD80B500AF0020FFF73E
:102A6000E3FCFFF735FE0220FDF738FE0A4BDB687A
:102A7000094A23F40053D3600220FDF72FFE064BD2
:102A8000DB68054A43F40053D3600220FDF726FEBD
:102A9000FFF797FC00BF80BD0010014080B582B0F9
:102AA00000AF0346FB71FB79002B08D0012B0ED140
:102AB000094B02221A610220FDF710FE08E0064BC6
:102AC0004FF400321A610220FDF708FE00E000BF5B
:102AD00000BF0837BD4680BD000C014080B584B002
:102AE00000AF03463960FB711346BB71FB793B7243
:102AF0003B681B0EDBB27B723B681B0CDBB2BB720C
:102B00003B681B0ADBB2FB723B68DBB23B73BB79F1
:102B10007B73FF23BB73FF23FB7307F108030821BB
:102B2000184600F0DFFC00BF1037BD4680BD80B501
:102B300082B000AF3A601A460346FB710B46BB7188
:102B400013467B71314B4FF480321A61304B40F6A3
:102B5000FE721A80FB791846FFF766FC3B681B0E75
:102B6000DBB21846FFF760FC3B681B0CDBB2184673
:102B7000FFF75AFC3B681B0ADBB21846FFF754FC10
:102B80003B68DBB21846FFF74FFC7B791846FFF72E
:102B90004BFCFF20FFF748FCFF20FFF745FC0346F6
:102BA0001A461C4B1A701B4B1B78BA799A4226D0D6
:102BB000174B1B88013B9AB2154B1A800420FDF776
:102BC0008DFD134B1B88002BC4D1EE20FEF786FC35
:102BD000104B1B781846FEF781FCFB791846FEF770
:102BE0007DFC0D4B1B680C4A23F040031360074B20
:102BF00001221A610020FFF751FF002302E000BF0D
:102C0000044B1B7818460837BD4680BD000C0140B8
:102C100042020020400200200038004080B584B00D
:102C200000AF0346FB80194B03221A60174B1B6849
:102C3000164A43F030031360FB88DBB21846FFF7F7
:102C4000C6FB0220FDF74AFD0120FFF727FF002306
:102C5000FB7305E0FF20FFF7E7FBFB7B0133FB7312
:102C6000FB7B092BF6D99523002201214020FFF799
:102C70005EFFFF20FFF7D8FBFF20FFF7D5FB034BDC
:102C800001221A6100BF1037BD4680BD000C014013
:102C900080B582B000AF87234FF4D5720121482060
:102CA000FFF745FF0023FB7109E0FF20FFF7BCFBA6
:102CB00003461A460A4B1A70FB790133FB71FB7904
:102CC000032BF2D9FF20FFF7AFFBFF20FFF7ACFB90
:102CD000044B01221A6100BF0837BD4680BD00BF0A
:102CE00040020020000C014080B500AF9523002277
:102CF00005216720FFF71BFFFF20FFF795FBFF2053
:102D0000FFF792FB124B01221A6195234FF080428C
:102D100001216920FFF70BFFFF20FFF785FBFF2054
:102D2000FFF782FB0A4B01221A6195234FF0804284
:102D300000216920FFF7FBFEFF20FFF775FBFF2056
:102D4000FFF772FB024B01221A6100BF80BD00BF7A
:102D5000000C014080B582B000AF95230022042111
:102D60007220FFF7E4FE0023FB710EE0FF20FFF767
:102D70005BFB03461A460D4B1A700C4B1B7818462A
:102D8000FEF7ACFBFB790133FB71FB79032BEDD92B
:102D9000FF20FFF749FBFF20FFF746FB044B012212
:102DA0001A6100BF0837BD4680BD00BF4002002049
:102DB000000C014080B500AF114B00221A70952322
:102DC000002205216720FFF7B2FEFF20FFF72CFB52
:102DD000FF20FFF729FB0B4B01221A6195230022EC
:102DE00001214D20FFF7A3FEFF20FFF71DFBFF2071
:102DF000FFF71AFB034B01221A6100BF80BD00BF21
:102E000040020020000C014080B582B000AF952345
:102E1000002200214920FFF78AFE1023FB7113E0F6
:102E2000FF20FFF701FB03461A460F4B1A70FB7990
:102E30000D4A11780D4AD1540B4B1B781846FEF7FA
:102E40004DFBFB79013BFB71FB79002BE8D1FF20A7
:102E5000FFF7EAFAFF20FFF7E7FA054B01221A61B4
:102E600000BF0837BD4680BD400200203000002072
:102E7000000C014080B582B000AF0346FB71FA79C7
:102E8000952300217320FFF752FEFF20FFF7CCFAB5
:102E9000FF20FFF7C9FA034B01221A6100BF083770
:102EA000BD4680BD000C014080B584B000AF7860A5
:102EB0009523002200216720FFF739FEFF20FFF74E
:102EC000B3FAFF20FFF7B0FA124B01221A617B68B8
:102ED0005A02952300215720FFF729FE0023FB818A
:102EE00005E00C4B01221A61FB890133FB81FB8950
:102EF0004FF6FD729342F4D9FF20FFF795FAFF20B9
:102F0000FFF792FA034B01221A6100BF1037BD464A
:102F100080BD00BF000C014080B582B000AF95239A
:102F2000002200214D20FFF702FEFF20FFF77CFA70
:102F3000FF20FFF779FA0023FB8008E0084B01220D
:102F40001A610220FDF7CAFBFB880133FB80FB8876
:102F5000FE2BF3D9034B1B7818460837BD4680BDBE
:102F6000000C01404002002080B500AF95230022F4
:102F700001214C20FFF7DBFDFF20FFF755FAFF2072
:102F8000FFF752FA024B01221A6100BF80BD00BF59
:102F9000000C014080B582B000AF786039607B687A
:102FA0005A02952300216020FFF7C1FDFF20FFF7A3
:102FB0003BFAFF20FFF738FA124B01221A613B68F7
:102FC0005A02952300216120FFF7B1FDFF20FFF792
:102FD0002BFAFF20FFF728FA0A4B01221A619523EA
:102FE000002200216620FFF7A2FDFF20FFF71CFA58
:102FF000FF20FFF719FA034B01221A6100BF0837BF
:10300000BD4680BD000C014080B500AF074B1B687A
:10301000064A23F040031360054B4FF480321A61D7
:103020000020FFF73BFD00BF80BD00BF003800401F
:10303000000C014080B485B000AF78600B46FB7097
:103040007B681B0EFB737B681B0CBB737B681B0AC6
:103050007B737B683B73FB780C330B49FA7BCA5458
:10306000FB780D330849BA7BCA54FB780E33064906
:103070007A7BCA54FB780F3303493A7BCA5400BFAA
:103080001437BD4680BC70474000002080B485B036
:1030900000AF0346FB710023FB73FB792F2B8CBF22
:1030A00001230023DAB2FB79392B94BF01230023DB
:1030B000DBB21340DBB2002B02D0FB79303BFB7359
:1030C000FB79402B8CBF01230023DAB2FB79462B1E
:1030D00094BF01230023DBB21340DBB2002B02D0EC
:1030E000FB79313BFB73FB7B18461437BD4680BC34
:1030F000704780B584B000AF78607B681B78184655
:10310000FFF7C4FF0346FB737B6801331B78184647
:10311000FFF7BCFF0346BB737B6802331B7818467E
:10312000FFF7B4FF03467B737B6803331B781846B5
:10313000FFF7ACFF03463B73FB7B1A06BB7B1B040C
:103140001A437B7B1B021A433B7B13431846103701
:10315000BD4680BD80B584B000AF786040F2FF43CB
:10316000FB817B685A02952300215120FFF7DFFC89
:1031700003461A462E4B1A70FF20FFF755F90346F7
:103180001A462B4B1A702A4B1B78FE2B1BD0FB893F
:10319000013BFB81FB89002BEED1264B01221A61FA
:1031A000254B1B68244A23F040031360EE20FEF7F2
:1031B00095F91F4B1B781846FEF790F90020FFF792
:1031C0006DFC1E4B30E000BF0023BB810EE0FF20F2
:1031D000FFF72AF903461A46154B1A70BB89144AA1
:1031E0001178164AD154BB890133BB81BB89B3F531
:1031F000007FECD300237B8105E00E4B01221A6196
:103200007B8901337B817B894FF6FD729342F4D930
:10321000FF20FFF709F9FF20FFF706F9FFF77CFE13
:10322000044B01221A61054B18461037BD4680BD7C
:1032300040020020000C0140003800404000002007
:1032400080B584B000AF78600B467B8013463B802E
:1032500040F2FF43FB814FF40072FF21394800F038
:103260001BFE7B685A02952300215120FFF75FFC6B
:1032700003461A46344B1A70FF20FFF7D5F8034671
:103280001A46314B1A70304B1B78FE2B1AD0FB8933
:10329000013BFB81FB89002BEED12C4B01221A61F3
:1032A0002B4B1B682A4A23F040031360EE20FEF7E5
:1032B00015F9254B1B781846FEF710F90020FFF78B
:1032C000EDFB00E000BF0023BB8120E0FF20FFF703
:1032D000ABF803461A461C4B1A70BA897B889A428F
:1032E0002CBF01230023DAB2B9893B88994294BFED
:1032F00001230023DBB21340DBB2002B04D0BB89D7
:10330000114A11780F4AD154BB890133BB81BB8963
:10331000B3F5007FDAD3FF20FFF786F8FF20FFF731
:1033200083F8FFF7F9FD094B01221A613A887B887F
:10333000D31A19460348FEF775FD00BF1037BD4686
:1033400080BD00BF4000002040020020000C014072
:103350000038004080B584B000AF78600B467B80B9
:1033600013463B8040F2FF43FB814FF40072FF2184
:10337000384800F091FD7B685A02952300215120C6
:10338000FFF7D5FB03461A46334B1A70FF20FFF7B1
:103390004BF803461A46304B1A702F4B1B78FE2B06
:1033A0001BD0FB89013BFB81FB89002BEED12B4B12
:1033B00001221A612A4B1B68294A23F0400313603B
:1033C000EE20FEF78BF8244B1B781846FEF786F8A4
:1033D0000020FFF763FB002337E000BF0023BB8121
:1033E0001CE0FF20FFF720F803461A461A4B1A701C
:1033F000BA897B889A4209D3BA893B889A4205D810
:10340000BB89154A1178134AD15404E0BB89124A8A
:103410001178104AD154BB890133BB81BB89B3F504
:10342000007FDED3FF20FEF7FFFFFF20FEF7FCFF4B
:10343000FFF772FD094B01221A613A887B88D31A83
:1034400019460448FEF7EEFC002318461037BD4627
:1034500080BD00BF4000002040020020000C014061
:103460000038004080B5ADF5047D00AF07F504736A
:10347000A3F50373186007F50473A3F503731B68C2
:103480005A02952300215120FFF751FB03461A46AB
:10349000124B1A7007F10C0340F202221946282041
:1034A000FFF7AEF80023A7F80E320BE0B7F80E32A4
:1034B0000B4AD35C1846FEF711F8B7F80E32013309
:1034C000A7F80E32B7F80E3240F201229342EDD93E
:1034D00000BF00BF07F50477BD4680BD4002002055
:1034E0001C00002080B582B000AF78600B467B8066
:1034F0007B8819467868FFF74BF800BF0837BD4650
:1035000080BD80B584B000AF786040F2FF43FB819E
:103510007B685A02952300215820FFF708FBFE2004
:10352000FEF782FF03461A46264B1A700023BB8122
:1035300005E0FF20FEF778FFBB890133BB81BB8923
:10354000B3F5007FF5D3FF20FEF76EFFFF20FEF7F7
:103550006BFFFF20FEF768FF03461A46194B1A70EF
:10356000184B1B78052B06D0FB89013BFB81FB899F
:10357000002BEED100E000BF00237B8105E0124B61
:1035800001221A617B8901337B817B894FF6FD72B1
:103590009342F4D9FF20FEF747FFFF20FEF744FFD8
:1035A000FFF7BAFC084B01221A61FF20FEF73CFF2F
:1035B000FF20FEF739FF5020FDF790F800BF1037CD
:1035C000BD4680BD40020020000C014090B5ADF525
:1035D000077D00AF07F50673A3F50573186007F5BF
:1035E0000673A3F50673196007F10C034FF400721C
:1035F000FF21184600F050FC07F50673A3F506738B
:1036000007F10C021968104600F0B6FC0023A7F879
:10361000163240F2FF23A7F814320023A7F8123223
:1036200019E0B7F8163207F50672A2F506721268AD
:103630001A44B7F81232117807F50672A2F5037230
:10364000D154B7F816320133A7F81632B7F8123250
:103650000133A7F81232B7F8124207F50673A3F543
:103660000673186800F0EAFB03469C42D9D307F5BD
:103670000673A3F505731B685A0295230021582091
:10368000FFF755FAFE20FEF7CFFE03461A462E4BF3
:103690001A700023A7F810320EE0B7F8103207F5C1
:1036A0000672A2F50372D35C1846FEF7BDFEB7F8AA
:1036B00010320133A7F81032B7F81032B3F5007F9B
:1036C000EBD3FF20FEF7B0FEFF20FEF7ADFEFF209C
:1036D000FEF7AAFE03461A461B4B1A701A4B1B78BC
:1036E000052B09D0B7F81432013BA7F81432B7F80C
:1036F0001432002BEBD100E000BF0023A7F80E32FC
:1037000007E0124B01221A61B7F80E320133A7F815
:103710000E32B7F80E324FF6FD729342F1D9FF2008
:10372000FEF782FEFF20FEF77FFEFFF7F5FB074B5B
:1037300001221A6142F21070FCF7D0FF00BF07F5BA
:103740000777BD4690BD00BF40020020000C01403D
:1037500090B589B000AFF860B9607A607B800023D3
:10376000FB8340F2FF43BB83F868FFF7F3FCB868C4
:1037700000F064FB03460B2B1CD8B86800F05EFB1E
:103780000346DBB2C3F10C03FB740023FB760DE0B0
:10379000B86800F053FB02467B881A44FB7E134452
:1037A0003C4AFF21D154FB7E0133FB76FA7EFB7C41
:1037B0009A42EDD37B883B830CE0FB8BBA681A44BA
:1037C0003B8B1178334AD154FB8B0133FB833B8B0A
:1037D00001333B833C8BB86800F030FB02467B88AA
:1037E00013449C42E9D37B88DBB219467868FFF723
:1037F00021FCFB685A02952300215820FFF797F916
:10380000FE20FEF711FE0023FB8208E0FB8A214A1E
:10381000D35C1846FEF708FEFB8A0133FB82FB8A65
:10382000B3F5007FF2D3FF20FEF7FEFDFF20FEF789
:10383000FBFDFF20FEF7F8FD03461A46164B1A70F3
:10384000154B1B78052B06D0BB8B013BBB83BB8B79
:10385000002BEED100E000BF0023BB8205E00F4B40
:1038600001221A61BB8A0133BB82BB8A4FF6FD720B
:103870009342F4D9FFF750FB084B01221A61FF2055
:10388000FEF7D2FDFF20FEF7CFFD00BF2437BD4677
:1038900090BD00BF4000002040020020000C01400D
:1038A00080B487B000AFF860B9601346FB80002396
:1038B000FB820023BB8220E0BB8AFA6813441A789B
:1038C000BB8AB9680B441B789A4207D00023FB825D
:1038D00000BF0023FB82FB8ADBB214E0BB8AFA68DC
:1038E00013441A78BB8AB9680B441B789A4201D1F9
:1038F0000123FB82BB8A0133BB82BA8AFB889A42CE
:10390000DAD3FB8ADBB218461C37BD4680BC704751
:103910002DE9F04389B000AF786039606B461E46F0
:103920000023FB8300233B83386800F087FA0346BB
:10393000FB82F98A0B46013B3B618BB20022984621
:1039400091464FF000024FF000034FEAC90343EAEB
:1039500058734FEAC8028BB200221C4615464FF03E
:1039600000024FF00003EB0043EA5473E2000B4601
:103970000733DB08DB00ADEB030D6B46FB607868BB
:10398000FFF7E8FBFB8A1A46FF21F86800F084FA8B
:103990000023BB8335E000237B8329E07B8B3A68DF
:1039A00013441A78B98B7B8B0B442749CB5C9A4222
:1039B0000AD1BA8B7B8B1A447B8B2349895CFA68CA
:1039C000D154FB8B0133FB837B8B3A6813441A7809
:1039D000B98B7B8B0B441C49CB5C9A4201D00023F2
:1039E000FB83FA8BFB8A9A4210D07B8B01337B835B
:1039F0007A8BFB8A9A42D1D30023FB83BB8B0133A2
:103A0000BB83BB8BB3F5007FC5D300E000BFFB8A4F
:103A10001A463968F868FFF743FF03463B833B8B40
:103A2000012B04D1FB8A1946F868FEF7FBF93B8BA2
:103A3000002B02D10548FDF799FDB54600BF24379C
:103A4000BD46BDE8F08300BF40000020CC4E00081A
:103A500080B588B000AF7860786800F0EFF9034671
:103A60007B770023FB770BE0FB7F7A681A44FB7FB0
:103A7000127820333B4403F8142CFB7F0133FB778F
:103A8000FA7F7B7F043B9A42EEDB7B7F043BBB7774
:103A90000BE0BB7F7A681A44BB7F127820333B442B
:103AA00003F8082CBB7F0133BB77BB7F0B2BF0D90E
:103AB00007F118031846FFF71CFB024607F10C0339
:103AC00019461046FFF724FF00BF2037BD4680BDD2
:103AD00080B582B000AF7860094B1B78DBB2002B59
:103AE0000AD07868FFF705FB034606491846FFF73A
:103AF0000FFF034B00221A7000BF0837BD4680BD80
:103B000010000020D44E000880B500AF4FF0804375
:103B10001B6903F00203002B07D04FF080431B69A1
:103B20004FF0804223F0020313614FF080431B6982
:103B300003F00403002B0CD04FF080431B694FF0BF
:103B4000804223F0040313614FF080435B6A054A0F
:103B50001360054B9B68DBB21846FDF7BFFC00BF46
:103B600080BD00BF440200200008014080B500AFC6
:103B7000284B9B69274A43F004039361254BDB697B
:103B8000244A43F00103D36100210420FCF7E6FB43
:103B90004FF080431B684FF0804223F00103136015
:103BA0004FF0804347229A624FF0804340F2E73261
:103BB000DA624FF080439B694FF0804243F001038B
:103BC00093614FF080431B6A4FF0804243F0020341
:103BD00013624FF080431B6A4FF0804243F00103B1
:103BE00013624FF08043DB684FF0804243F00203E2
:103BF000D3601C20FCF78CFA01211C20FCF7C8FACA
:103C00004FF080431B684FF0804243F00103136084
:103C100000BF80BD0010024080B500AF4FF0804370
:103C200000225A624FF0804300221A604FF0804316
:103C300000229A614FF0804300221A62304BB0227A
:103C40001A604FF0804313229A624FF0804340F293
:103C5000E732DA624FF080434FF4C8729A634FF054
:103C6000804300225A624FF0804384221A604FF052
:103C700080434FF080421B681360224B1B68214A2F
:103C800023F01E0313604FF080439B694FF0804286
:103C900023F4407393614FF080439B694FF080425F
:103CA00043F4405393614FF080431B6A4FF08042CE
:103CB00023F0200313624FF080431B6A4FF08042D1
:103CC00043F0100313624FF080439B694FF0804232
:103CD00043F4006393614FF080430422DA601C20B8
:103CE000FCF716FA01211C20FCF752FA4FF0804332
:103CF0001B684FF0804243F00103136000BF80BD9A
:103D000000080140002C014080B582B000AF03469E
:103D1000FB71094AFB791370074B2F225A70064931
:103D2000064800F029F90549034800F005F9024B5F
:103D300018460837BD4680BDC8020020500200204A
:103D400080B400AF184B00225A60174B00221A6053
:103D5000164B00225A60154B00221A60144B0022A9
:103D60005A60134B00221A600F4B0022DA600E4B90
:103D700000229A600F4B00225A600E4B00229A607C
:103D80000C4B0022DA620B4B00221A63094B002213
:103D90005A63084B0022DA60064B00221A6100BF0A
:103DA000BD4680BC704700BF0010014000080140C4
:103DB000000C01400024014080B500AFFFF7C0FFB8
:103DC000FCF79CFDFCF710FF154B01225A61144BC8
:103DD00044F20C029A61124B0422DA61FCF742FCB5
:103DE00041F28830FCF77AFC4FF49640FDF73CFB3B
:103DF0000C4A04214FF49640FEF744F84FF49640E5
:103E0000FDF7C0FF3020FEF709FFFEF741FFFEF788
:103E10006BFF1820FEF7DBFA0248FFF759FEFBE7BD
:103E200000100240C8020020E44E000800000020FC
:103E30000400002004000020D002002020F0030134
:103E400010F00300C0F1000051F8043B00F1040C35
:103E50004FEACC0C6FF000021CBF22FA0CF21343A5
:103E60004FF0010C4CEA0C2C4CEA0C4CA3EB0C026E
:103E700022EA030212EACC1204BF51F8043B0430D8
:103E8000F4D0C2F1000102EA0102B2FA82F2C2F1F8
:103E90001F0200EBD200704770B5860747D0541E52
:103EA000002A3ED00346CAB201E0013C39D303F8F0
:103EB000012B9D07F9D1032C2CD9CDB205EB05259B
:103EC0000F2C1A4605EB054534D9A4F1100C2CF043
:103ED0000F0603F1100EB6444FEA1C1CC2E9005550
:103EE000C2E9025510327245F8D10CF1010214F00A
:103EF0000C0F03EB021204F00F0C13D0ACF104030F
:103F000023F003030433134442F8045B9342FBD1D0
:103F10000CF003042CB1C9B21C4403F8011BA342EA
:103F2000FBD170BD64461346002CF4D1F9E703467B
:103F30001446C0E7A446E1E7830710B5044610D154
:103F40000268A2F1013323EA020313F0803F08D193
:103F500050F8042FA2F1013323EA020313F0803F4B
:103F6000F6D003781BB110F8013F002BFBD100F015
:103F700003F8204610BD00BF80EA0102844612F01B
:103F8000030F4FD111F0030F32D14DF8044D11F052
:103F9000040F51F8043B0BD0A3F101329A4312F005
:103FA000803F04BF4CF8043B51F8043B16D100BFDE
:103FB00051F8044BA3F101329A4312F0803FA4F16F
:103FC00001320BD14CF8043BA24312F0803F04BFF6
:103FD00051F8043B4CF8044BEAD023460CF8013B63
:103FE00013F0FF0F4FEA3323F8D15DF8044B70470D
:103FF00011F0010F06D011F8012B0CF8012B002A4B
:1040000008BF704711F0020FBFD031F8022B12F039
:10401000FF0F16BF2CF8022B8CF8002012F47F4FF4
:10402000B3D1704711F8012B0CF8012B002AF9D1FC
:10403000704700BF70B54FF0FF0C4CF4E06C1CEA09
:1040400011541DBF1CEA135594EA0C0F95EA0C0F8E
:1040500000F0DEF82C4481EA030621EA4C5123EA01
:104060004C5350EA013518BF52EA033541F4801130
:1040700043F4801338D0A0FB02CE4FF00005E1FBE3
:1040800002E506F00042E0FB03E54FF00006E1FB2D
:1040900003569CF0000F18BF4EF0010EA4F1FF0470
:1040A000B6F5007F64F5407404D25FEA4E0E6D41B0
:1040B00046EB060642EAC62141EA55514FEAC520C1
:1040C00040EA5E504FEACE2EB4F1FD0C88BFBCF53D
:1040D000E06F1ED8BEF1004F08BF5FEA500E50F1EE
:1040E000000041EB045170BD06F0004646EA0101B4
:1040F00040EA020081EA0301B4EB5C04C2BFD4EBE6
:104100000C0541EA045170BD41F480114FF0000EDE
:10411000013C00F3AB8014F1360FDEBF002001F04C
:10412000004170BDC4F10004203C35DA0C341BDCC6
:1041300004F11404C4F1200500FA05F320FA04F098
:1041400001FA05F240EA020001F0004221F00041CC
:1041500010EBD37021FA04F642EB06015EEA430E3F
:1041600008BF20EAD37070BDC4F10C04C4F120056F
:1041700000FA04F320FA05F001FA04F240EA020022
:1041800001F0004110EBD37041F100015EEA430EF3
:1041900008BF20EAD37070BDC4F1200500FA05F213
:1041A0004EEA020E20FA04F301FA05F243EA020392
:1041B00021FA04F001F0004121FA04F220EA0200A1
:1041C00000EBD3705EEA430E08BF20EAD37070BDE7
:1041D00094F0000F0FD101F00046400041EB0101C7
:1041E00011F4801F08BF013CF7D041EA060195F0A9
:1041F000000F18BF704703F00046520043EB030363
:1042000013F4801F08BF013DF7D043EA060370474F
:1042100094EA0C0F0CEA135518BF95EA0C0F0CD05A
:1042200050EA410618BF52EA4306D1D181EA0301A0
:1042300001F000414FF0000070BD50EA410606BF9A
:104240001046194652EA430619D094EA0C0F02D1DF
:1042500050EA013613D195EA0C0F05D152EA033624
:104260001CBF104619460AD181EA030101F0004142
:1042700041F0FE4141F470014FF0000070BD41F08B
:10428000FE4141F4780170BD4FF0FF0C1CEAD052A2
:104290001EBF1CEAD15392EA0C0F93EA0C0F6FD0A9
:1042A0001A4480EA010C400218BF5FEA41211ED087
:1042B0004FF0006343EA501043EA5111A0FB013173
:1042C0000CF00040B1F5000F3EBF490041EAD37148
:1042D0005B0040EA010062F17F02FD2A1DD8B3F1C4
:1042E000004F40EBC25008BF20F00100704790F033
:1042F000000F0CF0004C08BF49024CEA502040EA85
:1043000051207F3AC2BFD2F1FF0340EAC25070474A
:1043100040F400004FF00003013A5DDC12F1190F88
:10432000DCBF00F000407047C2F10002410021FAFA
:1043300002F1C2F1200200FA02FC5FEA310040F112
:10434000000053EA4C0308BF20EADC70704792F08B
:10435000000F00F0004C02BF400010F4000F013AC3
:10436000F9D040EA0C0093F0000F01F0004C02BFBE
:10437000490011F4000F013BF9D041EA0C018FE72D
:104380000CEAD15392EA0C0F18BF93EA0C0F0AD033
:1043900030F0004C18BF31F0004CD8D180EA010059
:1043A00000F00040704790F0000F17BF90F0004FF2
:1043B000084691F0000F91F0004F14D092EA0C0FD4
:1043C00001D142020FD193EA0C0F03D14B0218BF67
:1043D000084608D180EA010000F0004040F0FE40AD
:1043E00040F40000704740F0FE4040F44000704749
:1043F00081F0004102E000BF83F0004330B54FEA96
:1044000041044FEA430594EA050F08BF90EA020F02
:104410001FBF54EA000C55EA020C7FEA645C7FEA95
:10442000655C00F0E2804FEA5454D4EB5555B8BFB8
:104430006D420CDD2C4480EA020281EA030382EA29
:10444000000083EA010180EA020281EA0303362DBB
:1044500088BF30BD11F0004F4FEA01314FF4801C8E
:104460004CEA113102D0404261EB410113F0004FA0
:104470004FEA03334CEA133302D0524263EB430357
:1044800094EA050F00F0A780A4F10104D5F1200EF5
:104490000DDB02FA0EFC22FA05F2801841F1000150
:1044A00003FA0EF2801843FA05F359410EE0A5F124
:1044B00020050EF1200E012A03FA0EFC28BF4CF055
:1044C000020C43FA05F3C01851EBE37101F000450B
:1044D00007D54FF0000EDCF1000C7EEB00006EEB18
:1044E0000101B1F5801F1BD3B1F5001F0CD34908A2
:1044F0005FEA30004FEA3C0C04F101044FEA4452F9
:1045000012F5800F80F09A80BCF1004F08BF5FEA7F
:10451000500C50F1000041EB045141EA050130BD5F
:104520005FEA4C0C404141EB0101013C28BFB1F571
:10453000801FE9D291F0000F04BF01460020B1FABC
:1045400081F308BF2033A3F10B03B3F120020CDA8F
:104550000C3208DD02F1140CC2F10C0201FA0CF06D
:1045600021FA02F10CE002F11402D8BFC2F1200CD2
:1045700001FA02F120FA0CFCDCBF41EA0C01904088
:10458000E41AA2BF01EB0451294330BD6FEA0404D1
:104590001F3C1CDA0C340EDC04F11404C4F12002BC
:1045A00020FA04F001FA02F340EA030021FA04F3CE
:1045B00045EA030130BDC4F10C04C4F1200220FA25
:1045C00002F001FA04F340EA0300294630BD21FA63
:1045D00004F0294630BD94F0000F83F4801306BF29
:1045E00081F480110134013D4EE77FEA645C18BF1D
:1045F0007FEA655C29D094EA050F08BF90EA020FB4
:1046000005D054EA000C04BF1946104630BD91EAAB
:10461000030F1EBF0021002030BD5FEA545C05D1AE
:104620004000494128BF41F0004130BD14F58004ED
:104630003CBF01F5801130BD01F0004545F0FE4161
:1046400041F470014FF0000030BD7FEA645C1ABF96
:10465000194610467FEA655C1CBF0B46024650EACD
:10466000013406BF52EA033591EA030F41F40021F9
:1046700030BD00BF90F0000F04BF0021704730B57F
:104680004FF4806404F132044FF000054FF0000154
:1046900050E700BF90F0000F04BF0021704730B515
:1046A0004FF4806404F1320410F0004548BF4042EA
:1046B0004FF000013EE700BF42004FEAE2014FEA3F
:1046C00031014FEA02701FBF12F07F4393F07F4F1A
:1046D00081F06051704732F07F4208BF704793F01D
:1046E0007F4F04BF41F40021704730B54FF4607430
:1046F00001F0004521F000411CE700BF50EA010233
:1047000008BF704730B54FF000050AE050EA0102DB
:1047100008BF704730B511F0004502D5404261EB4B
:1047200041014FF4806404F132045FEA915C3FF48C
:10473000D8AE4FF003025FEADC0C18BF03325FEA29
:10474000DC0C18BF033202EBDC02C2F1200300FADA
:1047500003FC20FA02F001FA03FE40EA0E0021FAFF
:1047600002F11444BDE600BF70B54FF0FF0C4CF4ED
:10477000E06C1CEA11541DBF1CEA135594EA0C0F9F
:1047800095EA0C0F00F0DEF82C4481EA030621EADA
:104790004C5123EA4C5350EA013518BF52EA033515
:1047A00041F4801143F4801338D0A0FB02CE4FF0C7
:1047B0000005E1FB02E506F00042E0FB03E54FF0F7
:1047C0000006E1FB03569CF0000F18BF4EF0010EEF
:1047D000A4F1FF04B6F5007F64F5407404D25FEAEB
:1047E0004E0E6D4146EB060642EAC62141EA55519E
:1047F0004FEAC52040EA5E504FEACE2EB4F1FD0CE0
:1048000088BFBCF5E06F1ED8BEF1004F08BF5FEA5D
:10481000500E50F1000041EB045170BD06F000460F
:1048200046EA010140EA020081EA0301B4EB5C04BC
:10483000C2BFD4EB0C0541EA045170BD41F48011B4
:104840004FF0000E013C00F3AB8014F1360FDEBFD9
:10485000002001F0004170BDC4F10004203C35DAB5
:104860000C341BDC04F11404C4F1200500FA05F338
:1048700020FA04F001FA05F240EA020001F00042D9
:1048800021F0004110EBD37021FA04F642EB06014F
:104890005EEA430E08BF20EAD37070BDC4F10C0479
:1048A000C4F1200500FA04F320FA05F001FA04F23D
:1048B00040EA020001F0004110EBD37041F1000129
:1048C0005EEA430E08BF20EAD37070BDC4F1200534
:1048D00000FA05F24EEA020E20FA04F301FA05F29C
:1048E00043EA020321FA04F001F0004121FA04F244
:1048F00020EA020000EBD3705EEA430E08BF20EA14
:10490000D37070BD94F0000F0FD101F0004640004D
:1049100041EB010111F4801F08BF013CF7D041EACF
:10492000060195F0000F18BF704703F000465200D3
:1049300043EB030313F4801F08BF013DF7D043EAA4
:104940000603704794EA0C0F0CEA135518BF95EA5A
:104950000C0F0CD050EA410618BF52EA4306D1D1E1
:1049600081EA030101F000414FF0000070BD50EA00
:10497000410606BF1046194652EA430619D094EA8A
:104980000C0F02D150EA013613D195EA0C0F05D174
:1049900052EA03361CBF104619460AD181EA0301C8
:1049A00001F0004141F0FE4141F470014FF0000080
:1049B00070BD41F0FE4141F4780170BD70B54FF01B
:1049C000FF0C4CF4E06C1CEA11541DBF1CEA13559B
:1049D00094EA0C0F95EA0C0F00F0A7F8A4EB05047D
:1049E00081EA030E52EA03354FEA013100F0888074
:1049F0004FEA03334FF0805545EA131343EA12633D
:104A00004FEA022245EA111545EA10654FEA0026F1
:104A10000EF000419D4208BF964244F1FD0404F5AA
:104A2000407402D25B084FEA3202B61A65EB030506
:104A30005B084FEA32024FF480104FF4002CB6EBC3
:104A4000020E75EB030E22BFB61A754640EA0C0043
:104A50005B084FEA3202B6EB020E75EB030E22BF83
:104A6000B61A754640EA5C005B084FEA3202B6EBC4
:104A7000020E75EB030E22BFB61A754640EA9C0083
:104A80005B084FEA3202B6EB020E75EB030E22BF53
:104A9000B61A754640EADC0055EA060E18D04FEA11
:104AA000051545EA16754FEA06164FEAC30343EAB1
:104AB00052734FEAC2025FEA1C1CC0D111F4801F7E
:104AC0000BD141EA00014FF000004FF0004CB6E777
:104AD00011F4801F04BF01430020B4F1FD0C88BF16
:104AE000BCF5E06F3FF6AFAEB5EB030C04BFB6EB21
:104AF000020C5FEA500C50F1000041EB045170BD14
:104B00000EF0004E4EEA113114EB5C04C2BFD4EB40
:104B10000C0541EA045170BD41F480114FF0000EC4
:104B2000013C90E645EA060E8DE60CEA135594EA40
:104B30000C0F08BF95EA0C0F3FF43BAF94EA0C0F43
:104B40000AD150EA01347FF434AF95EA0C0F7FF4B8
:104B500025AF104619462CE795EA0C0F06D152EA0C
:104B600003353FF4FDAE1046194622E750EA4106F0
:104B700018BF52EA43067FF4C5AE50EA41047FF401
:104B80000DAF52EA43057FF4EBAE12E74FEA410264
:104B9000B2F1E04324BFB3F5001CDCF1FE5C0DD99B
:104BA00001F0004C4FEAC0024CEA5070B2F1004FE5
:104BB00040EB830008BF20F00100704711F0804FE8
:104BC00021D113F13872BCBF01F00040704741F4AD
:104BD00080114FEA5252C2F11802C2F1200C10FAB1
:104BE0000CF320FA02F018BF40F001004FEAC12395
:104BF0004FEAD32303FA0CFC40EA0C0023FA02F339
:104C00004FEA4303CCE77FEA625307D150EA01330E
:104C10001EBF4FF0FE4040F44000704701F00040DE
:104C200040F0FE4040F40000704700BF80F00040BC
:104C300002E000BF81F0004142001FBF5FEA410374
:104C400092EA030F7FEA226C7FEA236C6AD04FEA74
:104C50001262D2EB1363C1BFD218414048404140B9
:104C6000B8BF5B42192B88BF704710F0004F40F46B
:104C7000000020F07F4018BF404211F0004F41F487
:104C8000000121F07F4118BF494292EA030F3FD053
:104C9000A2F1010241FA03FC10EB0C00C3F1200366
:104CA00001FA03F100F0004302D5494260EB4000F5
:104CB000B0F5000F13D3B0F1807F06D340084FEA60
:104CC000310102F10102FE2A51D2B1F1004F40EB55
:104CD000C25008BF20F0010040EA030070474900BD
:104CE00040EB0000013A28BFB0F5000FEDD2B0FA5A
:104CF00080FCACF1080CB2EB0C0200FA0CF0AABF7D
:104D000000EBC25052421843BCBFD040184370471A
:104D100092F0000F81F4000106BF80F40000013220
:104D2000013BB5E74FEA41037FEA226C18BF7FEAF7
:104D3000236C21D092EA030F04D092F0000F08BF39
:104D40000846704790EA010F1CBF0020704712F020
:104D50007F4F04D1400028BF40F00040704712F15F
:104D600000723CBF00F50000704700F0004343F0C4
:104D7000FE4040F4000070477FEA226216BF0846FA
:104D80007FEA23630146420206BF5FEA412390EABD
:104D9000010F40F4800070474FF0000304E000BFB3
:104DA00010F0004348BF40425FEA000C08BF704764
:104DB00043F0964301464FF000001CE050EA010228
:104DC00008BF70474FF000030AE000BF50EA01023D
:104DD00008BF704711F0004302D5404261EB41012A
:104DE0005FEA010C02BF84460146002043F0B6434F
:104DF00008BFA3F18053A3F50003BCFA8CF2083A74
:104E0000A3EBC25310DB01FA02FC634400FA02FC7C
:104E1000C2F12002BCF1004F20FA02F243EB020083
:104E200008BF20F00100704702F1200201FA02FCE5
:104E3000C2F1200250EA4C0021FA02F243EB0200D8
:104E400008BF20EADC70704742000ED2B2F1FE4F7C
:104E50000BD34FF09E03B3EB126209D44FEA002349
:104E600043F0004323FA02F070474FF00000704710
:104E700012F1610F01D1420202D14FF0FF307047B1
:104E80004FF00000704700BF0A480B490B4A00234F
:104E900002E0D458C4500433C4188C42F9D3084AF1
:104EA000084C002301E013600432A242FBD3FEF75A
:104EB00083FF70470000002004000020E44E00083B
:0C4EC00004000020D0020020FEE70000EB
:104ECC004E6F2046696C65005365636F6E645F6658
:084EDC00696C65002000000074
:044EE400E04E000894
:0400000508004E8918
:00000001FF
