:020000040800F2
:1000000000500020611B0008A11B0008A11B000874
:10001000A11B0008A11B0008A11B00080000000094
:10002000000000000000000000000000A11B00080C
:10003000A11B000800000000A11B0008A11B000874
:10004000A11B0008A11B0008A11B0008A11B0008A0
:10005000A11B0008A11B0008A11B0008A11B000890
:10006000A11B0008A11B0008A11B0008A11B000880
:10007000A11B0008A11B0008A11B0008A11B000870
:10008000A11B0008A11B0008A11B0008A11B000860
:10009000A11B0008A11B0008A11B0008A11B000850
:1000A000A11B0008A11B0008A11B0008A11B000840
:1000B000A11B0008A11B0008A11B0008A11B000830
:1000C000A11B0008A11B0008A11B0008A11B000820
:1000D000A11B0008A11B0008A11B0008A11B000810
:1000E000A11B0008A11B0008A11B000800000000C4
:1000F0000000000000000000000000000000000000
:0C01000000000000000000005FF808F1A3
:1001100080B582B000AF786039603B6878689847F6
:1001200000BF0837BD4680BD80B483B000AF7860A3
:10013000034A7B68D36000BF0C37BD4680BC704764
:100140000008014080B483B000AF7860044A7B6847
:100150001B02D36000BF0C37BD4680BC704700BF98
:10016000000C014080B400AF034B4FF0AA321A607C
:1001700000BFBD4680BC70470008014080B400AF9E
:10018000034B4FF0AA325A6000BFBD4680BC704797
:100190000008014080B400AF034B4FF0AA325A6010
:1001A00000BFBD4680BC7047000C014080B400AF6A
:1001B000034B4FF0AA321A6000BFBD4680BC7047A7
:1001C000000C014080B400AF034B4FF0AA325A60DC
:1001D00000BFBD4680BC70470008014080B400AF3E
:1001E000034B4FF0AA321A6000BFBD4680BC704777
:1001F0000008014080B400AF344B1B68334A43F41D
:100200008033136000BF314B1B6803F40033002BB5
:10021000F9D02F4B1B682E4A43F0100313602C4B70
:100220001B682B4A23F007031360294B1B68284ADD
:1002300043F002031360254B5B68244A23F47F5389
:1002400023F030035360214B5B68204A43F4806302
:1002500053601E4B5B681D4A43F4005353601B4BB5
:100260005B681A4A23F474135360184B5B68174A8F
:1002700043F480335360154B5B68144A43F44023C6
:100280005360124B1B68114A43F08073136000BF28
:100290000E4B1B6803F00073002BF9D00B4B5B680F
:1002A0000A4A23F003035360084B5B68074A43F094
:1002B0000203536000BF054B5B6803F00C03082B7F
:1002C000F9D100BF00BFBD4680BC7047001002409E
:1002D0000020024080B400AF2C4B1B682B4A43F433
:1002E0008033136000BF294B1B6803F40033002BDD
:1002F000F9D0274B1B68264A43F010031360244BA8
:100300001B68234A03F007031360214B1B68204A34
:1003100043F0040313601D4B1C4A5B6853601B4B86
:100320005B681A4A43F480335360184B00225A60CA
:10033000164B164A5B685360144B144A5B68536053
:10034000124B1B68114A43F08073136000BF0F4BC0
:100350001B6803F00073002BF9D00C4B5B680B4A51
:1003600023F003035360094B5B68084A43F0020320
:10037000536000BF054B5B6803F00C03082BF9D1F9
:1003800000BF00BFBD4680BC704700BF00100240E8
:100390000020024080B400AF1C4B4FF480321A6042
:1003A00000BF1A4B1B6803F40033B3F5003FF8D1CC
:1003B000164B4FF400225A6203E0144B4FF4000234
:1003C0009A60124B9B6803F40003B3F5000FF4D05E
:1003D0000E4B0E4A5B6853600C4B0C4A5B685360D3
:1003E0000A4B0A4A5B685360084B5B68074A43F054
:1003F0000103536000BF054B5B6803F00403042B4B
:10040000F9D100BF00BFBD4680BC7047001002405C
:1004100080B483B000AF786002E07B68013B7B6012
:100420007B68002BF9D100BF00BF0C37BD4680BCF4
:10043000704780B400AF284B1B68274A43F48033D1
:10044000136000BF244B1B6803F40033002BF9D06A
:10045000224B1B68214A43F0100313601F4B1B689B
:100460001E4A03F0070313601C4B1B681B4A43F032
:1004700004031360184B5B68174A23F44E33536030
:10048000154B5B68144A43F480635360124B1B683E
:10049000114A43F08073136000BF0F4B1B6803F0D9
:1004A0000073002BF9D00C4B5B680B4A23F003035D
:1004B0005360094B5B68084A43F00203536000BF76
:1004C000054B5B6803F00C03082BF9D100BF00BF9C
:1004D000BD4680BC704700BF0010024000200240B3
:1004E00080B400AF074B00221A60064B064A5A60E0
:1004F000044B00229A60034B05221A6000BFBD46E0
:1005000080BC704710E000E03F19010080B485B066
:1005100000AF78600023FB6009E000BF094B1B6857
:1005200003F48033002BF9D1FB680133FB60FA68D8
:100530007B689A42F1D300BF00BF1437BD4680BC30
:10054000704700BF10E000E080B400AF00BFBD46C0
:1005500080BC704780B400AF00BFBD4680BC704710
:1005600080B485B000AFF860B96011461A460B46FA
:10057000FB8013467B71254AFB689360234ABB6866
:10058000D360224AFB889360204B4FF400521A60DC
:100590007B79012B05D11D4B1B681C4A43F01003CE
:1005A00013607B79002B05D1184B1B68174A23F089
:1005B00010031360154B4FF440621A60134B4FF455
:1005C00040721A60114B1B68104A23F080031360BD
:1005D0000E4B1B680D4A23F0400313600B4B1B6846
:1005E0000A4A23F020031360084B4FF480421A603C
:1005F000064B1B68054A43F00E031360034B0122B0
:100600001A6000BF1437BD4680BC70470800024026
:1006100080B400AF00BF224B1B6803F00803002B1F
:10062000F9D100BF1E4B1B6803F00403002BF9D166
:1006300000BF1B4B1B6803F00203002BF9D123E022
:10064000174B1B6803F00803002B05D0144B5B68A5
:10065000134A23F008035360114B1B6803F0040393
:10066000002B05D00E4B5B680D4A23F0040353604A
:100670000B4B1B6803F00203002B05D0084B5B6893
:10068000074A23F002035360054B1B6803F0010384
:10069000002BD5D100BF00BFBD4680BC704700BF56
:1006A0000000024080B500AF104B9B6903F01003BF
:1006B000002B05D10D4B9B690C4A43F0100393614D
:1006C0000B4B5B6803F40013002B03D1084B4FF472
:1006D00000125A60064BDB68054A83F40053D3606E
:1006E0004EF66020FFF712FF00BF80BD00100240F1
:1006F0000010014090B587B000AF7860786800F0D6
:1007000025FE4FF00002444B00F09AFE02460B46D5
:100710003FA1D1E9000100F0BDFF02460B461046A3
:10072000194601F09FF803467B617B681B013B4A39
:10073000B2FBF3F3184601F09BF903463B613969BC
:10074000786901F0E3F803464FF08341184600F062
:1007500007FC0346FB60386901F0E2F90346BB6021
:100760007B68B3F5E13F44D07B68B3F5E13F4AD8FD
:100770007B68B3F5614F32D07B68B3F5614F42D8E7
:100780007B68B3F5164F20D07B68B3F5164F3AD887
:100790007B68B3F5165F04D07B68B3F5964F0AD03B
:1007A00031E0BB681C01F86801F0BAF903461C4A45
:1007B0002344936028E0BB681C01F86801F0B0F99D
:1007C0000346174A234493601EE0BB681C01F86887
:1007D00001F0A6F90346124A2344936014E0BB6873
:1007E0001C01F86801F09CF903460D4A234493600C
:1007F0000AE0BB681C01F86801F092F90346084A58
:100800002344936000E000BF00BF1C37BD4690BD8D
:1008100000000000D012734100003040002D310173
:100820000038014080B400AF094B5B68084A23F0F0
:1008300004035360074B90225A60064B5B68054ADD
:1008400043F48063536000BFBD4680BC704700BF67
:10085000000001400008014080B485B000AFF8609E
:10086000B96011461A460B46FB8013467B712D4B2F
:100870009B692C4A43F0010393612B4AFB68936008
:10088000294ABB68D360284AFB889360264B4FF403
:1008900000521A607B79012B05D1234B1B68224A39
:1008A00043F0100313607B79002B05D11E4B1B68AE
:1008B0001D4A23F0100313601B4B1B681A4A43F4B4
:1008C00040631360184B1B68174A43F4407313606E
:1008D000154B1B68144A23F080031360124B1B68EE
:1008E000114A23F0400313600F4B1B680E4A23F09C
:1008F000200313600C4B1B680B4A43F480431360C6
:10090000094B1B68084A43F00E031360064B1B6833
:10091000054A43F00103136000BF1437BD4680BC95
:10092000704700BF001002403000024080B582B026
:1009300000AF7860154B9B69144A43F4804343F041
:1009400005039361FFF76EFF7868FFF7D3FE104B46
:10095000DB680F4A43F0E003D3600D4BDB680C4AC1
:1009600043F4005343F00403D360094B80225A61DF
:10097000074BDB68064A43F00803D360044B0022B0
:100980005A6000BF0837BD4680BD00BF001002405E
:100990000038014080B582B000AF7860134B9B698E
:1009A000124A43F4804343F005039361FFF73AFF93
:1009B0007868FFF79FFE0E4BDB680D4A43F0E003BB
:1009C000D3600B4BDB680A4A43F4005343F0040343
:1009D000D360074BDB68064A43F00803D360044B3F
:1009E00000225A6000BF0837BD4680BD001002409B
:1009F0000038014080B483B000AF0346FB711C4B4C
:100A00004FF000521A611B4AFB79536000BF194B2B
:100A10001B6803F04003402B05D0164B1B6803F006
:100A20008003802BF3D1134B5B68DAB2124B1A7040
:100A300004E0104B5B68DAB20F4B1A700D4B1B6869
:100A400003F00203022BF4D004E00A4B5B68DAB235
:100A5000094B1A70074B1B6803F01003102BF4D0DE
:100A6000054B1B78DBB218460C37BD4680BC70477F
:100A700000100140003801400900002090B589B005
:100A800000AF786007F108037968184600F0E0F8D5
:100A90002020FFF7AFFF0023FB770AE0FB7F203326
:100AA0003B4413F8183C1846FFF7A4FFFB7F0133C3
:100AB000FB77FC7F786800F09DF8034601339C4289
:100AC000ECD300BF00BF2437BD4690BD80B400AF5B
:100AD00000BF124B1B6803F00203022BF9D10F4B2E
:100AE0001B6803F00403042B04D00C4B5B68DAB2E0
:100AF0000B4B1A7000BF094B1B6803F02003202B1F
:100B0000F9D1064B5B68DAB2064B1A70054B1B78BD
:100B1000DBB21846BD4680BC704700BF00380140BC
:100B2000080000200900002080B400AF114B5B6872
:100B3000DAB2114B1A7004E00E4B5B68DAB20E4B5E
:100B40001A700C4B1B6803F00203022BF4D004E074
:100B5000084B5B68DAB2084B1A70064B1B6803F04F
:100B60001003102BF4D0044B1B78DBB21846BD46A3
:100B700080BC7047003801400900002080B400AFFD
:100B8000034B0022DA6000BFBD4680BC704700BF47
:100B90000038014080B582B000AFFFF72BFBFFF7B4
:100BA0009FFC0E48FFF7B2FC4FF49640FFF7F2FEB1
:100BB00000237B600BE07B68DBB21846FFF71AFF6F
:100BC0004EF66020FFF7A2FC7B6801337B607B68F8
:100BD000FE2BF0D9FFF7D2FF00BFFDE740420F0028
:100BE000A41B0008000000200800002008000020CE
:100BF0000C00002020F0030110F00300C0F1000001
:100C000051F8043B00F1040C4FEACC0C6FF00002E9
:100C10001CBF22FA0CF213434FF0010C4CEA0C2CCF
:100C20004CEA0C4CA3EB0C0222EA030212EACC12AF
:100C300004BF51F8043B0430F4D0C2F1000102EAD1
:100C40000102B2FA82F2C2F11F0200EBD200704739
:100C500080EA0102844612F0030F4FD111F0030F16
:100C600032D14DF8044D11F0040F51F8043B0BD074
:100C7000A3F101329A4312F0803F04BF4CF8043BC9
:100C800051F8043B16D100BF51F8044BA3F10132D7
:100C90009A4312F0803FA4F101320BD14CF8043B8F
:100CA000A24312F0803F04BF51F8043B4CF8044BC0
:100CB000EAD023460CF8013B13F0FF0F4FEA332331
:100CC000F8D15DF8044B704711F0010F06D011F810
:100CD000012B0CF8012B002A08BF704711F0020FFE
:100CE000BFD031F8022B12F0FF0F16BF2CF8022BE9
:100CF0008CF8002012F47F4FB3D1704711F8012B0C
:100D00000CF8012B002AF9D1704700BF70B54FF0E5
:100D1000FF0C4CF4E06C1CEA11541DBF1CEA135587
:100D200094EA0C0F95EA0C0F00F0DEF82C4481EAEF
:100D3000030621EA4C5123EA4C5350EA013518BF0F
:100D400052EA033541F4801143F4801338D0A0FBFC
:100D500002CE4FF00005E1FB02E506F00042E0FBA9
:100D600003E54FF00006E1FB03569CF0000F18BFAF
:100D70004EF0010EA4F1FF04B6F5007F64F5407457
:100D800004D25FEA4E0E6D4146EB060642EAC621EA
:100D900041EA55514FEAC52040EA5E504FEACE2E57
:100DA000B4F1FD0C88BFBCF5E06F1ED8BEF1004F5A
:100DB00008BF5FEA500E50F1000041EB045170BDD6
:100DC00006F0004646EA010140EA020081EA03011A
:100DD000B4EB5C04C2BFD4EB0C0541EA045170BD16
:100DE00041F480114FF0000E013C00F3AB8014F190
:100DF000360FDEBF002001F0004170BDC4F10004D9
:100E0000203C35DA0C341BDC04F11404C4F1200559
:100E100000FA05F320FA04F001FA05F240EA0200B4
:100E200001F0004221F0004110EBD37021FA04F6EA
:100E300042EB06015EEA430E08BF20EAD37070BDA4
:100E4000C4F10C04C4F1200500FA04F320FA05F003
:100E500001FA04F240EA020001F0004110EBD37005
:100E600041F100015EEA430E08BF20EAD37070BD75
:100E7000C4F1200500FA05F24EEA020E20FA04F34E
:100E800001FA05F243EA020321FA04F001F00041FD
:100E900021FA04F220EA020000EBD3705EEA430E6E
:100EA00008BF20EAD37070BD94F0000F0FD101F09D
:100EB0000046400041EB010111F4801F08BF013CD6
:100EC000F7D041EA060195F0000F18BF704703F014
:100ED0000046520043EB030313F4801F08BF013D9B
:100EE000F7D043EA0603704794EA0C0F0CEA135557
:100EF00018BF95EA0C0F0CD050EA410618BF52EA11
:100F00004306D1D181EA030101F000414FF0000016
:100F100070BD50EA410606BF1046194652EA430624
:100F200019D094EA0C0F02D150EA013613D195EA98
:100F30000C0F05D152EA03361CBF104619460AD1E0
:100F400081EA030101F0004141F0FE4141F47001EA
:100F50004FF0000070BD41F0FE4141F4780170BDDA
:100F60004FF0FF0C1CEAD0521EBF1CEAD15392EA8C
:100F70000C0F93EA0C0F6FD01A4480EA010C400268
:100F800018BF5FEA41211ED04FF0006343EA5010C2
:100F900043EA5111A0FB01310CF00040B1F5000F04
:100FA0003EBF490041EAD3715B0040EA010062F1B3
:100FB0007F02FD2A1DD8B3F1004F40EBC25008BF9D
:100FC00020F00100704790F0000F0CF0004C08BFBB
:100FD00049024CEA502040EA51207F3AC2BFD2F188
:100FE000FF0340EAC250704740F400004FF0000396
:100FF000013A5DDC12F1190FDCBF00F000407047D0
:10100000C2F10002410021FA02F1C2F1200200FA0D
:1010100002FC5FEA310040F1000053EA4C0308BFD4
:1010200020EADC70704792F0000F00F0004C02BF25
:10103000400010F4000F013AF9D040EA0C0093F0A0
:10104000000F01F0004C02BF490011F4000F013BFA
:10105000F9D041EA0C018FE70CEAD15392EA0C0F68
:1010600018BF93EA0C0F0AD030F0004C18BF31F0D3
:10107000004CD8D180EA010000F00040704790F0A9
:10108000000F17BF90F0004F084691F0000F91F04D
:10109000004F14D092EA0C0F01D142020FD193EA13
:1010A0000C0F03D14B0218BF084608D180EA01009B
:1010B00000F0004040F0FE4040F40000704740F077
:1010C000FE4040F44000704781F0004102E000BF64
:1010D00083F0004330B54FEA41044FEA430594EAF8
:1010E000050F08BF90EA020F1FBF54EA000C55EA33
:1010F000020C7FEA645C7FEA655C00F0E2804FEA04
:101100005454D4EB5555B8BF6D420CDD2C4480EAE5
:10111000020281EA030382EA000083EA010180EA15
:10112000020281EA0303362D88BF30BD11F0004F63
:101130004FEA01314FF4801C4CEA113102D0404299
:1011400061EB410113F0004F4FEA03334CEA1333D4
:1011500002D0524263EB430394EA050F00F0A780EC
:10116000A4F10104D5F1200E0DDB02FA0EFC22FAE7
:1011700005F2801841F1000103FA0EF2801843FADB
:1011800005F359410EE0A5F120050EF1200E012ACC
:1011900003FA0EFC28BF4CF0020C43FA05F3C0180A
:1011A00051EBE37101F0004507D54FF0000EDCF183
:1011B000000C7EEB00006EEB0101B1F5801F1BD32C
:1011C000B1F5001F0CD349085FEA30004FEA3C0C30
:1011D00004F101044FEA445212F5800F80F09A8026
:1011E000BCF1004F08BF5FEA500C50F1000041EB2A
:1011F000045141EA050130BD5FEA4C0C404141EB2E
:101200000101013C28BFB1F5801FE9D291F0000F28
:1012100004BF01460020B1FA81F308BF2033A3F1D7
:101220000B03B3F120020CDA0C3208DD02F1140CCE
:10123000C2F10C0201FA0CF021FA02F10CE002F109
:101240001402D8BFC2F1200C01FA02F120FA0CFC02
:10125000DCBF41EA0C019040E41AA2BF01EB04514B
:10126000294330BD6FEA04041F3C1CDA0C340EDC49
:1012700004F11404C4F1200220FA04F001FA02F38C
:1012800040EA030021FA04F345EA030130BDC4F14A
:101290000C04C4F1200220FA02F001FA04F340EA3F
:1012A0000300294630BD21FA04F0294630BD94F0F0
:1012B000000F83F4801306BF81F480110134013DD7
:1012C0004EE77FEA645C18BF7FEA655C29D094EA48
:1012D000050F08BF90EA020F05D054EA000C04BFC6
:1012E0001946104630BD91EA030F1EBF00210020B1
:1012F00030BD5FEA545C05D14000494128BF41F050
:10130000004130BD14F580043CBF01F5801130BDB3
:1013100001F0004545F0FE4141F470014FF000003E
:1013200030BD7FEA645C1ABF194610467FEA655CEF
:101330001CBF0B46024650EA013406BF52EA033591
:1013400091EA030F41F4002130BD00BF90F0000F7F
:1013500004BF0021704730B54FF4806404F13204BB
:101360004FF000054FF0000150E700BF90F0000F74
:1013700004BF0021704730B54FF4806404F132049B
:1013800010F0004548BF40424FF000013EE700BF6B
:1013900042004FEAE2014FEA31014FEA02701FBFFB
:1013A00012F07F4393F07F4F81F06051704732F02D
:1013B0007F4208BF704793F07F4F04BF41F4002184
:1013C000704730B54FF4607401F0004521F00041E2
:1013D0001CE700BF50EA010208BF704730B54FF06C
:1013E00000050AE050EA010208BF704730B511F06D
:1013F000004502D5404261EB41014FF4806404F1A5
:1014000032045FEA915C3FF4D8AE4FF003025FEA2A
:10141000DC0C18BF03325FEADC0C18BF033202EBAE
:10142000DC02C2F1200300FA03FC20FA02F001FA08
:1014300003FE40EA0E0021FA02F11444BDE600BFAB
:1014400070B54FF0FF0C4CF4E06C1CEA11541DBF5A
:101450001CEA135594EA0C0F95EA0C0F00F0DEF825
:101460002C4481EA030621EA4C5123EA4C5350EA0A
:10147000013518BF52EA033541F4801143F480135B
:1014800038D0A0FB02CE4FF00005E1FB02E506F0EC
:101490000042E0FB03E54FF00006E1FB03569CF041
:1014A000000F18BF4EF0010EA4F1FF04B6F5007F47
:1014B00064F5407404D25FEA4E0E6D4146EB0606B9
:1014C00042EAC62141EA55514FEAC52040EA5E5042
:1014D0004FEACE2EB4F1FD0C88BFBCF5E06F1ED8EC
:1014E000BEF1004F08BF5FEA500E50F1000041EB23
:1014F000045170BD06F0004646EA010140EA0200D0
:1015000081EA0301B4EB5C04C2BFD4EB0C0541EAF1
:10151000045170BD41F480114FF0000E013C00F306
:10152000AB8014F1360FDEBF002001F0004170BD2A
:10153000C4F10004203C35DA0C341BDC04F1140443
:10154000C4F1200500FA05F320FA04F001FA05F2CF
:1015500040EA020001F0004221F0004110EBD3709C
:1015600021FA04F642EB06015EEA430E08BF20EAC8
:10157000D37070BDC4F10C04C4F1200500FA04F36B
:1015800020FA05F001FA04F240EA020001F00041FD
:1015900010EBD37041F100015EEA430E08BF20EA70
:1015A000D37070BDC4F1200500FA05F24EEA020EB8
:1015B00020FA04F301FA05F243EA020321FA04F0E7
:1015C00001F0004121FA04F220EA020000EBD3709E
:1015D0005EEA430E08BF20EAD37070BD94F0000F9E
:1015E0000FD101F00046400041EB010111F4801FD2
:1015F00008BF013CF7D041EA060195F0000F18BF83
:10160000704703F00046520043EB030313F4801FBE
:1016100008BF013DF7D043EA0603704794EA0C0F78
:101620000CEA135518BF95EA0C0F0CD050EA41068E
:1016300018BF52EA4306D1D181EA030101F000410B
:101640004FF0000070BD50EA410606BF1046194633
:1016500052EA430619D094EA0C0F02D150EA01363F
:1016600013D195EA0C0F05D152EA03361CBF104680
:1016700019460AD181EA030101F0004141F0FE411F
:1016800041F470014FF0000070BD41F0FE4141F4A3
:10169000780170BD70B54FF0FF0C4CF4E06C1CEAA3
:1016A00011541DBF1CEA135594EA0C0F95EA0C0F58
:1016B00000F0A7F8A4EB050481EA030E52EA033513
:1016C0004FEA013100F088804FEA03334FF0805534
:1016D00045EA131343EA12634FEA022245EA111561
:1016E00045EA10654FEA00260EF000419D4208BF12
:1016F000964244F1FD0404F5407402D25B084FEABF
:101700003202B61A65EB03055B084FEA32024FF46A
:1017100080104FF4002CB6EB020E75EB030E22BFC7
:10172000B61A754640EA0C005B084FEA3202B6EB87
:10173000020E75EB030E22BFB61A754640EA5C0036
:101740005B084FEA3202B6EB020E75EB030E22BFC6
:10175000B61A754640EA9C005B084FEA3202B6EBC7
:10176000020E75EB030E22BFB61A754640EADC0086
:1017700055EA060E18D04FEA051545EA16754FEAE8
:1017800006164FEAC30343EA52734FEAC2025FEA06
:101790001C1CC0D111F4801F0BD141EA00014FF095
:1017A00000004FF0004CB6E711F4801F04BF014366
:1017B0000020B4F1FD0C88BFBCF5E06F3FF6AFAE82
:1017C000B5EB030C04BFB6EB020C5FEA500C50F112
:1017D000000041EB045170BD0EF0004E4EEA113195
:1017E00014EB5C04C2BFD4EB0C0541EA045170BD9C
:1017F00041F480114FF0000E013C90E645EA060EE0
:101800008DE60CEA135594EA0C0F08BF95EA0C0F0D
:101810003FF43BAF94EA0C0F0AD150EA01347FF455
:1018200034AF95EA0C0F7FF425AF104619462CE72C
:1018300095EA0C0F06D152EA03353FF4FDAE10468F
:10184000194622E750EA410618BF52EA43067FF4E0
:10185000C5AE50EA41047FF40DAF52EA43057FF470
:10186000EBAE12E74FEA4102B2F1E04324BFB3F519
:10187000001CDCF1FE5C0DD901F0004C4FEAC00207
:101880004CEA5070B2F1004F40EB830008BF20F0EB
:101890000100704711F0804F21D113F13872BCBFA5
:1018A00001F00040704741F480114FEA5252C2F1FA
:1018B0001802C2F1200C10FA0CF320FA02F018BF43
:1018C00040F001004FEAC1234FEAD32303FA0CFC96
:1018D00040EA0C0023FA02F34FEA4303CCE77FEA25
:1018E000625307D150EA01331EBF4FF0FE4040F46F
:1018F0004000704701F0004040F0FE4040F400001E
:10190000704700BF80F0004002E000BF81F000415E
:1019100042001FBF5FEA410392EA030F7FEA226C95
:101920007FEA236C6AD04FEA1262D2EB1363C1BF25
:10193000D218414048404140B8BF5B42192B88BF94
:10194000704710F0004F40F4000020F07F4018BFB7
:10195000404211F0004F41F4000121F07F4118BFD7
:10196000494292EA030F3FD0A2F1010241FA03FC7F
:1019700010EB0C00C3F1200301FA03F100F0004367
:1019800002D5494260EB4000B0F5000F13D3B0F12F
:10199000807F06D340084FEA310102F10102FE2A9E
:1019A00051D2B1F1004F40EBC25008BF20F001000E
:1019B00040EA03007047490040EB0000013A28BFAD
:1019C000B0F5000FEDD2B0FA80FCACF1080CB2EB30
:1019D0000C0200FA0CF0AABF00EBC25052421843AE
:1019E000BCBFD0401843704792F0000F81F4000153
:1019F00006BF80F400000132013BB5E74FEA410326
:101A00007FEA226C18BF7FEA236C21D092EA030F91
:101A100004D092F0000F08BF0846704790EA010F0B
:101A20001CBF0020704712F07F4F04D1400028BF38
:101A300040F00040704712F100723CBF00F500001A
:101A4000704700F0004343F0FE4040F40000704750
:101A50007FEA226216BF08467FEA236301464202FC
:101A600006BF5FEA412390EA010F40F4800070470F
:101A70004FF0000304E000BF10F0004348BF4042B5
:101A80005FEA000C08BF704743F0964301464FF0F1
:101A900000001CE050EA010208BF70474FF000034D
:101AA0000AE000BF50EA010208BF704711F000438E
:101AB00002D5404261EB41015FEA010C02BF84465E
:101AC0000146002043F0B64308BFA3F18053A3F5BD
:101AD0000003BCFA8CF2083AA3EBC25310DB01FA04
:101AE00002FC634400FA02FCC2F12002BCF1004F88
:101AF00020FA02F243EB020008BF20F00100704719
:101B000002F1200201FA02FCC2F1200250EA4C006C
:101B100021FA02F243EB020008BF20EADC707047B2
:101B200042000ED2B2F1FE4F0BD34FF09E03B3EB47
:101B3000126209D44FEA002343F0004323FA02F073
:101B400070474FF00000704712F1610F01D142025F
:101B500002D14FF0FF3070474FF00000704700BFD8
:101B60000A480B490B4A002302E0D458C4500433FE
:101B7000C4188C42F9D3084A084C002301E01360D2
:101B80000432A242FBD3FFF705F8704700000020A3
:101B900008000020A41B0008080000200C00002002
:041BA000FEE700005C
:081BA400000000108000001099
:0400000508001B6173
:00000001FF
