:020000040800F2
:1000000000500020A1360008E1360008E136000863
:10001000E1360008E1360008E13600080000000083
:10002000000000000000000000000000E1360008B1
:10003000E136000800000000E1360008E136000863
:10004000E1360008E1360008E1360008E136000834
:10005000E1360008E1360008E1360008E136000824
:10006000E1360008E1360008E13600080506000820
:1000700079060008ED06000865070008D9070008A2
:100080004D080008C1080008E1360008E136000804
:10009000E1360008E1360008E1360008E1360008E4
:1000A000E136000899190008E1360008E136000839
:1000B000AD240008FD170008CD180008E13600083F
:1000C000E1360008E1360008E1360008D51E0008D8
:1000D000311F0008610D0008E1360008E136000814
:1000E000E1360008E1360008E136000800000000B3
:1000F0000000000000000000000000000000000000
:0C01000000000000000000005FF808F1A3
:1001100080B483B000AF0346FB7197F90730002B22
:100120000BDBFB7903F01F02064997F907305B09E7
:10013000012000FA02F241F8232000BF0C37BD462F
:1001400080BC704700E100E080B483B000AF03469C
:10015000FB7197F90730002B12DBFB7903F01F02CC
:100160000A4997F907305B09012000FA02F22033AF
:1001700041F82320BFF34F8F00BFBFF36F8F00BF45
:1001800000BF0C37BD4680BC704700BF00E100E0F7
:1001900080B483B000AF03463960FB7197F9073034
:1001A000002B0ADB3B68DAB20C4997F907301201E1
:1001B000D2B20B4483F800230AE03B68DAB2084964
:1001C000FB7903F00F03043B1201D2B20B441A7601
:1001D00000BF0C37BD4680BC704700BF00E100E0A7
:1001E00000ED00E080B483B000AF03460A46FB7127
:1001F0001346BB71164B9B69154A43F0100393617C
:10020000BB790F2B16D00F2B1CDC0D2B02D00E2B25
:1002100008D017E0FB791A050E4B5B680D491343B4
:100220004B6010E0FB791A060A4B5B6809491343DF
:100230004B6008E0FB791A07064B5B6805491343DE
:100240004B6000E000BF00BF0C37BD4680BC70476C
:10025000001002400010014080B483B000AF03469C
:100260000A46FB711346BB71544B9B69534A43F0DA
:1002700008039361BB790F2B00F29A8001A252F818
:1002800023F000BFC5020008D3020008B103000834
:10029000E3020008F3020008030300081303000848
:1002A000230300083303000841030008510300083A
:1002B000610300087103000881030008910300082E
:1002C000A1030008FA793E4B1B683D4913430B60BC
:1002D0006FE0FB791A013A4B1B68394913430B60F5
:1002E00067E0FB791A03364B1B68354913430B60F3
:1002F0005FE0FB799A03324B1B68314913430B6073
:1003000057E0FB791A052E4B1B682D4913430B60F0
:100310004FE0FB791A062A4B1B68294913430B60EF
:1003200047E0FB791A07264B1B68254913430B60EE
:100330003FE0FA79224B5B68214913434B6038E078
:10034000FB791A011E4B5B681D4913434B6030E07B
:10035000FB791A021A4B5B68194913434B6028E07A
:10036000FB791A03164B5B68154913434B6020E079
:10037000FB799A03124B5B68114913434B6018E0F9
:10038000FB791A050E4B5B680D4913434B6010E077
:10039000FB791A060A4B5B68094913434B6008E076
:1003A000FB791A07064B5B68054913434B6000E075
:1003B00000BF00BF0C37BD4680BC70470010024034
:1003C000000C014080B483B000AF03460A46FB71C5
:1003D0001346BB71504B9B694F4A43F00403936132
:1003E000BB790F2B00F2928001A252F823F000BFDC
:1003F000310400083F0400084F0400085F040008AF
:100400006F0400087F0400088F0400089F040008A0
:10041000AF040008BD040008CD040008DD04000896
:10042000ED0400080D0500080D050008FD04000896
:10043000FA793A4B1B68394913430B6067E0FB7943
:100440001A01364B1B68354913430B605FE0FB799B
:100450001A02324B1B68314913430B6057E0FB799A
:100460001A032E4B1B682D4913430B604FE0FB7999
:100470009A032A4B1B68294913430B6047E0FB7919
:100480001A05264B1B68254913430B603FE0FB7997
:100490001A06224B1B68214913430B6037E0FB7996
:1004A0001A071E4B1B681D4913430B602FE0FA7996
:1004B0001A4B5B68194913434B6028E0FB791A011A
:1004C000164B5B68154913434B6020E0FB791A0219
:1004D000124B5B68114913434B6018E0FB791A0318
:1004E0000E4B5B680D4913434B6010E0FB799A0398
:1004F0000A4B5B68094913434B6008E0FB791A0714
:10050000064B5B68054913434B6000E000BF00BF2A
:100510000C37BD4680BC7047001002400008014007
:1005200080B582B000AF78600B46FB701346BB709D
:100530007B68012B05D1BA78FB7811461846FFF786
:1005400041FF7B68022B05D1BA78FB78114618462B
:10055000FFF782FE7B68032B05D1BA78FB78114642
:100560001846FFF73FFE00BF0837BD4680BD80B587
:1005700082B000AF78607B68984700BF0837BD46FF
:1005800080BD80B582B000AF786039603B68786824
:10059000984700BF0837BD4680BD80B584B000AF26
:1005A000F860B9607A607B68B968F868984700BFFE
:1005B0001037BD4680BD80B582B000AF78607B68E3
:1005C0009847034618460837BD4680BD80B582B0BF
:1005D00000AF786039603B687868984703461846F2
:1005E0000837BD4680BD80B584B000AFF860B96003
:1005F0007A607B68B968F8689847034618461037F0
:10060000BD4680BD80B400AF194B1B6803F00403E6
:10061000002B05D0164B5B68154A43F0040353606A
:10062000134B1B6803F00203002B0BD0104B5B68CD
:100630000F4A43F0020353600E4B1B680D4A23F030
:10064000010313600A4B1B6803F00803002B0BD057
:10065000074B5B68064A43F008035360054B1B6871
:10066000044A23F00103136000BFBD4680BC7047FD
:10067000000002400800024080B400AF194B1B6824
:1006800003F04003002B05D0164B5B68154A43F07E
:1006900040035360134B1B6803F02003002B0BD067
:1006A000104B5B680F4A43F0200353600E4B1B68EE
:1006B0000D4A23F0010313600A4B1B6803F080030B
:1006C000002B0BD0074B5B68064A43F08003536056
:1006D000054B1B68044A23F00103136000BFBD46AD
:1006E00080BC7047000002401C00024080B400AF94
:1006F000194B1B6803F48063002B05D0164B5B6815
:10070000154A43F480635360134B1B6803F4007372
:10071000002B0BD0104B5B680F4A43F400735360FF
:100720000E4B1B680D4A23F0010313600A4B1B6834
:1007300003F40063002B0BD0074B5B68064A43F4BD
:1007400000635360064B1B68054A23F001031360E6
:1007500000BFBD4680BC7047000002403000024030
:100760004400024080B400AF194B1B6803F480437F
:10077000002B05D0164B5B68154A43F48043536049
:10078000134B1B6803F40053002B0BD0104B5B681A
:100790000F4A43F4005353600E4B1B680D4A23F07D
:1007A000010313600A4B1B6803F40043002B0BD0BA
:1007B000074B5B68064A43F400435360054B1B68D4
:1007C000044A23F00103136000BFBD4680BC70479C
:1007D000000002404400024080B400AF194B1B6887
:1007E00003F48023002B05D0164B5B68154A43F4B5
:1007F00080235360134B1B6803F40033002B0BD092
:10080000104B5B680F4A43F4003353600E4B1B6878
:100810000D4A23F0010313600A4B1B6803F4002305
:10082000002B0BD0074B5B68064A43F40023536050
:10083000054B1B68044A23F00103136000BFBD464B
:1008400080BC7047000002405800024080B400AFF6
:10085000194B1B6803F48003002B05D0164B5B6813
:10086000154A43F480035360134B1B6803F40013D1
:10087000002B0BD0104B5B680F4A43F400135360FE
:100880000E4B1B680D4A23F0010313600A4B1B68D3
:1008900003F40003002B0BD0074B5B68064A43F4BC
:1008A00000035360054B1B68044A23F001031360E7
:1008B00000BFBD4680BC7047000002406C00024093
:1008C00080B400AF194B1B6803F08063002B05D088
:1008D000164B5B68154A43F080635360134B1B68EB
:1008E00003F00073002B0BD0104B5B680F4A43F0F2
:1008F000007353600E4B1B680D4A23F00103136015
:100900000A4B1B6803F00063002B0BD0074B5B689E
:10091000064A43F000635360054B1B68044A23F00A
:100920000103136000BFBD4680BC70470000024059
:100930008000024080B485B000AFF860B960134613
:10094000FB80284B5B69274A43F001035361264B28
:100950001B68254A23F001031360234AFB68936058
:10096000214ABB68D360204AFB8853601E4B1B683A
:100970001D4A43F4805313601B4B1B681A4A43F013
:1009800010031360184B1B68174A43F4806313600D
:10099000154B1B68144A43F480731360124B1B6899
:1009A000114A43F0800313600F4B1B680E4A23F07B
:1009B000400313600C4B1B680B4A23F020031360A9
:1009C000094B1B68084A43F00E031360064B1B6873
:1009D000054A43F00103136000BF1437BD4680BCD5
:1009E000704700BF001002400800024080B400AF12
:1009F00023E0174B1B6803F40023002B05D0144B96
:100A00005B68134A23F400235360114B1B6803F403
:100A10008023002B05D00E4B5B680D4A23F4802306
:100A200053600B4B1B6803F40033002B05D0084BBD
:100A30005B68074A23F400335360054B1B6803F4DB
:100A40008033002BD5D100BF00BFBD4680BC7047AE
:100A50000000024080B400AF0F4B9B6903F010030D
:100A6000002B05D10C4B9B690B4A43F0100393619B
:100A70000A4B5B6803F40013002B03D1074B4FF4C0
:100A800000125A60054BDB68044A83F40053D360BC
:100A900000BFBD4680BC70470010024000100140FE
:100AA00090B587B000AF7860786802F0EFF94FF04A
:100AB0000002454B02F064FA02460B4640A1D1E920
:100AC000000102F087FB02460B461046194602F071
:100AD00069FC03467B617B681B013C4AB2FBF3F374
:100AE000184602F065FD03463B613969786902F0FA
:100AF000ADFC03464FF08341184601F0D1FF034699
:100B0000FB60386902F0ACFD0346BB607B68B3F55F
:100B1000E13F44D07B68B3F5E13F4AD87B68B3F549
:100B2000614F32D07B68B3F5614F42D87B68B3F533
:100B3000164F20D07B68B3F5164F3AD87B68B3F5D3
:100B4000165F04D07B68B3F5964F0AD031E0BB68DE
:100B50001C01F86802F084FD03461D4A234493609B
:100B600028E0BB681C01F86802F07AFD0346184AC9
:100B7000234493601EE0BB681C01F86802F070FD1E
:100B80000346134A2344936014E0BB681C01F868D1
:100B900002F066FD03460E4A234493600AE0BB68F8
:100BA0001C01F86802F05CFD0346094A2344936087
:100BB00000E000BF00BF1C37BD4690BDAFF3008012
:100BC00000000000D012734100003040002D3101C0
:100BD0000038014080B400AF104B9B690F4A43F4CA
:100BE000804343F0050393610D4B4FF080625A60E0
:100BF0000B4B5B680A4A23F004035360094B5B68A4
:100C0000084A43F090035360064B5B68054A43F47F
:100C10008063536000BFBD4680BC70470010024037
:100C2000000001400008014080B400AF104B9B69F8
:100C30000F4A43F4804343F0090393610D4B4FF097
:100C400080625A600B4B5B680A4A43F004035360AE
:100C5000094B1B68084A43F020631360064B1B686E
:100C6000054A43F08043136000BFBD4680BC704717
:100C70000010024000000140000C014080B400AFB1
:100C8000184B9B69174A43F005039361154BDB69C9
:100C9000144A43F40033D361134B4FF080625A601F
:100CA000114B5B68104A23F0080353600F4B1B681D
:100CB0000E4A43F4306313600C4B1B680B4A43F03D
:100CC00030031360094B1B68084A43F480431360E8
:100CD000064B1B68054A43F00403136000BFBD4682
:100CE00080BC704700100240000001400008014035
:100CF00080B400AF174B9B69164A43F00903936118
:100D0000144BDB69134A43F48023D361124B4FF039
:100D100080625A60104B5B680F4A23F008035360EF
:100D20000E4B4FF430625A600C4B5B680B4A43F039
:100D300040735360094B5B68084A43F48043536037
:100D4000064B5B68054A43F48003536000BFBD4611
:100D500080BC70470010024000000140000C0140C0
:100D600080B400AF0D4B1B6803F04003002B05D08F
:100D70000A4B1B68094A23F040031360074B1B68AA
:100D800003F02003002B05D0044B1B68034A23F01B
:100D90002003136000BFBD4680BC7047003801408F
:100DA00080B582B000AF7860FFF714FF114B0022CE
:100DB000DA607868FFF774FE0E4B4FF440521A6108
:100DC0000C4B6022DA600B4BDB680A4A43F00C03E1
:100DD000D360084BDB68074A43F40053D360022119
:100DE0002520FFF7D5F92520FFF792F900BF083736
:100DF000BD4680BD0038014080B483B000AF0346DB
:100E0000FB710B4AFB79536000BF094B1B6803F071
:100E10008003002BF9D0064B1B68DAB2054B1A7021
:100E2000034B5B68DBB218460C37BD4680BC70478D
:100E3000003801400400002090B589B000AF786010
:100E400007F108037968184601F0A2FC0023FB773C
:100E50000AE0FB7F20333B4413F8183C1846FFF7A9
:100E6000CBFFFB7F0133FB77FC7F786801F062FCEE
:100E7000034601339C42ECD300BF00BF2437BD467C
:100E800090BD80B400AF00BF124B1B6803F020037D
:100E9000002BF9D00F4B5B68DAB20F4B1A7000BF12
:100EA0000C4B1B6803F00203002BF9D100BF094B68
:100EB0001B6803F00403002BF9D1064B1B68DAB260
:100EC000064B1A70044B1B78DBB21846BD4680BC3B
:100ED000704700BF003801400500002004000020DA
:100EE00080B582B000AF7860FFF79EFE0E4B002207
:100EF000DA607868FFF7D4FD0B4B4FF440521A616B
:100F0000094B6022DA60084BDB68074A43F00C03A8
:100F1000D360054BDB68044A43F40053D36000BF41
:100F20000837BD4680BD00BF0038014080B582B0A3
:100F300000AF0346FB71FB791846FFF75DFF0346E0
:100F400018460837BD4680BD80B582B000AF7860D6
:100F50007868FFF771FF00BF0837BD4680BD80B5D8
:100F600000AFFFF78EFF00BF80BD90B587B000AF28
:100F70007860786801F08AFF4FF00002444B01F07E
:100F8000FFFF02460B4640A1D1E9000102F022F921
:100F900002460B461046194602F004FA03467B61EE
:100FA0007B681B013B4AB2FBF3F3184602F000FBDF
:100FB00003463B613969786902F048FA03464FF00D
:100FC0008341184601F06CFD0346FB60386902F06E
:100FD00047FB0346BB607B68B3F5E13F44D07B68C9
:100FE000B3F5E13F4AD87B68B3F5614F32D07B68F7
:100FF000B3F5614F42D87B68B3F5164F20D07B68BC
:10100000B3F5164F3AD87B68B3F5165F04D07B680A
:10101000B3F5964F0AD031E0BB681C01F86802F0C6
:101020001FFB03461C4A2344936028E0BB681C0155
:10103000F86802F015FB0346174A234493601EE04C
:10104000BB681C01F86802F00BFB0346124A2344FC
:10105000936014E0BB681C01F86802F001FB0346D2
:101060000D4A234493600AE0BB681C01F86802F053
:10107000F7FA0346084A2344936000E000BF00BF2C
:101080001C37BD4690BD00BF00000000D012734168
:1010900000003040002D31010044004080B582B096
:1010A00000AF7860FFF7EAFD7868FFF75EFF134B4B
:1010B0004FF440521A61114B0022DA600F4B5B690A
:1010C0000E4A23F4E06353610C4BDB680B4A43F098
:1010D0004003D360094B4FF4E0625A61074BDB6871
:1010E000064A43F00C03D360044BDB68034A43F425
:1010F0000053D36000BF0837BD4680BD00440040A8
:1011000080B483B000AF0346FB710B4AFB79536098
:1011100000BF094B1B6803F08003002BF9D0064B7E
:101120001B68DAB2054B1A70034B5B68DBB21846DA
:101130000C37BD4680BC70470044004004000020CE
:1011400080B400AF00BF124B1B6803F02003002BDC
:10115000F9D00F4B5B68DAB20E4B1A7000BF0C4B24
:101160001B6803F00203002BF9D100BF084B1B687A
:1011700003F00403002BF9D1054B1B68DAB2064BD0
:101180001A70044B1B78DBB21846BD4680BC704712
:1011900000440040050000200400002090B589B004
:1011A00000AF786007F108037968184601F0F0FA9B
:1011B0002020FFF7A5FF0023FB770AE0FB7F203309
:1011C0003B4413F8183C1846FFF79AFFFB7F0133A6
:1011D000FB77FC7F786801F0ADFA034601339C424F
:1011E000ECD300BF00BF2437BD4690BD80B582B0B0
:1011F00000AF0346FB71184B1B6803F40073002B10
:1012000006D0154B1B6803F40073002B11D100E0CE
:1012100000BF124BDB68114A23F00203D360FFF7D3
:101220008FFF03461846FFF76BFF0C4B0222DA6074
:1012300000E000BF094B0222DA60FB791846FFF795
:101240005FFF064BDB68054A23F00203D36000BF53
:101250000837BD4680BD00BF004400400008014083
:1012600090B587B000AF7860786801F00FFE4FF05E
:101270000002454B01F084FE02460B4640A1D1E935
:10128000000101F0A7FF02460B461046194602F086
:1012900089F803467B617B681B013C4AB2FBF3F390
:1012A000184602F085F903463B613969786902F016
:1012B000CDF803464FF08341184601F0F1FB034699
:1012C000FB60386902F0CCF90346BB607B68B3F57C
:1012D000E13F44D07B68B3F5E13F4AD87B68B3F582
:1012E000614F32D07B68B3F5614F42D87B68B3F56C
:1012F000164F20D07B68B3F5164F3AD87B68B3F50C
:10130000165F04D07B68B3F5964F0AD031E0BB6816
:101310001C01F86802F0A4F903461D4A23449360B7
:1013200028E0BB681C01F86802F09AF90346184AE5
:10133000234493601EE0BB681C01F86802F090F93A
:101340000346134A2344936014E0BB681C01F86809
:1013500002F086F903460E4A234493600AE0BB6814
:101360001C01F86802F07CF90346094A23449360A3
:1013700000E000BF00BF1C37BD4690BDAFF300804A
:1013800000000000D012734100003040002D3101F8
:101390000048004080B582B000AF7860FFF7A8FC3D
:1013A0007868FFF75DFF164B4FF440521A61144BFB
:1013B000DB68134A23F4435323F02C03D360104B10
:1013C0005B690F4A23F4E06353610D4BDB680C4A01
:1013D00043F0E003D3600A4B4FF4E0625A61084BDC
:1013E000DB68074A43F00C03D360054BDB68044A13
:1013F00043F40053D36000BF0837BD4680BD00BF33
:101400000048004080B483B000AF0346FB710B4A34
:10141000FB79536000BF094B1B6803F08003002B6E
:10142000F9D0064B1B68DAB2054B1A70034B5B68A8
:10143000DBB218460C37BD4680BC70470048004000
:101440000400002080B400AF00BF124B1B6803F003
:101450002003002BF9D00F4B5B68DAB20E4B1A70E9
:1014600000BF0C4B1B6803F00203002BF9D100BF37
:10147000084B1B6803F00403002BF9D1054B1B68D4
:10148000DAB2064B1A70044B1B78DBB21846BD4625
:1014900080BC704700480040050000200400002088
:1014A00090B589B000AF786007F1080379681846F5
:1014B00001F06EF92020FFF7A5FF0023FB770AE07B
:1014C000FB7F20333B4413F8183C1846FFF79AFF84
:1014D000FB7F0133FB77FC7F786801F02BF9034633
:1014E00001339C42ECD300BF00BF2437BD4690BD02
:1014F00080B582B000AF0346FB7100BF0B4B1B6889
:1015000003F40073002BF9D0094B0222DA60FB7957
:101510001846FFF777FF064BDB68054A23F0020306
:10152000D36000BF0837BD4680BD00BF0048004003
:101530000008014080B500AF00BF0B4B1B6803F4EF
:101540000073002BF9D0094BDB68084A23F0020333
:10155000D360FFF777FF03461846FFF753FF034BAF
:101560000222DA6000BF80BD004800400008014050
:1015700080B582B000AF0346FB71184B1B6803F4C3
:101580000073002B06D0154B1B6803F40073002B6F
:1015900011D100E000BF124BDB68114A23F00203B7
:1015A000D360FFF74FFF03461846FFF72BFF0C4BA6
:1015B0000222DA6000E000BF094B0222DA60FB7908
:1015C0001846FFF71FFF064BDB68054A23F00203AE
:1015D000D36000BF0837BD4680BD00BF0048004053
:1015E0000008014080B400AF064B0022DA60064BD1
:1015F0009B69054A23F48043936100BFBD4680BCCC
:10160000704700BF003801400010024090B585B01F
:1016100000AFF860B9601346FB80FFF7DBFAF868AB
:10162000FFF73EFA344B0022DA60334B4FF440525E
:101630001A61324B1B68314A23F0010313602E4BB1
:101640005B692D4A43F0800353612D4B2D4A9A600C
:101650002B4ABB68D360FC88B86801F06BF803467E
:10166000274A23435360264B1B68254A23F48043B3
:101670001360234B1B68224A43F020031360204B66
:101680001B681F4A43F0800313601D4B1B681C4AF4
:1016900023F0400313601A4B1B68194A43F01003F0
:1016A0001360174B1B68164A23F470631360144BC6
:1016B0001B68134A43F480531360114B1B68104A94
:1016C00043F00E03136003210E20FEF761FD0E2090
:1016D000FEF71EFD084BDB68074A43F4005343F056
:1016E0000803D360064B1B68054A43F001031360EF
:1016F00000BF1437BD4690BD0038014008000240CD
:10170000440002400438014090B585B000AFF86055
:10171000B9601346FB80FFF75DFA344B5B69334ACF
:1017200043F001035361F868FFF7BAF9304B002228
:10173000DA602F4B4FF440521A612E4B2E4A9A60BA
:101740002C4ABB68D3602B4CB86800F0F3FF03460B
:101750006360284AFB885360264B1B68254A23F4A4
:1017600080431360234B1B68224A43F0200313601D
:10177000204B1B681F4A43F0800313601D4B1B68FE
:101780001C4A23F0400313601A4B1B68194A43F0AC
:1017900010031360174B1B68164A23F47063136021
:1017A000144B1B68134A43F480531360114B1B689E
:1017B000104A43F00E03136003210F20FEF7E8FCEC
:1017C0000F20FEF7A5FC0A4BDB68094A43F40053DF
:1017D00043F00C03D360074B1B68064A43F0010338
:1017E000136000BF1437BD4690BD00BF001002401B
:1017F00000380140580002400438014080B500AF75
:10180000084B1B6903F00103002B05D0054B1B6936
:10181000044A23F0010313611D20FEF795FC00BF6D
:1018200080BD00BF0004004080B500AF1A4BDB69EB
:10183000194A43F00203D361184B1B68174A23F07F
:1018400001031360154B13229A62144B4FF0FF32C1
:10185000DA62124B00225A62104B4122DA600F4BBF
:1018600080221A600D4B1B680C4B00221A600B4B38
:101870005B690A4A43F00103536102211D20FEF710
:1018800087FC1D20FEF744FC044B1B68034A43F011
:101890000103136000BF80BD00100240000400403F
:1018A00080B584B000AF0346FB800023FB8104E0D9
:1018B000FFF7BAFFFB890133FB81FA89FB889A4263
:1018C000F6D300BF00BF1037BD4680BD80B400AF67
:1018D000074B1B6903F00103002B05D0044B1B6968
:1018E000034A23F00103136100BFBD4680BC70476B
:1018F0000008004080B500AF1A4BDB69194A43F07D
:101900000403D361184B1B68174A23F001031360CB
:10191000154B13229A62144B4FF0FF32DA62124BCE
:1019200000225A62104B4122DA600F4B80221A606B
:101930000D4B1B680C4B00221A600B4B5B690A4A6B
:1019400043F00103536102211E20FEF721FC1E20FB
:10195000FEF7DEFB044B1B68034A43F001031360F0
:1019600000BF80BD001002400008004080B584B078
:1019700000AF0346FB800023FB8104E0FFF7BAFFC2
:10198000FB890133FB81FA89FB889A42F6D300BFB9
:1019900000BF1037BD4680BD80B400AF0B4B1B6944
:1019A00003F00103002B0CD0094B1B889BB20133C1
:1019B0009AB2074B1A80054B1B69044A23F00103B6
:1019C000136100BFBD4680BC704700BF002C0140C2
:1019D0000800002080B500AF194B00221A80194B77
:1019E0001B68184A23F001031360164B13229A62F6
:1019F000144B4FF6FF72DA62124B00225A62114BFF
:101A00004122DA600F4B80221A600E4B1B680D4A90
:101A100023F00A0313600B4B5B690A4A43F001038E
:101A2000536102211920FEF7B3FB1920FEF770FB6A
:101A3000044B1B68034A43F00103136000BF80BDE1
:101A400008000020002C014080B483B000AF0346A2
:101A5000FB800F4B13229A6200BF0E4B1B889BB278
:101A6000FA889A42F9D10B4B00221A80084B5B6925
:101A7000074A43F00103536100BF054B5B69012B2B
:101A8000FBD000BF00BF0C37BD4680BC704700BF15
:101A9000002C01400800002080B400AF344B1B68CC
:101AA000334A43F48033136000BF314B1B6803F4A7
:101AB0000033002BF9D02F4B1B682E4A43F0100344
:101AC00013602C4B1B682B4A23F007031360294B30
:101AD0001B68284A43F002031360254B5B68244AC5
:101AE00023F47F5323F030035360214B5B68204A7B
:101AF00043F4806353601E4B5B681D4A43F40053FC
:101B000053601B4B5B681A4A23F474135360184BE1
:101B10005B68174A43F480335360154B5B68144A83
:101B200043F440235360124B1B68114A43F0807307
:101B3000136000BF0E4B1B6803F00073002BF9D03D
:101B40000B4B5B680A4A23F003035360084B5B6846
:101B5000074A43F00203536000BF054B5B6803F084
:101B60000C03082BF9D100BF00BFBD4680BC7047F5
:101B7000001002400020024080B400AF2C4B1B68D4
:101B80002B4A43F48033136000BF294B1B6803F4D6
:101B90000033002BF9D0274B1B68264A43F0100373
:101BA0001360244B1B68234A03F007031360214B87
:101BB0001B68204A43F0040313601D4B1C4A5B68FA
:101BC00053601B4B5B681A4A43F480335360184BD5
:101BD00000225A60164B164A5B685360144B144A35
:101BE0005B685360124B1B68114A43F080731360AB
:101BF00000BF0F4B1B6803F00073002BF9D00C4B98
:101C00005B680B4A23F003035360094B5B68084A87
:101C100043F00203536000BF054B5B6803F00C0305
:101C2000082BF9D100BF00BFBD4680BC704700BF84
:101C3000001002400020024080B400AF1C4B4FF463
:101C400080321A6000BF1A4B1B6803F40033B3F5EF
:101C5000003FF8D1164B4FF400225A6203E0144BB8
:101C60004FF400029A60124B9B6803F40003B3F533
:101C7000000FF4D00E4B0E4A5B6853600C4B0C4ABD
:101C80005B6853600A4B0A4A5B685360084B5B68A9
:101C9000074A43F00103536000BF054B5B6803F044
:101CA0000403042BF9D100BF00BFBD4680BC7047C0
:101CB0000010024080B483B000AF786002E07B681F
:101CC000013B7B607B68002BF9D100BF00BF0C3764
:101CD000BD4680BC704780B400AF284B1B68274AC4
:101CE00043F48033136000BF244B1B6803F40033BC
:101CF000002BF9D0224B1B68214A43F010031360DC
:101D00001F4B1B681E4A03F0070313601C4B1B6824
:101D10001B4A43F004031360184B5B68174A23F413
:101D20004E335360154B5B68144A43F48063536031
:101D3000124B1B68114A43F08073136000BF0F4BB6
:101D40001B6803F00073002BF9D00C4B5B680B4A47
:101D500023F003035360094B5B68084A43F0020316
:101D6000536000BF054B5B6803F00C03082BF9D1EF
:101D700000BF00BFBD4680BC704700BF00100240DE
:101D80000020024080B400AF084B00221A60074BCD
:101D900041F61F425A60054B00229A60034B052210
:101DA0001A6000BFBD4680BC704700BF10E000E075
:101DB00080B485B000AF78600023FB6009E000BF0D
:101DC000094B1B6803F48033002BF9D1FB68013306
:101DD000FB60FA687B689A42F1D300BF00BF1437FA
:101DE000BD4680BC704700BF10E000E080B500AF8A
:101DF0000A4BDB68094A23F40053D36042F21070A7
:101E0000FFF7D6FF054BDB68044A43F40053D36069
:101E100042F21070FFF7CCFF00BF80BD0010014000
:101E200080B400AF0B4B9B690A4A43F4805343F0E4
:101E300005039361084B5B68074A43F000735360E6
:101E4000054B5B68044A23F00103536000BFBD46A5
:101E500080BC7047001002400000014080B400AF19
:101E6000094B9B69084A43F4805343F00D03936187
:101E7000064B5B68054A43F0007343F0010353606F
:101E800000BFBD4680BC704700100240000001400A
:101E900080B400AF0D4BDB690C4A43F48043D3613F
:101EA0000A4B9B69094A43F009039361084B5B683D
:101EB000074A43F000735360054B5B68044A23F004
:101EC0000103536000BFBD4680BC70470010024054
:101ED0000000014080B400AF134B9B6803F0010386
:101EE000002B04D0104BDB68DAB2104B1A700E4B8B
:101EF0009B6803F04003002B05D00B4B9B680A4AFC
:101F000023F040039360084B9B6803F02003002BF1
:101F100005D0054B9B68044A23F02003936000BF63
:101F2000BD4680BC704700BF003001400E0000205D
:101F300080B400AF134B9B6803F00103002B04D067
:101F4000104BDB68DAB2104B1A700E4B9B6803F033
:101F50004003002B05D00B4B9B680A4A23F040033B
:101F60009360084B9B6803F02003002B05D0054BC2
:101F70009B68044A23F02003936000BFBD4680BCE9
:101F8000704700BF003800400E00002080B582B0CE
:101F900000AF0346FB71194B00221A60174B002259
:101FA0005A60FFF73DFF164B1B68154A43F0384354
:101FB00043F43B031360114AFB7913600F4B1B681A
:101FC0000E4A43F4417313600C4B1B680B4A23F019
:101FD00080031360094B64225A6002212320FEF71C
:101FE000D7F82320FEF794F8044B1B68034A43F00C
:101FF0004003136000BF0837BD4680BD003001407C
:102000000008014080B483B000AF0346FB710B4A67
:10201000FB79D36000BF094B9B6803F08003002B62
:10202000F9D1064BDB68DAB2054B1A70044B1B780A
:10203000DBB218460C37BD4680BC7047003001400B
:102040000E00002080B584B000AF78600B467B8026
:102050000023FB7309E0FB7B7A6813441B78184666
:10206000FFF7D0FFFB7B0133FB73FB7B9BB27A88CE
:102070009A42F0D800BF00BF1037BD4680BD80B582
:1020800000AF2320FEF760F8034B1B68024A23F0E1
:102090004003136000BF80BD0030014080B582B0B6
:1020A00000AF0346FB71214B00221A601F4B002238
:1020B0005A601F4B00221A601E4B00225A60FFF725
:1020C000CDFE1B4B1B681A4A43F4380343F43043DC
:1020D0001360184B5B68174A43F030435360134B4F
:1020E0001A68FB79114913430B60104B1B680F4AA8
:1020F00043F4417313600D4B1B680C4A23F08003BB
:1021000013600A4B64225A6002212320FEF740F834
:102110002320FDF7FDFF054B1B68044A43F04003F5
:10212000136000BF0837BD4680BD00BF00300140CE
:10213000000C01400008014080B483B000AF0346AA
:10214000FB7100BF0E4B9B6803F00203002BF9D01C
:102150000B4AFB79D36000BF094B9B6803F08003F7
:10216000002BF9D1064BDB68DAB2064B1A70054B2F
:102170001B78DBB218460C37BD4680BC704700BFE9
:10218000003001400E00002080B584B000AF7860C0
:102190000B467B800023FB7309E0FB7B7A681344CA
:1021A0001B781846FFF7C8FFFB7B0133FB73FB7BF3
:1021B0009BB27A889A42F0D800BF00BF1037BD4664
:1021C00080BD80B500AFFFF75AFF00BF80BD80B56E
:1021D00082B000AF0346FB71FFF75AFE184B5B68F5
:1021E000174A43F0384343F430035360154B5B68A0
:1021F000144A43F430235360134B00221A60124BED
:1022000000225A60104AFB7913600F4B1B680E4A7C
:1022100043F4417313600C4B64225A600221242062
:10222000FDF7B6FF2420FDF773FF074B1B68064A36
:1022300043F04003136000BF0837BD4680BD00BFB8
:10224000000C0140000801400038004080B483B019
:1022500000AF0346FB7100BF0E4B9B6803F0020307
:10226000002BF9D00B4AFB79D36000BF094B9B6868
:1022700003F08003002BF9D1064BDB68DAB2064B82
:102280001A70054B1B78DBB218460C37BD4680BC74
:10229000704700BF003800400E00002080B584B0B9
:1022A00000AF78600B467B800023FB7309E0FB7B6B
:1022B0007A6813441B781846FFF7C8FFFB7B01338D
:1022C000FB73FB7B9BB27A889A42F0D800BF00BFB9
:1022D0001037BD4680BD80B500AF2420FDF734FF28
:1022E000034B1B68024A23F04003136000BF80BD0C
:1022F0000038004080B584B000AFF860B960134684
:10230000FB80FFF7C5FD314B00221A602F4B0022E6
:102310005A602E4AFB6813602D4B1B682C4A23F031
:10232000010313602B4B5B692A4A43F0800353611E
:10233000294B2A4A9A60284ABB68D360264AFB8800
:102340005360254B1B68244A23F480431360224BBF
:102350001B68214A43F0200313601F4B1B681E4A71
:1023600043F0800313601C4B1B681B4A23F040039F
:102370001360194B1B68184A43F010031360164B87
:102380001B68154A23F470631360134B1B68124AD1
:1023900043F480531360104B1B680F4A43F00E0345
:1023A000136002210F20FDF7F3FE0F20FDF7B0FEB2
:1023B000064B1B68054A43F040031360064B01229D
:1023C0001A6000BF1037BD4680BD00BF0038004016
:1023D0000800024000380140580002400C30014023
:1023E00080B584B000AFF860B9601346FB802B4A1B
:1023F000FB681360294B1B68284A43F44173136040
:10240000264B1B68254A43F080031360244B254A62
:102410009A60234ABB68D360214AFB885360204BF3
:102420001B681F4A43F0200313601D4B1B681C4AA6
:1024300043F0800313601A4B1B68194A23F04003D2
:102440001360174B1B68164A23F010031360144BDC
:102450001B68134A23F4A0631360114B1B68104AD6
:1024600043F4805313600D4B5B680C4A43F0010347
:1024700053600B4B1B680A4A43F0020313600221AE
:102480000E20FDF785FE0E20FDF742FE064B0122D1
:102490001A6000BF1037BD4680BD00BF0038004045
:1024A000440002400C3800405800024080B500AFA4
:1024B0004FF080431B6903F00203002B12D04FF052
:1024C00080431B694FF0804223F0020313614FF0F9
:1024D00080435B6B044A1360034B1B68DBB21846F6
:1024E000FEF78AFC00BF80BD1002002080B500AF5F
:1024F0002D4B9B692C4A43F0050393612A4BDB6902
:10250000294A43F00103D361284B4FF080625A609F
:10251000264B5B68254A23F4407353600021042056
:10252000FDF750FF4FF080431B684FF0804223F0CF
:10253000010313604FF0804313229A624FF08043EF
:102540004FF0FF32DA624FF080439B694FF08042D8
:1025500043F0010393614FF080431B6A4FF08042C8
:1025600043F0020313624FF080431B6A4FF0804236
:1025700043F0010313624FF08043DB684FF0804269
:1025800043F00203D3601C20FDF7C2FD01211C2093
:10259000FDF7FEFD4FF080431B684FF0804243F093
:1025A0000103136000BF80BD001002400000014025
:1025B00080B500AF2E4B9B692D4A43F00503936114
:1025C0002B4BDB692A4A43F00103D361294B4FF0BF
:1025D00080625A60274B5B68264A23F4407353603D
:1025E00001210B20FDF7EEFE4FF080431B684FF0FA
:1025F000804223F0010313604FF0804313229A625C
:102600004FF080434FF0FF32DA624FF080433F22B9
:102610009A634FF08043DB694FF0804223F44073AC
:10262000D3614FF080431B6A4FF0804223F02003B8
:1026300013624FF0804310221A624FF080434FF430
:102640004052DA614FF080430422DA601C20FDF72B
:102650005FFD01211C20FDF79BFD4FF080431B68AF
:102660004FF0804243F00103136000BF80BD00BF04
:10267000001002400000014080B400AF184B00225F
:102680005A60174B00221A60164B00225A60154BF5
:1026900000221A60144B00225A60134B00221A6069
:1026A0000F4B0022DA600E4B00229A600F4B002283
:1026B0005A600E4B00229A600C4B0022DA620B4BE0
:1026C00000221A63094B00225A63084B0022DA6089
:1026D000064B00221A6100BFBD4680BC704700BF98
:1026E0000010014000080140000C0140002401409E
:1026F00080B500AFFFF7C0FFFFF7CEF9074B44F2FC
:1027000010029A61054B0122DA614FF49640FEF700
:1027100047FBFFF7EBFE00BFFDE700BF00100240E4
:10272000E43600080000002004000020040000201F
:102730002002002020F0030110F00300C0F100008F
:1027400051F8043B00F1040C4FEACC0C6FF000028E
:102750001CBF22FA0CF213434FF0010C4CEA0C2C74
:102760004CEA0C4CA3EB0C0222EA030212EACC1254
:1027700004BF51F8043B0430F4D0C2F1000102EA76
:102780000102B2FA82F2C2F11F0200EBD2007047DE
:1027900080EA0102844612F0030F4FD111F0030FBB
:1027A00032D14DF8044D11F0040F51F8043B0BD019
:1027B000A3F101329A4312F0803F04BF4CF8043B6E
:1027C00051F8043B16D100BF51F8044BA3F101327C
:1027D0009A4312F0803FA4F101320BD14CF8043B34
:1027E000A24312F0803F04BF51F8043B4CF8044B65
:1027F000EAD023460CF8013B13F0FF0F4FEA3323D6
:10280000F8D15DF8044B704711F0010F06D011F8B4
:10281000012B0CF8012B002A08BF704711F0020FA2
:10282000BFD031F8022B12F0FF0F16BF2CF8022B8D
:102830008CF8002012F47F4FB3D1704711F8012BB0
:102840000CF8012B002AF9D1704700BF70B54FF08A
:10285000FF0C4CF4E06C1CEA11541DBF1CEA13552C
:1028600094EA0C0F95EA0C0F00F0DEF82C4481EA94
:10287000030621EA4C5123EA4C5350EA013518BFB4
:1028800052EA033541F4801143F4801338D0A0FBA1
:1028900002CE4FF00005E1FB02E506F00042E0FB4E
:1028A00003E54FF00006E1FB03569CF0000F18BF54
:1028B0004EF0010EA4F1FF04B6F5007F64F54074FC
:1028C00004D25FEA4E0E6D4146EB060642EAC6218F
:1028D00041EA55514FEAC52040EA5E504FEACE2EFC
:1028E000B4F1FD0C88BFBCF5E06F1ED8BEF1004FFF
:1028F00008BF5FEA500E50F1000041EB045170BD7B
:1029000006F0004646EA010140EA020081EA0301BE
:10291000B4EB5C04C2BFD4EB0C0541EA045170BDBA
:1029200041F480114FF0000E013C00F3AB8014F134
:10293000360FDEBF002001F0004170BDC4F100047D
:10294000203C35DA0C341BDC04F11404C4F12005FE
:1029500000FA05F320FA04F001FA05F240EA020059
:1029600001F0004221F0004110EBD37021FA04F68F
:1029700042EB06015EEA430E08BF20EAD37070BD49
:10298000C4F10C04C4F1200500FA04F320FA05F0A8
:1029900001FA04F240EA020001F0004110EBD370AA
:1029A00041F100015EEA430E08BF20EAD37070BD1A
:1029B000C4F1200500FA05F24EEA020E20FA04F3F3
:1029C00001FA05F243EA020321FA04F001F00041A2
:1029D00021FA04F220EA020000EBD3705EEA430E13
:1029E00008BF20EAD37070BD94F0000F0FD101F042
:1029F0000046400041EB010111F4801F08BF013C7B
:102A0000F7D041EA060195F0000F18BF704703F0B8
:102A10000046520043EB030313F4801F08BF013D3F
:102A2000F7D043EA0603704794EA0C0F0CEA1355FB
:102A300018BF95EA0C0F0CD050EA410618BF52EAB5
:102A40004306D1D181EA030101F000414FF00000BB
:102A500070BD50EA410606BF1046194652EA4306C9
:102A600019D094EA0C0F02D150EA013613D195EA3D
:102A70000C0F05D152EA03361CBF104619460AD185
:102A800081EA030101F0004141F0FE4141F470018F
:102A90004FF0000070BD41F0FE4141F4780170BD7F
:102AA0004FF0FF0C1CEAD0521EBF1CEAD15392EA31
:102AB0000C0F93EA0C0F6FD01A4480EA010C40020D
:102AC00018BF5FEA41211ED04FF0006343EA501067
:102AD00043EA5111A0FB01310CF00040B1F5000FA9
:102AE0003EBF490041EAD3715B0040EA010062F158
:102AF0007F02FD2A1DD8B3F1004F40EBC25008BF42
:102B000020F00100704790F0000F0CF0004C08BF5F
:102B100049024CEA502040EA51207F3AC2BFD2F12C
:102B2000FF0340EAC250704740F400004FF000033A
:102B3000013A5DDC12F1190FDCBF00F00040704774
:102B4000C2F10002410021FA02F1C2F1200200FAB2
:102B500002FC5FEA310040F1000053EA4C0308BF79
:102B600020EADC70704792F0000F00F0004C02BFCA
:102B7000400010F4000F013AF9D040EA0C0093F045
:102B8000000F01F0004C02BF490011F4000F013B9F
:102B9000F9D041EA0C018FE70CEAD15392EA0C0F0D
:102BA00018BF93EA0C0F0AD030F0004C18BF31F078
:102BB000004CD8D180EA010000F00040704790F04E
:102BC000000F17BF90F0004F084691F0000F91F0F2
:102BD000004F14D092EA0C0F01D142020FD193EAB8
:102BE0000C0F03D14B0218BF084608D180EA010040
:102BF00000F0004040F0FE4040F40000704740F01C
:102C0000FE4040F44000704781F0004102E000BF08
:102C100083F0004330B54FEA41044FEA430594EA9C
:102C2000050F08BF90EA020F1FBF54EA000C55EAD7
:102C3000020C7FEA645C7FEA655C00F0E2804FEAA8
:102C40005454D4EB5555B8BF6D420CDD2C4480EA8A
:102C5000020281EA030382EA000083EA010180EABA
:102C6000020281EA0303362D88BF30BD11F0004F08
:102C70004FEA01314FF4801C4CEA113102D040423E
:102C800061EB410113F0004F4FEA03334CEA133379
:102C900002D0524263EB430394EA050F00F0A78091
:102CA000A4F10104D5F1200E0DDB02FA0EFC22FA8C
:102CB00005F2801841F1000103FA0EF2801843FA80
:102CC00005F359410EE0A5F120050EF1200E012A71
:102CD00003FA0EFC28BF4CF0020C43FA05F3C018AF
:102CE00051EBE37101F0004507D54FF0000EDCF128
:102CF000000C7EEB00006EEB0101B1F5801F1BD3D1
:102D0000B1F5001F0CD349085FEA30004FEA3C0CD4
:102D100004F101044FEA445212F5800F80F09A80CA
:102D2000BCF1004F08BF5FEA500C50F1000041EBCE
:102D3000045141EA050130BD5FEA4C0C404141EBD2
:102D40000101013C28BFB1F5801FE9D291F0000FCD
:102D500004BF01460020B1FA81F308BF2033A3F17C
:102D60000B03B3F120020CDA0C3208DD02F1140C73
:102D7000C2F10C0201FA0CF021FA02F10CE002F1AE
:102D80001402D8BFC2F1200C01FA02F120FA0CFCA7
:102D9000DCBF41EA0C019040E41AA2BF01EB0451F0
:102DA000294330BD6FEA04041F3C1CDA0C340EDCEE
:102DB00004F11404C4F1200220FA04F001FA02F331
:102DC00040EA030021FA04F345EA030130BDC4F1EF
:102DD0000C04C4F1200220FA02F001FA04F340EAE4
:102DE0000300294630BD21FA04F0294630BD94F095
:102DF000000F83F4801306BF81F480110134013D7C
:102E00004EE77FEA645C18BF7FEA655C29D094EAEC
:102E1000050F08BF90EA020F05D054EA000C04BF6A
:102E20001946104630BD91EA030F1EBF0021002055
:102E300030BD5FEA545C05D14000494128BF41F0F4
:102E4000004130BD14F580043CBF01F5801130BD58
:102E500001F0004545F0FE4141F470014FF00000E3
:102E600030BD7FEA645C1ABF194610467FEA655C94
:102E70001CBF0B46024650EA013406BF52EA033536
:102E800091EA030F41F4002130BD00BF90F0000F24
:102E900004BF0021704730B54FF4806404F1320460
:102EA0004FF000054FF0000150E700BF90F0000F19
:102EB00004BF0021704730B54FF4806404F1320440
:102EC00010F0004548BF40424FF000013EE700BF10
:102ED00042004FEAE2014FEA31014FEA02701FBFA0
:102EE00012F07F4393F07F4F81F06051704732F0D2
:102EF0007F4208BF704793F07F4F04BF41F4002129
:102F0000704730B54FF4607401F0004521F0004186
:102F10001CE700BF50EA010208BF704730B54FF010
:102F200000050AE050EA010208BF704730B511F011
:102F3000004502D5404261EB41014FF4806404F149
:102F400032045FEA915C3FF4D8AE4FF003025FEACF
:102F5000DC0C18BF03325FEADC0C18BF033202EB53
:102F6000DC02C2F1200300FA03FC20FA02F001FAAD
:102F700003FE40EA0E0021FA02F11444BDE600BF50
:102F800070B54FF0FF0C4CF4E06C1CEA11541DBFFF
:102F90001CEA135594EA0C0F95EA0C0F00F0DEF8CA
:102FA0002C4481EA030621EA4C5123EA4C5350EAAF
:102FB000013518BF52EA033541F4801143F4801300
:102FC00038D0A0FB02CE4FF00005E1FB02E506F091
:102FD0000042E0FB03E54FF00006E1FB03569CF0E6
:102FE000000F18BF4EF0010EA4F1FF04B6F5007FEC
:102FF00064F5407404D25FEA4E0E6D4146EB06065E
:1030000042EAC62141EA55514FEAC52040EA5E50E6
:103010004FEACE2EB4F1FD0C88BFBCF5E06F1ED890
:10302000BEF1004F08BF5FEA500E50F1000041EBC7
:10303000045170BD06F0004646EA010140EA020074
:1030400081EA0301B4EB5C04C2BFD4EB0C0541EA96
:10305000045170BD41F480114FF0000E013C00F3AB
:10306000AB8014F1360FDEBF002001F0004170BDCF
:10307000C4F10004203C35DA0C341BDC04F11404E8
:10308000C4F1200500FA05F320FA04F001FA05F274
:1030900040EA020001F0004221F0004110EBD37041
:1030A00021FA04F642EB06015EEA430E08BF20EA6D
:1030B000D37070BDC4F10C04C4F1200500FA04F310
:1030C00020FA05F001FA04F240EA020001F00041A2
:1030D00010EBD37041F100015EEA430E08BF20EA15
:1030E000D37070BDC4F1200500FA05F24EEA020E5D
:1030F00020FA04F301FA05F243EA020321FA04F08C
:1031000001F0004121FA04F220EA020000EBD37042
:103110005EEA430E08BF20EAD37070BD94F0000F42
:103120000FD101F00046400041EB010111F4801F76
:1031300008BF013CF7D041EA060195F0000F18BF27
:10314000704703F00046520043EB030313F4801F63
:1031500008BF013DF7D043EA0603704794EA0C0F1D
:103160000CEA135518BF95EA0C0F0CD050EA410633
:1031700018BF52EA4306D1D181EA030101F00041B0
:103180004FF0000070BD50EA410606BF10461946D8
:1031900052EA430619D094EA0C0F02D150EA0136E4
:1031A00013D195EA0C0F05D152EA03361CBF104625
:1031B00019460AD181EA030101F0004141F0FE41C4
:1031C00041F470014FF0000070BD41F0FE4141F448
:1031D000780170BD70B54FF0FF0C4CF4E06C1CEA48
:1031E00011541DBF1CEA135594EA0C0F95EA0C0FFD
:1031F00000F0A7F8A4EB050481EA030E52EA0335B8
:103200004FEA013100F088804FEA03334FF08055D8
:1032100045EA131343EA12634FEA022245EA111505
:1032200045EA10654FEA00260EF000419D4208BFB6
:10323000964244F1FD0404F5407402D25B084FEA63
:103240003202B61A65EB03055B084FEA32024FF40F
:1032500080104FF4002CB6EB020E75EB030E22BF6C
:10326000B61A754640EA0C005B084FEA3202B6EB2C
:10327000020E75EB030E22BFB61A754640EA5C00DB
:103280005B084FEA3202B6EB020E75EB030E22BF6B
:10329000B61A754640EA9C005B084FEA3202B6EB6C
:1032A000020E75EB030E22BFB61A754640EADC002B
:1032B00055EA060E18D04FEA051545EA16754FEA8D
:1032C00006164FEAC30343EA52734FEAC2025FEAAB
:1032D0001C1CC0D111F4801F0BD141EA00014FF03A
:1032E00000004FF0004CB6E711F4801F04BF01430B
:1032F0000020B4F1FD0C88BFBCF5E06F3FF6AFAE27
:10330000B5EB030C04BFB6EB020C5FEA500C50F1B6
:10331000000041EB045170BD0EF0004E4EEA113139
:1033200014EB5C04C2BFD4EB0C0541EA045170BD40
:1033300041F480114FF0000E013C90E645EA060E84
:103340008DE60CEA135594EA0C0F08BF95EA0C0FB2
:103350003FF43BAF94EA0C0F0AD150EA01347FF4FA
:1033600034AF95EA0C0F7FF425AF104619462CE7D1
:1033700095EA0C0F06D152EA03353FF4FDAE104634
:10338000194622E750EA410618BF52EA43067FF485
:10339000C5AE50EA41047FF40DAF52EA43057FF415
:1033A000EBAE12E74FEA4102B2F1E04324BFB3F5BE
:1033B000001CDCF1FE5C0DD901F0004C4FEAC002AC
:1033C0004CEA5070B2F1004F40EB830008BF20F090
:1033D0000100704711F0804F21D113F13872BCBF4A
:1033E00001F00040704741F480114FEA5252C2F19F
:1033F0001802C2F1200C10FA0CF320FA02F018BFE8
:1034000040F001004FEAC1234FEAD32303FA0CFC3A
:1034100040EA0C0023FA02F34FEA4303CCE77FEAC9
:10342000625307D150EA01331EBF4FF0FE4040F413
:103430004000704701F0004040F0FE4040F40000C2
:10344000704700BF80F0004002E000BF81F0004103
:1034500042001FBF5FEA410392EA030F7FEA226C3A
:103460007FEA236C6AD04FEA1262D2EB1363C1BFCA
:10347000D218414048404140B8BF5B42192B88BF39
:10348000704710F0004F40F4000020F07F4018BF5C
:10349000404211F0004F41F4000121F07F4118BF7C
:1034A000494292EA030F3FD0A2F1010241FA03FC24
:1034B00010EB0C00C3F1200301FA03F100F000430C
:1034C00002D5494260EB4000B0F5000F13D3B0F1D4
:1034D000807F06D340084FEA310102F10102FE2A43
:1034E00051D2B1F1004F40EBC25008BF20F00100B3
:1034F00040EA03007047490040EB0000013A28BF52
:10350000B0F5000FEDD2B0FA80FCACF1080CB2EBD4
:103510000C0200FA0CF0AABF00EBC2505242184352
:10352000BCBFD0401843704792F0000F81F40001F7
:1035300006BF80F400000132013BB5E74FEA4103CA
:103540007FEA226C18BF7FEA236C21D092EA030F36
:1035500004D092F0000F08BF0846704790EA010FB0
:103560001CBF0020704712F07F4F04D1400028BFDD
:1035700040F00040704712F100723CBF00F50000BF
:10358000704700F0004343F0FE4040F400007047F5
:103590007FEA226216BF08467FEA236301464202A1
:1035A00006BF5FEA412390EA010F40F480007047B4
:1035B0004FF0000304E000BF10F0004348BF40425A
:1035C0005FEA000C08BF704743F0964301464FF096
:1035D00000001CE050EA010208BF70474FF00003F2
:1035E0000AE000BF50EA010208BF704711F0004333
:1035F00002D5404261EB41015FEA010C02BF844603
:103600000146002043F0B64308BFA3F18053A3F561
:103610000003BCFA8CF2083AA3EBC25310DB01FAA8
:1036200002FC634400FA02FCC2F12002BCF1004F2C
:1036300020FA02F243EB020008BF20F001007047BD
:1036400002F1200201FA02FCC2F1200250EA4C0011
:1036500021FA02F243EB020008BF20EADC70704757
:1036600042000ED2B2F1FE4F0BD34FF09E03B3EBEC
:10367000126209D44FEA002343F0004323FA02F018
:1036800070474FF00000704712F1610F01D1420204
:1036900002D14FF0FF3070474FF00000704700BF7D
:1036A0000A480B490B4A002302E0D458C4500433A3
:1036B000C4188C42F9D3084A084C002301E0136077
:1036C0000432A242FBD3FFF713F87047000000203A
:1036D00004000020E436000804000020200200203E
:0436E000FEE7000001
:0436E40001000000E1
:04000005080036A118
:00000001FF
