:020000040800F2
:100000000050002091060008D1060008D106000823
:10001000D1060008D1060008D10600080000000043
:10002000000000000000000000000000D1060008F1
:10003000D106000800000000D1060008D106000823
:10004000D1060008D1060008D1060008D106000834
:10005000D1060008D1060008D1060008D106000824
:10006000D1060008D1060008D1060008D106000814
:10007000D1060008D1060008D1060008D106000804
:10008000D1060008D1060008D1060008D1060008F4
:10009000D1060008D1060008D1060008D1060008E4
:1000A000D1060008D1060008D1060008D1060008D4
:1000B000D1060008D1060008D1060008D1060008C4
:1000C000D1060008D1060008D1060008690400081E
:1000D000D1060008D1060008D1060008D1060008A4
:1000E000D1060008D1060008D10600080000000073
:1000F0000000000000000000000000000000000000
:0C01000000000000000000005FF808F1A3
:10010C0080B400AF2D4B1B682C4A43F48033136032
:10011C0000BF2A4B1B6803F40033002BF9D0284B8B
:10012C001B68274A43F010031360254B1B68244AB5
:10013C0003F007031360224B1B68214A43F00403AE
:10014C0013601E4B1D4A5B6853601C4B5B681B4A5B
:10015C0043F480335360194B4FF4E0125A60174B41
:10016C00164A5B685360154B5B68144A43F4806312
:10017C005360124B1B68114A43F08073136000BF2D
:10018C000E4B1B6803F00073002BF9D00B4B5B6814
:10019C000A4A23F003035360084B5B68074A43F099
:1001AC000203536000BF054B5B6803F00C03082B84
:1001BC00F9D100BF00BFBD4680BC704700100240A3
:1001CC000020024080B400AF1C4B4FF480321A6008
:1001DC0000BF1A4B1B6803F40033B3F5003FF8D192
:1001EC00164B4FF400225A6203E0144B4FF40002FA
:1001FC009A60124B9B6803F40003B3F5000FF4D024
:10020C000E4B0E4A5B6853600C4B0C4A5B68536098
:10021C000A4B0A4A5B685360084B5B68074A43F019
:10022C000103536000BF054B5B6803F00403042B10
:10023C00F9D100BF00BFBD4680BC70470010024022
:10024C0080B483B000AF786002E07B68013B7B60D8
:10025C007B68002BF9D100BF00BF0C37BD4680BCBA
:10026C00704780B400AF284B1B68274A43F4803397
:10027C00136000BF244B1B6803F40033002BF9D030
:10028C00224B1B68214A43F0100313601F4B1B6861
:10029C001E4A03F0070313601C4B1B681B4A43F0F8
:1002AC0004031360184B5B68174A23F44E335360F6
:1002BC00154B5B68144A43F480635360124B1B6804
:1002CC00114A43F08073136000BF0F4B1B6803F09F
:1002DC000073002BF9D00C4B5B680B4A23F0030323
:1002EC005360094B5B68084A43F00203536000BF3C
:1002FC00054B5B6803F00C03082BF9D100BF00BF62
:10030C00BD4680BC704700BF001002400020024078
:10031C0080B400AF074B00221A60064B064A5A60A5
:10032C00044B00229A60034B05221A6000BFBD46A5
:10033C0080BC704710E000E03F19010080B485B02C
:10034C0000AF78600023FB6009E000BF094B1B681D
:10035C0003F48033002BF9D1FB680133FB60FA689E
:10036C007B689A42F1D300BF00BF1437BD4680BCF6
:10037C00704700BF10E000E080B582B000AF78603D
:10038C0039603B687868984700BF0837BD4680BD28
:10039C0080B483B000AF7860034A7B68D36000BF41
:1003AC000C37BD4680BC70470008014080B483B058
:1003BC0000AF7860044A7B681B02D36000BF0C3727
:1003CC00BD4680BC704700BF000C014080B400AF3C
:1003DC00034B4FF0AA321A6000BFBD4680BC704779
:1003EC000008014080B400AF034B4FF0AA325A60B2
:1003FC0000BFBD4680BC70470008014080B400AF10
:10040C00034B4FF0AA325A6000BFBD4680BC704708
:10041C00000C014080B400AF034B4FF0AA321A60BD
:10042C0000BFBD4680BC7047000C014080B400AFDB
:10043C00034B4FF0AA325A6000BFBD4680BC7047D8
:10044C000008014080B400AF034B4FF0AA321A6091
:10045C0000BFBD4680BC70470008014080B400AFAF
:10046C00124B9B68402B11D0402B1AD8012B07D074
:10047C00022B16D10D4BDB689AB20D4B1A8011E092
:10048C000A4BDB689AB20A4B1A800BE0074BDB680D
:10049C009AB2074B1A80054B9B689AB2054B1A808F
:1004AC0000E000BF00BFBD4680BC7047003001407B
:1004BC00000000200200002080B500AF074B102286
:1004CC001A616420FFF73AFF044B4FF480121A6153
:1004DC006420FFF733FF00BF80BD00BF0008014060
:1004EC0080B400AF244B00221A60234B00225A60C8
:1004FC00214B00229A60204B38221A601E4B1B683D
:10050C001D4A23F0010313601B4B1B681A4A23F08E
:10051C0002031360184B1B68174A23F40063136023
:10052C00154B1B68144A43F080031360124B1B6875
:10053C00114A23F4004313600F4B1B680E4A43F41B
:10054C00804313600C4B80225A600B4B5B680A4A49
:10055C0043F004035360084B1B68074A43F0040341
:10056C001360054B1B68044A43F04003136000BF43
:10057C00BD4680BC704700BF0030014080B582B0E2
:10058C0000AF0346FB71114AFB79D36000BF0F4BE0
:10059C009B6803F00203022BF9D00C4BDB689AB278
:1005AC000B4B1A800B4B01221A6142F21070FFF7B1
:1005BC00C5FE084B4FF480321A6142F21070FFF7FF
:1005CC00BDFE00BF0837BD4680BD00BF00300140F6
:1005DC00000000200008014080B400AF044B1B68F1
:1005EC00034A23F04003136000BFBD4680BC704734
:1005FC000030014080B582B000AFFFF781FDFFF7FE
:10060C0030FEFFF785FE174B41F20C029A61164B38
:10061C004FF4A0721A60144B1B68134A43F0A003EA
:10062C001360114B1B68104A43F0500313600F4BBF
:10063C004FF4A0225A600D4B01221A60FFF750FFB5
:10064C0001237B6007E07B68DBB21846FFF796FF5F
:10065C007B6801337B607B68FE2BF4DDFFF7BCFF0E
:10066C0000BFFDE700100240000C014000080140F3
:10067C00D40600080000002000000020000000202C
:10068C000C0000200A480B490B4A002302E0D45806
:10069C00C4500433C4188C42F9D3084A084C0023C4
:1006AC0001E013600432A242FBD3FFF7A3FF7047B3
:1006BC000000002000000020D406000800000020EC
:0806CC000C000020FEE7000015
:040000050800069158
:00000001FF
